:020000040000FA
:100000003DB8F3968000000080001400CBDD0200B4
:1000100000010000000100000000000000000000DE
:10002000FFFFFFFFFFFFFFFFFFFFFFFFFFFFFFFFE0
:10003000FFFFFFFFFFFFFFFFFFFFFFFFFFFFFFFFD0
:10004000FFFFFFFFFFFFFFFFFFFFFFFFFFFFFFFFC0
:10005000FFFFFFFFFFFFFFFFFFFFFFFFFFFFFFFFB0
:10006000FFFFFFFFFFFFFFFFFFFFFFFFFFFFFFFFA0
:10007000FFFFFFFFFFFFFFFFFFFFFFFFFFFFFFFF90
:100080000088022019D90200BF220000BF22000010
:10009000BF220000BF220000BF220000BF220000DC
:1000A000BF220000BF220000BF220000052F000079
:1000B000BF220000BF220000AD2E0000412D000035
:1000C000BF220000BF220000BF220000BF220000AC
:1000D000BF220000BF220000BF220000BF2200009C
:1000E000BF220000BF220000BF220000BF2200008C
:1000F000BF220000BF220000BF220000BF2200007C
:10010000BF220000BF220000BF220000BF2200006B
:10011000BF220000BF220000BF220000BF2200005B
:10012000BF220000BF220000BF220000BF2200004B
:10013000BF220000BF220000BF220000BF2200003B
:10014000BF220000BF220000BF2200004FF0FF329C
:1001500000F1080182604160C16000F108020261A3
:1001600001F036BD00210161704710B542684A6058
:1001700093688B6094686160916008610168491CB4
:10018000016010BD30B50A6812F1010F08BF0369A4
:1001900007D000F1080300E023465C682568AA4206
:1001A000FAD25A684A6091608B60596008610168B0
:1001B000491C016030BD8268436801699A604268E9
:1001C00083685A604A68824204BF83684B60002299
:1001D00002610868401E086008687047F8B5044668
:1001E00001260D46002C1CBFE06B002832D04FF0DA
:1001F000FF31B1FBF0F0226C90422BD302F08AFD6C
:10020000206CE16B2268002700FB01F3491E484384
:100210001344A3601044A763E060626004F14400EB
:100220004FF0FF31017041704DB9206978B104F190
:10023000100000F0B3FE50B102F062FD07E004F1DF
:100240001000FFF783FF04F12400FFF77FFF02F0A7
:100250006DFD00E000263046F2BD7CB5002500288B
:1002600018BF002B0CD00AB109B909E041B9069CAE
:100270001D46012685F846600095E3B200F025F89A
:10028000284676BDF8B504460E4617460025D4B17B
:100290004FF0FF30B0FBF4F0B04214D306FB04F093
:1002A00010F1500F0FD2503001F033FB05000AD08F
:1002B000002085F8460000953B4605F15002314686
:1002C000204600F002F82846F2BD38B51C46049DD1
:1002D00000290CBF2D602A60E863296401212846AB
:1002E000FFF77CFF85F84C4031BD30B100218160C3
:1002F00000220260C160002346E07047024610B54C
:1003000001F0B2FC0446FFF7F0FF204610BD80B5B7
:100310008168DFF82829D36B994209D1C168491E49
:10032000C16003D10023002200F02EF8012002BD9D
:10033000002002BD10B50446A068DFF80029D36B89
:10034000984204D1E068401CE060012010BD2046C6
:1003500000F057F910B1E168491CE16010BD38B5F3
:100360000D46002470B1A8420CD34AB114460121B5
:1003700084F846100094022300220021FFF7A5FF15
:1003800004B1A563204632BD2DE9F647064682B08A
:1003900089469846002406F14407DFF8A0A82FE01C
:1003A0000398002849D034B9DAF864000124009099
:1003B000DAF85010019102F0B9FC00F045FC02F0AF
:1003C000A9FC00F0A8F904BF0021397000F09EF9E3
:1003D00004BF0021797002F0A9FC00F093F9002815
:1003E0003DD102F097FCB06BF16B884214BF002541
:1003F000012502F09BFC25BB00F001F900F040FC58
:1004000002F088FCB06BF16B884202D3B8F1020FA6
:10041000C6D142464946304600F0BEF9716A19B16C
:1004200006F1240000F0BAFD08B102F069FC02F008
:100430007DFC012004B0BDE8F08702F077FC0020CD
:10044000F8E7039906F1100000F057FD00F0D7F827
:1004500000F016FC0028D3D102F052FCD0E700F0E7
:10046000CEF800F00DFCEAE72DE9F8430546894691
:1004700014461E4602F008FD8046A86BE96B8842D0
:1004800001D3022E1FD195F94570A86B324649461B
:10049000284600F081F917F1010F0AD1686A80B18E
:1004A00000F040F8002818BF002C0AD0012121607C
:1004B00007E0DFF88807C16C8F423CBF7F1C85F8DE
:1004C0004570012400E00024404659E170B505461E
:1004D0000C4602F0D9FC0646A86BE96B88421BD299
:1004E00095F94510401CA86311F1010F0AD1686A03
:1004F00080B100F017F8002818BF002C0AD00121A5
:10050000216007E0DFF83407C26C91423CBF491C10
:1005100085F84510012400E00024304602F0BFFCBD
:10052000204670BD05F1240000F038BD2DE9F743E9
:1005300006468846002406F14407DFF8009703E0EA
:1005400000F05DF800F09CFB02F0E4FBB56B002DC1
:1005500035D10298002844D034B9D9F86400012478
:100560000090D9F85010019102F0E0FB00F06CFB14
:1005700002F0D0FB00F0CFF804BF0021397000F08A
:10058000C5F804BF0021797002F0D0FB02A96846CB
:1005900000F0A6FD0028304627D100F07AF90028A7
:1005A000CED0029906F1240000F0A7FC00F027F855
:1005B00000F066FB0028C7D102F0A2FBC4E7414669
:1005C000304600F01DF96D1EB563306920B100F0B2
:1005D000A7F808B102F094FB02F0A8FB0120BDE8E7
:1005E000FE8302F0A3FB0020F9E700F01DF900F004
:1005F00047FB304600F04DF90028A5D0F3E7304620
:1006000012E12DE9F3410646002482B0A04606F12E
:100610004407DFF8285603E0FFF7F1FF00F030FB56
:1006200002F078FBB06B00283BD10398002863D020
:1006300024B9686E01240090296D019102F076FBC7
:1006400000F002FB02F066FB00F065F804BF002139
:10065000397000F05BF804BF0021797002F066FB8E
:1006600000F050F8002830462DD100F012F9002893
:10067000D2D0306838B902F04DFBB06800F0D6FD3A
:10068000804602F053FB039906F1240000F035FC8C
:10069000FFF7B5FF00F0F4FA0028C1D102F030FBFB
:1006A000BEE7401EB063306810B900F069FEB0606C
:1006B000306920B100F034F808B102F021FB02F0FB
:1006C00035FB01201BE000F0AFF800F0D9FA30460E
:1006D00000F0DFF80028A3D0B8F1000F0ED002F030
:1006E00019FB706A00281DBF306B0168C1F10A0157
:1006F0000021B06800F008FE02F018FB002004B0F2
:10070000BDE8F08103A9684600F0EABC97F9010052
:1007100010F1010F704797F9000010F1010F7047B9
:1007200006F1100000F03ABC2DE9F8430646884671
:10073000144602F0A9FBB56B8146FDB196F94470F1
:100740004146304600F05CF86D1EB56317F1010FAD
:100750000AD1306980B1FFF7E3FF002818BF002CF1
:100760000AD00121216007E0DFF8D004C16C8F427C
:100770003CBF7F1C86F84470012400E000244846FA
:1007800002F08DFB2046BDE8F28390F84610002968
:1007900008BF01F029B97047F8B506461446B56B95
:1007A000326C002742B9306830BBB06800F079FD88
:1007B00000210746B1601FE064B9706802F0B0FB29
:1007C0007068316CB26808447060904214D330682D
:1007D000706011E0F06802F0A3FB306CF1684042F9
:1007E0000144F1603268914202D2B1680844F0607D
:1007F000022C01D105B16D1E6D1CB5633846F2BDEA
:10080000026C0B46002A00D1704710B5C16884689D
:100810001144C160A14224BF0168C160C16818468B
:10082000BDE8104002F07CBBF8B500F09CF904F183
:10083000440090F9015007E004F1240000F0AEFB01
:1008400008B100F075FC6D1E68B2012802DB606A19
:100850000028F1D104F144054FF0FF366E7002F02C
:1008600065FA02F057FA95F9007007E004F11000FC
:1008700000F094FB08B100F05BFC7F1E78B2012809
:1008800002DB20690028F1D12E70BDE8F14002F0B2
:100890004DBA10B500F067F9A06B441EA44102F0F8
:1008A00045FAE00F10BDF8B501F092FB02F032FA04
:1008B00004F1380797F90C0010F1010F04BF002173
:1008C000397397F90D0010F1010F04BF00217973FE
:1008D00002F02CFA386828B93246294604F124007F
:1008E00000F039FB2046BDE8F2409DE72DE9F043DA
:1008F00085B00E9D06460F4690469946002D1CBFBA
:100900000D9C002C18D06421284602F09BFB02228B
:100910002C6385F861200C9A002004A903900191B2
:10092000009202954B4642463946304600F039F86F
:10093000284600F077F801E00020049004982DE0AC
:100940002DE9F8430646174684B088469946B80014
:1009500000F0DFFF04001FD0642000F0DAFF050084
:1009600017D0642102F06EFB00202C6385F8610033
:1009700003900D980C990190029500914B463A46D0
:100980004146304600F00DF8284600F04BF80120B3
:1009900004E0204601F028F84FF0FF3005B0BDE834
:1009A000F0832DE9F8430A9C80460D46206B1646DD
:1009B0009946A522B10002F049FB216B01EB8600AC
:1009C000061FF608F60004F140010E6065B1002232
:1009D000AB5CA01880F83430A85C10B1521C0C2A13
:1009E000F6D3002084F83F00089F092F88BF09270D
:1009F000099DE762CF60201DFFF7B4FB04F11800EA
:100A0000002101612461C7F10A07A761216B6462BB
:100A10004B464246304602F0B5F9206005B12C60E5
:100A2000BDE8F1832DE9F84300F09DF8DFF8685543
:100A3000E86C1426DFF8F077401CE864E86B40BBF4
:100A4000EC63E86C01282CD1002506FB05F06D1C39
:100A50003844FFF77BFB0A2DF7D3DFF83C5505F14F
:100A600090084046FFF772FB05F1A4094846FFF7DE
:100A70006DFB2846FFF76AFB05F11400FFF766FBE4
:100A800005F12800FFF762FBC5F84080C5F84490E7
:100A900007E0A86D28B9E06AE96BCA6A904228BFEE
:100AA000EC63A86EE16A401C60646A6D8A4238BFDC
:100AB00069654E43A866381D805900F014F8B819CE
:100AC0006061BA59521CBA5102F030F9A86D40B1B8
:100AD000E86BC16AE06A814203D2BDE8F14302F0EB
:100AE0000FB9BDE8F183211DA0608268E2608268D1
:100AF00051608160704738B500F035F800F06EF84D
:100B0000A06A18B104F11800FFF755FBA86E401C4D
:100B1000A866E86B84420BD1211D05F11400FFF794
:100B200024FBA86C401CA864204602F0A1F807E052
:100B3000E86C401EE864204602F09AF800F059FB89
:100B400002F0F4F8E86B84421CBF204600F043FB3F
:100B5000A86D18B1E86B844200D146E031BD02F0C7
:100B6000E5F8204610BD044602F0D4B838B5FFF7CA
:100B7000FAFF00F033F8A06A18B104F11800FFF78B
:100B80001AFB211D05F12800FFF7EFFA00202118BC
:100B900091F86030012B03D10021221882F86010F7
:100BA000401C0028F3DD02F0C1F8A86D28B102F066
:100BB000B1F800F01EFB02F0B9F8E96B8C420CD1E1
:100BC000A86D00B111E0A86AE96C884202D100204A
:100BD000E86331BDBDE8314056E131BDDFF8B853BF
:100BE00004B9EC6B201DFFF7E6BABDE8314002F016
:100BF00087B800003EB5114C04F1B80004F58E71C1
:100C0000029001910025009500234C220CA10FF2C7
:100C10002D50FFF76BFE70B100F012FC01280AD1D5
:100C200002F032F94FF0FF30E0660121A1650020AB
:100C3000206502F0DBF8206F37BD0000F8090020C6
:100C400049444C4500000000DFF84C03416F491C4B
:100C500041677047DFF84023516D002001B101204A
:100C6000D36BD96A29B9DFF8C0150B68012B00D8FE
:100C700008B100207047D06E116D401A7047000017
:100C8000F8B502F047F8DFF81063706F0024002514
:100C9000401E7067706F002853D1F06C00283AD165
:100CA0004FE0F068C468216AE269A06A9160E16976
:100CB000226A5160416804F11802914204BF216A1E
:100CC0004160A5620168491E016000F0F3F904BFAC
:100CD000E168416065610168491E0160E76A706D05
:100CE000B84238BF776514204743DFF83C05011D43
:100CF000C959A1608B68E3608B685A608A60C1192A
:100D00006161C3595B1CC351E06AF16BCA6A9042CE
:100D100024BF0121316630680028C2D10CB100F037
:100D200068FAF46D44B100F022F808B10120306691
:100D3000641EF8D10020F065306E10B1012501F07D
:100D4000DFFF00F027BB38B50446934D286DE96EF0
:100D50002018884207D101F0DDFFE86D641E401CB9
:100D6000E86501F0E3FF286D24182C6531BDF8B566
:100D7000894E706F002500286DD1346D641C346578
:100D800008D1306C716C31647064706E401C706698
:100D900000F02FFAF06E844257D34FE0316CC868F0
:100DA000C1684868844254D3CA688B6848699A60AD
:100DB0008A68CB685A6042680B1D9A4204BFCA68B1
:100DC000426000234B610268521E0260886A88B14B
:100DD0000A6ACB699A60CA690B6A5A60426801F173
:100DE00018039A4204BF0A6A426000238B620268B9
:100DF000521E0260D1F82CC0706D604538BFC6F835
:100E000054C0142000FB0CFCDFF81C04021D52F837
:100E10000C200B1D8A609768CF6097687B60936099
:100E200000EB0C024A6150F80C707F1C40F80C700B
:100E3000F06BC26AC86A824238BF0125306C006814
:100E40000028ABD14FF0FF31F166306E30B1012593
:100E500004E0F066F9E7F06D401CF0652846F2BD4D
:100E600038B504000D4604BF4B48C46B01F052FF77
:100E7000656500F05CBB10B5040004BF4648C46B58
:100E800001F048FF646D6AE610B5434C606F10B125
:100E90000121216610BD2066E26B106B0168B1F183
:100EA000A53F04BF4168B1F1A53F07D18168B1F109
:100EB000A53F04BFC068B0F1A53F05D0E06B00F1CD
:100EC0003401E06B02F0FCF8616DDFF85C2300E0B8
:100ED000491E14234B43D0580028F9D0D01842683B
:100EE00000F10803526842609A4204BF52684260AF
:100EF0004068C268E263616510BD274A10B5D36BD4
:100F00000C4603F11801FFF73DF920460121BDE829
:100F1000104000F05DBA70B51F4BDC6B41F0004132
:100F2000A1614168DD6BE9618C68DD6B2C62DE6B71
:100F30008D6806F118046C60DC6B04F118058D6097
:100F4000D96B8862036801215B1C03601046BDE811
:100F5000704000F03DBAF8B50B4641680E4CE66BA8
:100F6000F1618D68E66B3562E76B8E6807F11805F5
:100F70007560E56B05F118068E60E16B88620468A8
:100F8000641C04600AB14FF0FF3311461846BDE8F7
:100F9000F44000F01DBA0000F809002070B5C068E8
:100FA000C568296AEA69A86A9160E9692A6A516094
:100FB000416805F11802914204BF296A416000228C
:100FC000AA6200F0F3F9606FD0B900F0F5F904BF40
:100FD000E968416000226A610168491E0160E96AAE
:100FE000606D884238BF616500F084F900F0D6F981
:100FF00042186A614658761C465000F0FAF80CE038
:10100000606805F11801E86182682A6282685160AF
:101010008160AC622068401C2060E06BC16AE86AB5
:10102000814203D201210120216670BD002070BDE4
:1010300070B541F00041016082684368C46801698D
:101040009A60426883685A604A68824204BF836833
:101050004B60002202610868401E086000F0C9F879
:1010600000F028F804BFE168416000226261016875
:10107000DFF85027491E0160E16A506D884238BF91
:101080005165142041436848031D5B58251DA3602A
:101090009E68E6609E6875609D604318636146586F
:1010A000761C4650D06BC16AE06A81423CBF012188
:1010B000116670BDE168A26860699160A168E2682C
:1010C00051604168221D91427047BDE8104001F017
:1010D0002DBEDFF8F0164A6E0260096D4160704760
:1010E000F8B500F055FBDFF8DC06016D62682E688C
:1010F0008B1A16F1010F12D0476ED4F800C0674565
:1011000005D0914203D30020012428600CE0B342B3
:1011100007D2F31A2B60416E2160006D60600024DD
:1011200002E000202860012401F000FE2046F2BD0C
:101130000120DFF8901608667047000038B5DFF828
:10114000844611E001F0E6FD206AC568281DFFF71E
:1011500032F8E06C401EE064A06C401EA06401F018
:10116000E5FD284600F037F8A06C0028EAD1FFF72B
:1011700071FD0228F8D3FFF767FDFFF76BFD02282A
:1011800024BFA06702F04FF8FFF77AFDECE7DFF825
:10119000342611680120002904BF116E002901D1F5
:1011A000D16D09B100207047916AD26C491C9142FF
:1011B00008BF0220704721B910B9DFF80806C06BDC
:1011C000826570470246002021B912B9DFF8F405A4
:1011D000C26B906D704710B5044694F8610018B961
:1011E000206B00F001FC01E0012801D100F076BB8A
:1011F00010BDDFF8D015086C006818B94FF0FF3249
:10120000CA667047086CC2681368CB667047DFF81F
:10121000B415886D08B901207047486F08B90220DD
:10122000704700207047000058300120F8B5044690
:101230000020002C34D0E16ADFF88855EA6BD36ACD
:10124000994227D2A069002804D4E86BC26AC2F18F
:101250000A02A261142779436269DFF8AC6631445F
:101260008A4213D100F04DF8E86BC06A696D814283
:1012700038BF68654743E062311DC859FFF733FC4A
:10128000F0196061F259521CF25108E0E86BC16A32
:10129000E16204E0E16CEA6BD36A994200D201207A
:1012A000F2BD38B5044600201CB3216DE26AE36C40
:1012B000491E21659A421CD0D9B900F022F8E16C90
:1012C000C1F10A00A061E162DFF8F804426D8A42D0
:1012D00038BF416500F00EF8231DA2609568E560F7
:1012E00095686B609360421862614458641C445076
:1012F000012032BD14204143DFF80C06021D525874
:101300007047201DFEF757BF70B504002CD0E06C6D
:10131000814238BF0146E06A884225D0226D012A09
:1013200022D1A269E162002A5CBFC1F10A01A16178
:10133000142670436169DFF8D0552A18914213D101
:10134000FFF7DFFFE06ADFF87C144A6D824238BFA6
:1013500048654643211D281D8059FFF7C5FBA81984
:101360006061AA59521CAA5170BDDFF85814C86BAD
:101370008069CA6BC96BCB6AC3F10A03936170477A
:10138000DFF84014C86B18B1C86B026D521C0265BF
:10139000C86B704701F0CAFC2846F2BD2B1DAA603D
:1013A0009668EE6096687360936070470168DFF836
:1013B0001444491E01607047E968AA686869916031
:1013C000A968EA68516041682A1D9142704700008F
:1013D000F8B5DFF8F0630C46376DF16B0546081D74
:1013E000FEF7E9FE15F1010F15D1A4B1F06AF26B19
:1013F00090608168F26BD160F36B8268191D516057
:10140000F16B0A1D8260F16B06F128004861B06A39
:10141000401CB062F1BDF06BED19BD424560F06B50
:1014200005D2011D706CBDE8F440FEF7ABBE011D96
:10143000306CFEF7A7FEF06E854238BFF566F1BD51
:101440003EB500F07BF9DFF8E055A868002488B1CC
:1014500005F5E67105F50C700522029101900092E8
:101460000023642204A10FF23110FFF73FFA00B10C
:101470000124E86020463EBD546D7220537663001F
:101480002DE9FC4105460E46174698462C2000F0F3
:1014900040FA04000BD0002084F828000899019439
:1014A000434600913A463146284600F002F800F0E3
:1014B0002DBA2DE9F8430546884614469946089EFC
:1014C000099F00F03BF93D60C7F81880C7F81C90F1
:1014D0003E62381D002101612CB197F8280040F0D0
:1014E000040087F82800BDE8F1837FB51E46DFF8C9
:1014F00038359C6805460020BCB1009101920295E8
:1015000006290CDAFFF783FE022807BF089A00239A
:101510000023002269462046FEF736FF05E000233F
:10152000324669462046FEF79FFF04B070BDBDE815
:10153000314001F0FBBB70B500F04AFD04E0A0694A
:10154000216A451920468847A1692B463246491928
:10155000204600F0D8F80028F1D170BDF8B5044657
:101560000D46DFF8C4040168CA68D668301DFEF76E
:1015700022FE06F12007387A410705D52A46214682
:101580003046FFF7D8FF02E000F0FE003872304628
:101590003968BDE8F4400847F0B585B0DFF88854F5
:1015A0002968086810B90124002602E0C8680024F0
:1015B0000668FFF749FB684600F088F80746009880
:1015C000C8B944B9B7420BD3FFF75AFB3946304686
:1015D000FFF7C4FF19E0686801684C1EA441E40FDE
:1015E000A8682246F11BFFF75EF9FFF749FB60B9D7
:1015F00001F086FB09E0FFF743FB06E094F82800C2
:10160000810738D4204600F0EFF9A868002201A92C
:10161000FEF78CFF0028C3D00198002803D5049959
:101620000398029A904701980028EED4039C6069C1
:1016300008B1FFF766FE684600F048F806460198D4
:10164000401E0828E1D8DFE800F01D1D1607061D22
:101650001D160700D9E7D1E794F828103346324623
:1016600041F0010184F828100298A06181192046F8
:1016700000F049F8C9E794F8280000F0FE0084F86B
:101680002800C2E794F82800324640F0010084F8B0
:1016900028000299A0690B464118204600F033F853
:1016A0000028B2D094F82800410707D50299A06914
:1016B000324641182046FFF73EFF03E000F0FE00EF
:1016C00084F82800216A204688479EE770B50446C2
:1016D0003C48056DDFF85063306985420AD300202D
:1016E00035612060284670BDD0684FF0FF3100683A
:1016F000FFF734FF326810680028F5D17068726017
:1017000030600120ECE738B5002441600061DFF86B
:1017100018538A4206D38169D21A8A4206D2011D21
:10172000686807E09A4203D2994201D3012403E09A
:10173000011D2868FEF726FD204632BD1CB501F0CC
:10174000E9FADFF8E442A068C0B904F11400FEF73A
:10175000FDFC04F12800FEF7F9FC04F1140004F18B
:101760002801002220606160009204F13C0304F132
:101770008C0210211420FEF770FDA060BDE813401C
:1017800001F0D4BA10B5FFF7EEF9E469FFF7E7B955
:1017900004460D4601F0BEBA38B584B000F00AF830
:1017A0006FF001050291009500236946FEF75CFE8B
:1017B00005B030BD039201901C462246DFF810436D
:1017C000A0687047F809002010B5202000F0A1F8AB
:1017D000040006D000202060201DFEF7B7FC00208A
:1017E0002077204610BD2DE9F84F0746884614465D
:1017F00099460A9DFFF728FA3E684A464146304618
:101800004FF0000B6FEA080A00F06DF830B10025C8
:10181000A4B138680AEA000038600FE075B10CB175
:101820004FF0807BB9F1000F18BF4BF0806B2A4658
:101830004BEA0801381DFFF76EFB0026FFF720FA80
:10184000DDB108B901F05CFAFFF78FFD0646B00183
:1018500011D401F05FFA3E684A464146304600F036
:1018600042F8002818BF002C03D038680AEA0000AC
:10187000386001F05BFA26F07F463046BDE8F28F13
:10188000F8B504460E46FFF7DFF921682269002506
:101890000E43266016E0984213D1F80148BF1D435D
:1018A00041F000711046FFF7C3FB0AE01768566865
:1018B00027F07F4301EA03005FEA471CEBD40028CE
:1018C000EBD1324604F10C0021688242EED121EACC
:1018D00005052560FFF7D4F92068F2BD2046BDE874
:1018E000104081E0CCE7034600200B400AB91BB151
:1018F00001E08B4200D10120704713460A460146A1
:10190000DFF8E00348E70000583001202046BDE83A
:10191000F681F8B500F068FFDFF804148868002548
:10192000F0B901F11C0201F11C064FF4803013469E
:1019300016F0070F05D0D31DDB08DB00C3F580369A
:101940009019C0180838C008C0000B604D6088604E
:1019500045600560C61A5E60186058680861C86016
:10196000002C3DD004F00700C0F110004FF0FF3212
:10197000121AA24234D3041932D431D0C868A0421A
:101980002ED30E6801E0314606467068A04202D2AE
:1019900030680028F7D1DFF88873B86886421FD016
:1019A00030680A680860706802F10805001B10289A
:1019B00005D9311D08517460301900F037F870688E
:1019C000F9683B69091A994298BF0B463B61F96077
:1019D00040F000407060002030607969491C7961F6
:1019E000FFF74EF92846F2BD002800D1704738B500
:1019F000A0F108046168002914D5206890B921F08D
:101A000000416160FFF720F9DFF81453E96860686E
:101A10004118E960204600F009F8A869401CA86157
:101A200000F06EBF31BD0000281D0120DFF8F0126C
:101A300030B50A4600E01A4613688342FBD3536868
:101A4000D418844203D14068C318536010464368D9
:101A50001468C518A54208D189688C4204D0616811
:101A6000CB184360246800E00C460460824218BF33
:101A7000106030BD2DE9F04100F0B6FEDFF8A07235
:101A80003868002500264FF0FF3860B108E0426852
:101A90006D1CB24228BF1646424598BF904600686A
:101AA000B9688842F3D1FFF7EBF86660C4F80880A4
:101AB000E56001F02FF9F868206079696161B86923
:101AC000A06139692161BDE8F04101F02FB9000042
:101AD000281D0120FFF778BE38B50C464FF47A7107
:101AE000B3FBF1F11546130018BF01230091012249
:101AF0002146FFF778FE204003D0A04202D0012DFE
:101B000000D1002032BD38B5044600200D460090BB
:101B100000F0C1FA28B16A4629462046FFF7EDFEDB
:101B200031BD29462046FFF7ABFE31BD0B460146CD
:101B300000221846FEF7A6BB70B500F019F813D0C6
:101B400000F0A9FA28B1002229462046FEF7ECFD54
:101B500006E000F02BF8024629462046FEF7E6FC98
:101B6000012801D1002070BDFFE74FF0FF3070BDAC
:101B700004000D461646704770B5FFF7F9FF10D008
:101B800000F089FA18B1002300F012F805E000F027
:101B90000DF80246002300F005F8012801D10020CD
:101BA00070BDE2E729462046FEF7EEBB304604E072
:101BB000002229462046FEF757BC10F1010F02D142
:101BC0004FF0FF3070474FF47A71B0FBF1F070477F
:101BD0000021016070473EB50C4622B9002101AAE0
:101BE0008DF804100291117839B9024621464FF65A
:101BF000FF70FEF7B4FB054609E0002508B100F0D0
:101C00001CF8002D18BF002C01D000F010F8284659
:101C10003EBD38B50C46002538B100F00EF8002D59
:101C200018BF002C01D000F002F8284632BD002376
:101C3000002200212846FEF7A7BB0546012085F8B3
:101C400046000095032300220021FEF73EBB38B575
:101C5000044600F008F8050018BF002C01D000F081
:101C60001CFE284632BD032200210120FEF70ABBDC
:101C7000002101704160704738B504460D4600F000
:101C80000AFA28B1002200212046FEF74DFD06E0A9
:101C90004FF47A70B5FBF0F12046FEF7B2FC012854
:101CA00001D1002032BD00F003BD1CB5044600F098
:101CB000F2F928B9002300220021FFF774FF13BDB9
:101CC00069462046FEF702FC13BD10B500F0BEF9D0
:101CD000DFF8D4138C6A00228A6200F0F2F9204601
:101CE00010BD0000E5180000044600F0AFB970B563
:101CF000064600F0ABF9DFF8B0530446AE62686AFE
:101D000048B1012E04BF2878002804D1286B00F0C8
:101D1000D6F9012028702046BDE8704000F0D1B906
:101D20001817002009A1142201F00AB9E0B5002219
:101D300002AB029201938A680092CA684B680968F4
:101D40009203120CFEF7FCFD02980EBD98DA020019
:101D50000000000001000000000200000000000080
:101D600000BFDFF81407C06B704710B5DFF8B81676
:101D700091E81C0080E81C0010BD70B5DFF8A84693
:101D8000207B60BBDFF8A4060568DFF8A4660121AC
:101D90003160002282600120F0600FF2B101DFF8B3
:101DA000940600F09AF92321DFF8D00601600122A1
:101DB000726004F1140001F09DFD0021E5616FF4F3
:101DC00080006173A173451901212562217300F020
:101DD0003DF90546206A00F003F828469CE770BDEF
:101DE00038B50446DFF898560121A962202000F09A
:101DF000F9F82C60DFF830160C6231BDF8B50546F5
:101E0000DFF824060E464FF0FF37446919E0207DC5
:101E1000012815D1012D04BFE168B14208D1206924
:101E200000281ABF4118E1602075E069A169884760
:101E3000207D012804D1E068801BB84298BF074686
:101E40002468002CE3D13846F2BD0000F8B501202B
:101E5000DFF8DC15086000F0F9F8DFF8D0351C6811
:101E6000DFF8C4150E6A012200234A738B73A41B8A
:101E700000F027F9002706E0BE1931460120E41BD7
:101E8000FFF7BCFF0746BC42F6D200F0DFF804467D
:101E9000DFF89455A87B012804D131460020FFF7D4
:101EA000ADFF07466FF48000874288BF0746B81928
:101EB000FFF796FF00206873EE61204654E070B58E
:101EC00004001D4618D0DFF8606505B9354668681E
:101ED000A260A1612061A8680021E0612175FFF77F
:101EE0004CFF214606F1140001F021FD287810B1C5
:101EF000204600F00EF8204670BD70B500F068F87E
:101F0000202000F099FA33462A462146BDE8704069
:101F1000D5E7F8B5FFF7E8FE0546DFF80C25507B5E
:101F2000DFF80815B0B90B68D769166AD2F81CC07B
:101F3000DF1BA6EB0C0CBC450CD3A0680121C0181C
:101F4000E0602175A068F31A98420CD2E068FFF7B0
:101F500047FF08E00B68A168CB18E36001232375F5
:101F6000012808BF90732846BDE8F240A9E070B58B
:101F7000064600F06BF8044600203075DFF8A854E0
:101F8000687B10B10121A97319E0296AF0688842C1
:101F900015D1DFF898241668EA69E869B21A091AB7
:101FA0008A420CD231460020FFF728FF6FF48001EF
:101FB000884288BF08468019FFF712FFEE61AAE643
:101FC00070B500F005F800F041F8A561E661A3E600
:101FD00004460D461646704701207047DFF84C0452
:101FE0000068704701F049BDFEB504000E46174673
:101FF0001D4622D01DB968466D4600F057F8686846
:10200000294900F0FF02FF2A19D16020686001EB26
:1020100086014C63676028680FF25101A06026605A
:10202000304601F0ABFC69683046C9B201F0CAFC29
:10203000287A10B1304601F0D3FC2046FEBD0A6B71
:102040009642E4D07028E2D10024F6E780B500F093
:1020500022F818B900F05EFE002002BDBDE8014084
:1020600000F012BF01F0D0BC000000008E480068F4
:102070008C4900F0FF0001EB8000416B002900D18A
:10208000704780B5886849688847BDE8014000F01E
:1020900037BE01F0A5BC84480168C1F308000028E0
:1020A00018BF0120C0B27047440C002030B100219D
:1020B00001604FF0FF32012342600372704701F06C
:1020C000B7BC10B50446FFF7E6FF08B9FEF7FDBF41
:1020D0002046BDE8104000F0E2BE70B5FFF778FF83
:1020E000FFF7B4FF6560A660BDE87040E9E7C9B2DC
:1020F00001F068BC2DE9F84FEFF3108B012080F35D
:102100001088FFF744F8002817D001F068F8DFF8CE
:10211000CC25936F4108800801F0010100F0010017
:1021200003F0030381F0010180F00100012B05D1D0
:10213000002904D01168890303D499E0002900F034
:102140009180DFF8B0150C68DFF8E072396CDFF8C9
:1021500028830091D7F800A06FF480010CB34FF0F2
:10216000FF3900220FF2101324FA02F5ED0714D5FF
:10217000DFF8845505EB820CDCF8005008EB820692
:10218000F5679E5C0AFA06FEA5EB0E058D4288BF38
:102190000025F540A94588BFA946521C052AE3D36E
:1021A00000E08946D8F878204FF47A715143894588
:1021B00088BF894640F2F511894553D3FEF744FDA7
:1021C000DFF838050168DFF8B452D1444908490006
:1021D00001608168DFF82865A9F196094160042053
:1021E00028602020FFF7FEFEC6F82490AFF30080A1
:1021F000012001F0BEF8AFF300800120F060012162
:10220000716530682020FFF7EDFE23202860F96B10
:102210000129FCD1142208F17C01DFF8DC0400F074
:102220008FFE0098DFF8CC1438640C6001F068FC75
:10223000042001F0A2F93868A0EB0A014FF47A708B
:10224000B1FBF0F0FEF77FFDDFF8B0040021816004
:102250000268DFF8881542F0050202604160FEF76F
:102260000FFD05E020B1AFF3008030BFAFF3008079
:102270008BF31088BDE8F18F00000202020000001D
:1022800080B5C046C046102282F31188BFF34F8F3D
:10229000BFF36F8FDFF84805DFF8481508600120AD
:1022A00002BD0000440C002004ED00E040F280007C
:1022B000C0F2000000688546E2E70120704772B670
:1022C000FEE700002DE9704305460C46204600F06D
:1022D00078F8022D36D0012D06D001F033FC1621FE
:1022E00001604FF0FF302EE0DFF85065A068B16963
:1022F000DFF84C55884208DA2818A060D4E900239A
:10230000501E63F10009C4E90009D4E90001D6E9CF
:102310000423D6E90089821A61EB0303A168B0693E
:1023200012EB0802B66843EB0903091A7618AE42AD
:1023300005DB521C63F1FF33DFF814058619C4E98D
:102340000023A6600020BDE870832DE97F430D4681
:10235000A968DFF8EC641446B14228BF4FF0FF30A3
:102360002CD26946FFF7AEFFD5E90023DDE9000175
:10237000DDE90089101A63EB01014B450ADB01DC42
:10238000424507D3AA68029B002908BF002803D151
:10239000934201DB00210FE0D21A44BFB218401E65
:1023A000DFF8B4148A18DFF84852B2FBF5F14FF4A5
:1023B0007A7303FB0011491C2160002004B0BDE8C2
:1023C00070832DE9FC418046FFF740FE05466846D4
:1023D000FEF77FFE2846FFF774FE019D4FF47A76E4
:1023E000DFF8ACC4B5FBF6F4009FDFF8A8040CFBE3
:1023F00004553246002300FB0755DFF85864B5FB4F
:10240000F2F2A01843EB03017E430CFB025C0027B1
:10241000DFF8DC51861905FB0CF04F41C8E9006775
:10242000C8F80800BDE8F3818C3501200421024082
:10243000542002404C11002010B500F1080408B1EE
:10244000844203D201F07EFB162106E02046FFF70E
:1024500060FA28B901F076FB0C210160002010BD64
:1024600000604460083010BD00281CBF50F8080C04
:10247000FFF7BABA70470000F80900204454024040
:1024800020210240102200F05BBD0CB42DE9F8437E
:102490008146DFF8D46470680F4600250024D8B95F
:1024A000FEF7B5FE022818BFA04605D1FEF7CCFB0B
:1024B00070684FF0010840B90120FDF71FFF706000
:1024C00000B90124B8F1000F01D0FEF7D9FB1CB10F
:1024D00001F038FB0C2114E008A8B90503D54568C4
:1024E0000DB906F10805B9F1000F07D0B8050AD5F6
:1024F00069680129A4BFA868012804DA01F022FB59
:10250000162101606EE0FEF782FE022802D170689B
:1025100000F0E5FB484600F0CEF8040008D007F4D0
:102520002060B0F5206F09D101F00CFB112151E0C2
:10253000B80503D401F006FB02214BE00820FFF7A9
:10254000E8F95FEA000842D024BB2420FFF7E1F954
:10255000040039D00120E061A968616168682061E8
:10256000484601F0F9FA401CFFF7D3F9206248B35E
:10257000494601F00DFBA96868680022FDF782FE5C
:10258000A060D8B100216160306800B14460206073
:10259000346002E0E069401CE061FEF738FE02288A
:1025A00002D1706800F079F9BF1307F00107C8F88D
:1025B0000040BF03C8F80470404615E0206A08B127
:1025C000FFF712FA00F034F94046FFF70DFA01F078
:1025D000B9FA0C210160FEF71AFE022802D17068D8
:1025E00000F05BF94FF0FF30BDE8F2035DF80CFB43
:1025F00040420F00F8B506680D467469A24203D246
:1026000001F0A0FA7A2118E0406841044CBF00278D
:102610004FF0FF37FFF73FFD28B1B0680022294691
:10262000FEF782F804E0B0683A462946FDF77EFFDF
:10263000012804D001F086FA0B2100F0D6B920461B
:10264000F2BD70B500F025F806D2FFF724FDE0B921
:1026500001F078FA7A2117E0406841044CBF002667
:102660004FF0FF36FFF717FD10B100F01BF803E045
:10267000A868002300F012F8012808D0FFF70BFD2E
:1026800018B901F05FFA0B210160FFF76EBA002064
:1026900070BD05680C466969914270473246214613
:1026A000FDF772BEA868002300222146FDF7DCBEBC
:1026B0004FF0FF3032BD38B50546DFF8AC02046894
:1026C00000E024683CB1206A294601F06DFA002838
:1026D000F7D1204632BD002032BD00004810004036
:1026E00080B5DFF8C813142200F02AFC002002BDD8
:1026F00000000000442002404C21024010E000E0B5
:1027000000200040002918BF012901D01620704781
:1027100001610020704709680A2900D209B9162012
:102720007047F1E0416082600020704700002DE9B1
:10273000FE4380460D461646994600270DB9DFF840
:102740006C533420FFF7E5F804001AD0286900B173
:102750000120207466610021C4F81890E760A16030
:10276000E76121622868A16221636060E1622869F3
:1027700048B903220120FDF785FDA06018B900F0DB
:1027800057F80C2028E0FEF742FD012803D001266F
:10279000FEF75AFA00E000260194286823463BA180
:1027A00000902A890FF211109208FEF7C9F801284B
:1027B00004D120682146FEF753FB07E0A06808B16A
:1027C000FDF7E3FF00F034F800240C27C8F80040C0
:1027D0000EB1FEF755FA3846BDE8FE83FF760100DC
:1027E0008000000008ED00E00446FEF72DBA38B581
:1027F000054600F027F80446656200F01CF802E088
:10280000012100F04FF8A06A0028F9D1204600F01D
:102810005BF8207C30B9A06800F03FF80020FEF79C
:10282000A5F931BD00F004F80020FEF764F931BDD0
:102830002046FFF7D9B8694601200FE0303A012061
:1028400000CA9A3BDFF87C14C86BFEF714BB00008B
:10285000003665C4378941003F420F0038B5044651
:102860000D46FFF7EFFF002C18BF012C01D01620FA
:1028700032BDC1692960C4612CB9006A18B14FF03A
:10288000FF30FFF7B4FF002032BD000078000000E9
:1028900018FCFFFFC976BEFF6868002300220021F4
:1028A000FDF772BD024610691368986211B1906815
:1028B000516808477047000080B50146886949693A
:1028C0008847BDE8024092E738B5FFF78DFF14E076
:1028D0000168E1620569696809B12A680A602968C6
:1028E00009B16A684A608168096800291EBFC0682A
:1028F000002888472846FFF777F8E06A0028E7D1E4
:10290000BDE83140FEF7BCB901600020704710B54A
:10291000DFF8B41391E81C0080E81C00002010BD13
:1029200080B5C06808B1FDF730FF002002BD10B5CA
:10293000044609B9DFF8901308680022E260A0603D
:10294000626049682160A068002816BF0228012043
:102950000420FDF7D3FC20B92046FFF7E1FF0C204F
:1029600010BDE060002010BD600D00204FF0FF3171
:102970001DE070B50446A0680025012808D1E06874
:10298000FDF7C5FC012801D1002070BD012070BDFC
:10299000FEF75AF9E068FFF780FF06466560FEF72C
:1029A0006FF9012E18BF40F2D175284670BDF8B5F9
:1029B00004460F46FFF746FF064660680025A168FB
:1029C000B04208BF022901D12D20F2BD0129E068E3
:1029D000394602D1FDF7AEFC01E0FDF712FE0128F9
:1029E00014BF912566602846F2BD01604FF0FF30AC
:1029F000F2BDF8B506460F461546022E18BF012E49
:102A000003D001F09FF8162125E000202860302037
:102A1000FEF77FFF04001BD0F868002223462060E9
:102A2000B968226104F124006160C4E90222E26114
:102A3000A261027046600FF29510009001224FF0E3
:102A4000FF310020FEF71CFD206228B9FFF7F0FEE1
:102A500001F078F80C21C8E72C600020F2BD2DE9C8
:102A6000F04D064606F12002107988B11268954BA8
:102A70004FF47A775268186DDFF858820025121AE1
:102A8000B2FBF7F49248A8FB04AB5244504301E078
:102A9000002400258861C1E90445084606F10801C3
:102AA000FFF7F0FC0020BDE8F08D0000780D00205D
:102AB000FEB51646B2680F46844904468A4259D28A
:102AC000B2698A4256D213B11946FFF7C8FFD6E958
:102AD000040104F12405002908BF00281ED1B069B3
:102AE000E0B9FFF7D8FA40B100200090206A02ABAD
:102AF00000220821FEF7F9FC04E04FF0FF300090BF
:102B000000F077F8012802D100202870FEBD0028CF
:102B100050D001F017F80C22026053E0D6E9000112
:102B2000002908BF002801D1B06870B1304600F01C
:102B300066F8012399421DD20190E061D6E90001B7
:102B4000C4E90201B268226119E078070BD5686810
:102B500001AA06F11001FFF7F8FB019878B9606847
:102B60002168884723E006F1100000F048F80123AF
:102B7000994203D300F0E6FF162122E00190FFF70F
:102B80008AFA40B100200090019A206A02AB092124
:102B9000FEF7ABFC08E04FF0FF300090019A206A8E
:102BA00000230421FEF7A1FC012802D12870002097
:102BB000FEBD18B900F0C6FF0B2102E000F0C2FF15
:102BC0000C2101604FF0FF30FEBD00001CB5FEF788
:102BD000D9FD0446E06938B94FF0FF31009100F0AB
:102BE00008F8002084F8240060682168BDE81C40D3
:102BF0000847206A002300220321FEF776BCF0B5C7
:102C0000D0E900234FF47A768768A6FB0245304668
:102C100080FB070106FB03552C4A002300F0F0FF60
:102C200020186941F0BD70B5FEF7F1FA2A4D012870
:102C300001D1284670BD2348C66B00213046FEF7FF
:102C4000C1FA040011D12A4600213046FEF7B3FA3A
:102C500001F009F9FEF75DFE040008D001F0F6F876
:102C6000224600213046FEF7A6FA204670BDFEE758
:102C700010B50021FEF7A6FA0446AFF3008004B1B8
:102C80001AE010BD38B505460C20FEF742FE0400E0
:102C900000D1FEE70120FDF731FBA06010B9FFF77E
:102CA000C7FDFEE70020206060602C6031BD10B5DC
:102CB0000468A068FDF769FD2046BDE81040FEF7F6
:102CC00093BE0000F80900206C3C012000CA9A3B2A
:102CD00040420F0018FCFFFFCC3E012068684FF017
:102CE000FF31FDF78EBCCDE7E1E79CE780B5002022
:102CF000009000F0C9F800980028FCD001BD000049
:102D00004FF0805047490860BFF34F8FBFF36F8F7C
:102D10007047000080B500F0B7F843480168491CCF
:102D20000160BFF34F8FBFF36F8F01BD3E48016855
:102D3000491E01600068002808BF00F0B0B8704765
:102D400010B500F0A1F80446FEF711F818B14FF0E5
:102D50008050344908602046BDE8104000F09FB81C
:102D6000806910F8021C02290BD13048016841F437
:102D7000700101602E48026842F04042026000F09B
:102D80005DB8704730B5A0F14404E263294AA263FC
:102D90004FF00332226363624FF001324FF0113380
:102DA000A26223624FF010324FF00933E261A36157
:102DB0004FF080754FF008324FF0073325646261A1
:102DC00023614FF012354FF006324FF00533656343
:102DD000E260A3604FF002354FF004326FF002035F
:102DE000E5626260236040F8481D30BD80B512483E
:102DF000016841F47F010160026842F07F42026095
:102E000001F03CF800200849086000F031F8FEF7B6
:102E10003BF80020009000F037F800980028FCD024
:102E2000002002BD04ED00E08C0D002088ED00E0E4
:102E300034EF00E0ED2C000020ED00E0364A116890
:102E4000086806C881F30B88022181F314882030BA
:102E500080F30988BFF36F8F4FF0000080F3118873
:102E60001047EFF3148020F0010080F314887047BE
:102E70002A480068006880F3088862B661B6BFF32C
:102E80004F8FBFF36F8F02DFEFF311804FF0100110
:102E900081F31188BFF34F8FBFF36F8F704780F3BB
:102EA0001188BFF34F8FBFF36F8F7047EFF3098027
:102EB0001EF0100F08BF20ED108AEFF30B8273464F
:102EC00020E9FC0F144A116808604FF0100080F3ED
:102ED0001188BFF34F8FBFF36F8FFDF7D5FF4FF012
:102EE000000080F311880C4A11680868B0E8FC0FF4
:102EF00013F0100F08BFB0EC108A82F30B8880F338
:102F0000098818471EF0040F0CBFEFF30880EFF399
:102F10000980FFF725BF0000340A002008ED00E01B
:102F200062B38B0708D0521E11F8013B00F8013B39
:102F300000F024808B07F6D1830740F0208000BF8B
:102F4000103A07D330B4B1E83810103AA0E838107E
:102F5000F9D230BC530724BFB1E80810A0E808102C
:102F600044BF51F8043B40F8043BD20724BF31F87A
:102F7000022B20F8022B44BF0B7803707047121FFE
:102F800017D35B0009D151F8043B20F8023B1B0C1E
:102F9000121F20F8023BF6D20BE051F8043B00F878
:102FA000013B1B0A20F8023B1B0C121F00F8013BDF
:102FB000F3D238BF121D521E24BF11F8013B00F896
:102FC000013BF8D87047F0B40246106895681318B2
:102FD000506803EB5004C00748BF4D44A3422DD0B6
:102FE00013F8016B16F0030004BF13F8010BC01CAB
:102FF00031090F2907D113F8011B0F3103E013F832
:10300000017B05F8017B401EF9D10029E6D013F8B9
:10301000010BC6F38106032E08BF13F8016B00EB0A
:103020000620404228440026B71E8F421EBF10F8DB
:10303000017B05F8017B761CF6D1CFE7F0BC02F1ED
:103040000C007047002200F033BF280062F30F220B
:1030500062F31F4200B500BF130096469446103934
:1030600028BFA0E80C50FAD85FEA417C28BF0CC00A
:1030700048BF40F8042BC90728BF20F8022B48BFDF
:1030800000F8012B00BD280010B50FF249000A49D5
:10309000086000F017FF00F082FF01F0ADFA074C66
:1030A000A168086001F0AAFAA168486001F085FCF7
:1030B000FDF7A0FD002010BD78100020E8050020DD
:1030C00081B001208DF800009DF800000028FBD1A0
:1030D00001B0704781B00B2806D101208DF80000A7
:1030E0009DF800000028FBD101B0704738B5DFF82B
:1030F0009047607A002870D101206072DFF8841751
:103100004868002814BF012200222272606188688A
:1031100000230FF24D32A061DFF86C070168DFF881
:103120006C5741F480110160132104F11C00FEF77B
:103130005BFF0320DFF85817086048F20A026A6054
:103140001320FEF7A6FF00230FF22542202104F1F1
:103150007C00FEF749FFDFF83C07012101600122F6
:1031600082600120DFF830170860DFF83007C2689E
:10317000120B1203C260016821F4704141F4004156
:1031800001600120C0464FF4FA71B1FBF0F2002358
:103190000FF2B16104F13800FEF791FE286B40F0A8
:1031A00005002863FEF752FF216941F00201216109
:1031B0006178491C6170FEF784FF4FF4004028607D
:1031C000686004F13800FEF7A4FE286D102140F07D
:1031D00000402865DFF8C8060160002032BDDFF836
:1031E000A00600697047C1B210F47F4008BFDFF845
:1031F000B40604D0B0F5807F03D1DFF8AC06405CA4
:103200007047B0F5007F04D1DFF89C060844007ACF
:10321000704705E0052803D2DFF86416085C7047A4
:103220006FF001007047DFF85816486918B1097A45
:10323000012908BF0047704738B5002408B11500C0
:1032400002D16FF0020407E08160C26003610146B1
:10325000DFF8580600F06BFB204632BD38B5044657
:10326000FEF7F4FEDFF818160A690123A3401A439B
:103270000A610D5D6D1C0D55FEF723FF002032BD68
:1032800010B50446FEF7E2FEDFF8F4150A5D521EA3
:103290000A55D2B232B90A69012303FA04F422EAC8
:1032A00004040C61FEF70DFF002010BD70B504464C
:1032B000FEF7CCFE05462046FFF795FF0646711C3B
:1032C000C9B2204600F072F9F6B2F6B914F47F40A4
:1032D00006D0B0F5807F0AD0B0F5007F0ED014E0A4
:1032E000012101FA04F4DFF8C82514600DE0012083
:1032F00000FA04F4DFF8B8154C6006E0012000FA8B
:1033000004F40021A0B200F0E9FB2DE070B5044602
:10331000FEF79CFE05462046FFF765FF461EF1B20C
:10332000204600F043F9F6B2F6B914F47F4006D017
:10333000B0F5807F0AD0B0F5007F0ED014E00121F7
:1033400001FA04F4DFF86C2514600DE0012000FAA6
:1033500004F4DFF860154C6006E0012000FA04F484
:103360000021A0B200F0C3FB2846FEF7AAFE002011
:1033700070BD38B5012000F000F920B10121DFF85F
:103380000025917232BD00F040FADFF8004560B1CF
:10339000DFF808150A680B6800EB123060F30F3392
:1033A0000B60206B400840002063E06C20F0004080
:1033B000E064EFF31485DFF80015A8070BD50022B1
:1033C00082F31488096800208847022080F314885B
:1033D00085F3148802E0096800208847206BDFF835
:1033E000A05440F005002063FEF730FE296941F04B
:1033F000020129616978491C6970FEF762FE4FF489
:103400000040206060600120A872002032BD72B6CA
:10341000DFF8A804016841F001010160FEE780B512
:10342000DFF89C04DFF89C144164022282660121CB
:1034300081634FF480620260FEF708FEDFF84014FB
:103440000A6942F002020A614A78521C4A70BDE8D9
:103450000240FEF736BEBDE81040FEF732BE000067
:1034600070B5DFF864643468DFF81454B460346114
:10347000200425D54FF40031B16005F13800FEF786
:1034800076FD0022002105F13800FEF799FDDFF8F6
:103490003C047065A86918B180470020A8610FE05E
:1034A000082000F06AF8FEF7D1FD6978491E6970BE
:1034B000C9B219B9296921F002012961FEF701FE9B
:1034C00014F00A0F25D0B06B40084000B063706D57
:1034D00020F000407065DFF8C403016821F47041FA
:1034E00041F400410160B06B40F00500B063FEF7AD
:1034F000ADFD296941F0020129616978491C6970B3
:10350000FEF7DFFD4FF40040B060F06004F00A0009
:10351000F06020070DD5FEF799FDB16D21F0004157
:10352000B165B16D41F00041B165FEF7CAFD0820FB
:10353000F060600517D501217166DFF8800302682D
:1035400042F004020260102000F017F8FEF77EFD42
:103550006978491E6970C9B219B9296921F0020157
:103560002961FEF7AEFDE00600D5FEE770BD000064
:10357000DFF85C0301688160704738B50546DFF805
:103580002C03046884B1A068284203D12468002C6D
:10359000F9D109E02269E36800212846984700280C
:1035A000F4D04FF0FF3032BD002032BDC2B210F473
:1035B0007F4008BFDFF8EC0204D0B0F5807F03D174
:1035C000DFF8E40281547047B0F5007F03D1DFF8E3
:1035D000D80210440172704710B50446DFF8A0020B
:1035E000C460007CC10609D4FEF730FDDFF8E412A8
:1035F0000A68920E62F39F640C602CE710BD2DE9FF
:10360000FC4B14460746984601947E28A8BF7D27A8
:1036100004DA10F1280FB8BF6FF02707FEF716FD88
:103620008146DFF8B422107D002850D0BDF9066035
:10363000BE4237DAD2F80CC090685168136807FBB5
:103640000C0C4FF0300E92F910200CFB071CA7F168
:1036500019054BF21B7B0CFB073C8EFB0C0101F0A8
:10366000B9F9DFF878124D43DFF87422594600EBC0
:10367000255010180246C317002000F09FFAFFF7EC
:10368000ABFFBDF80420BDF804000094BA1AC719B6
:10369000521C791EDFF84C3212B209B2404601F0DA
:1036A000A3FA14E04FF48000FFF796FFBDF9040081
:1036B0003818401EB04203DBBDF80400C7197E1E57
:1036C0002346DFF8202231B2404601F069FA48462D
:1036D000BDE8F64BFEF7F5BC30B4029C7E4D286089
:1036E0006960AA60EB602C7430BC70472DE9F04330
:1036F0000546794C207D83B00E46002840F07F803F
:103700000121217501F020FA01F036FA2946ADF8C1
:103710000650ADF80460814268DA064601987E2EB4
:103720000290A8BF7D2604DA16F1280FB8BF6FF00B
:103730002706FEF78BFC0546207D002850D0BDF9FA
:103740000A70B74237DAE368A0686168226806FB4E
:1037500003034FF0300CA6F1190803FB06134BF2DC
:103760001B7903FB062394F910208CFB030101F065
:1037700031F9DFF868C10CFB08F8594900EB285013
:1037800008180246C3170020494600F017FAFFF751
:1037900023FF0198BDF80820524B0090BDF80800A7
:1037A000B21A521C8619711E12B209B204F1180025
:1037B00001F01AFA14E04FF48000FFF70DFFBDF995
:1037C00008003018401EB84203DBBDF80800861917
:1037D000771E019B434A39B204F1180001F0E0F969
:1037E000284603B0BDE8F043FEF76BBC019B04F133
:1037F000180003B03B4ABDE8F04301F0D1B903B073
:10380000BDE8F0831E49C868E6E637480268C2F39F
:10381000064102F07F0249008A4234BF891A002122
:10382000406B0A29C0F3033003D2082808D20120D4
:103830007047112928BF042802D34FF0FF3070478A
:103840000020704780B5FEF701FC28490A6D02F0A0
:10385000F052B2F1206F11D1CA6F22F4704242F4DB
:103860000042CA67224A0A600B6D03F0F053B3F1BD
:10387000206FF9D00A6822F000420A60E7E50000F4
:10388000D010002034DA0200440000405410004000
:103890001054024058200040602002401C1100409B
:1038A00000580040703A0120843B0120E83C012090
:1038B00014000240200002404C00000F2C00004089
:1038C0005810004080841E804C100040110003807E
:1038D0004C200040A4100040F43801208FC2350075
:1038E000E06DDC02FF350000E8100040A010004051
:1038F0001200018010B50446FEF7A8FB00216160AC
:103900002160BDE81040FEF7DCBB38B50546FEF788
:103910009DFB2C683CB121682960216800291ABFF1
:1039200000224A606960FEF7CCFB204632BD38B504
:1039300004460D46FEF78AFB0021296062686A6032
:103940006168002914BF0D6025606560FFE7BDE870
:103950003240FEF7B6BB38B504460D46FEF776FB9F
:1039600029686A6800290CBF62604A6069682A6831
:1039700000290CBF22600A60E9E7A62A02462DE969
:10398000F0434C4D28684C4B1C46A04216D02E6884
:103990001F461120D6F800C006F1040E06F10809F2
:1039A00047F804CBDEF800800C36401E47F8048B45
:1039B000D9F800C047F804CBECD12C6043F82210B2
:1039C000BDE8F08301F0F001102804D23B4A104416
:1039D00000F8041C70473A4B034403F8101C70476E
:1039E0000F2805D13748016841F002010160704796
:1039F0001038232807D2012200F01F018A40324BE1
:103A0000400943F8202070470F2805D12D48016850
:103A100021F00201016070471038232807D20122EB
:103A200000F01F018A40294B400943F820207047CD
:103A3000A0F11001232908D2012201F01F008240C9
:103A4000234B490943F8212014E0022804D12148DE
:103A5000016841F000410CE00E2804D11D480168C6
:103A600041F0805105E00F2804D11A48016841F067
:103A700080610160BFF36F8F70470E2804D1154835
:103A8000016841F0006105E00F2805D11148016887
:103A900041F00071016070471038232807D20122DD
:103AA00000F01F018A400C4B400943F8202070476A
:103AB0000000000008ED00E0003E012018ED00E0ED
:103AC00000E400E010E000E000E100E080E100E060
:103AD00000E200E004ED00E080E200E0022905DA07
:103AE000154A32F81130184322F8110008E0022973
:103AF00006DA114A32F8113023EA000022F81100E8
:103B00000E4802680C490B8849881943920707D56B
:103B10004A0852000A4B1A6069B902214161704794
:103B20000A0008D00222826003689A07FCD549087F
:103B300049000348016070475C3D01200C000240D1
:103B40000400084080B5FFF7D0F80249084402BDE0
:103B5000000000000000000000F10103810704D014
:103B600010F8011B820781B1FAD10268A2F101317C
:103B7000914311F0803104BF50F8042FF6E709BAE1
:103B8000B1FA81F100EBD100401CC01A7047C92A7C
:103B90005FEA000C11F8012B00F8012B12B111F8AB
:103BA000012BF9E76046704710F8012B11F8013B33
:103BB0000AB19A42F8D0D01A7047000A13F0004CAC
:103BC00003D55B42524263F100039CEA210C00F0F2
:103BD000178010B5644603D34942404261F10001A9
:103BE00000F00EF8640004D34942404261F1000144
:103BF000244203D55B42524263F1000310BD000032
:103C0000BBBBE1B1B2F5803F80F07E80022A1ED9B5
:103C10008C46B1FBF2F102FB11C31B0443EA1043D3
:103C2000B3FBF2FC02FB1C3380B240EA0343B3FB5C
:103C3000F2F002FB103240EA0C4000237047022AE7
:103C400005D98446B0FBF2F002FB10C270474AB1BE
:103C500005D100F0010249085FEA300070470022F8
:103C60000023704701F002B80B0002000021002081
:103C70007047904271EB030CF6D3B3F5803F2FD21F
:103C8000F0B5B3FA83F7B1FA81F4A7F10F0E3D1B3B
:103C90005340CEF1200602FA0EF2F3415340B5F143
:103CA0000F0746D80F3C2C444140C4F12006A040E9
:103CB000F1414140B1FBF3F603FB1611A2FB0645AF
:103CC000001BA94102D2761E8018594180EA0102E8
:103CD00021FA0EF362FA0EF200215A403046F0BD8E
:103CE00030B4B1FBF3FC03FB1C11A2FB0C45001B21
:103CF000A94103D2ACF1010C8018594130BC0246F5
:103D00000B46604600217047B2F1807F65D3F0B565
:103D1000B2FA82F7B1FA81F4C7F10F063D1B22FA1D
:103D200006F307F1110EF24120355A40B5F10F07A5
:103D3000B8D94140C4F12006A040F1414140B1FB57
:103D4000F3FC03FB1C11A2FB0C45001BA94103D291
:103D5000BCF1010C801859410F2F12D30F3FC9033A
:103D600041EA5041B1FBF3F603FB1611A2FB0645F5
:103D7000D4EBC030A94102D2761E8018594146EAE0
:103D8000CC3C07B34140C7F12006B840F141414067
:103D9000B1FBF3F603FB1611A2FB0645001BA9417C
:103DA00002D2761E8018594180EA010221FA0EF3F0
:103DB000C7F1200462FA0EF20CFA07F05A402CFA0E
:103DC00004F13043F0BD80EA010221FA0EF3002134
:103DD00062FA0EF260465A40F0BD8C46B1FBF2F139
:103DE00002FB11C31B0243EA1063B3FBF2FC02FBAC
:103DF0001C331B024CEA002043EA1063B3FBF2FCC5
:103E000002FB1C331B024CEA002043EA1063B3FBA5
:103E1000F2FC02FB1C331B024CEA002043EA106355
:103E2000B3FBF2FC02FB1C324CEA0020002370477B
:103E300038B50E4D0E4904462A46FFF771F80D4974
:103E4000491B6019BDE83440FFF7FCB880B5FFF7A7
:103E5000EFFFAFF3008001BD10B504460648FFF741
:103E6000E7FF204610BD0348704700000000000037
:103E70000000000004000000CC3E01200848094971
:103E8000AE225E230160426083600748002101602A
:103E900000228260054B436007210160704700BF2C
:103EA000783C01200077010010E000E0FF7601007F
:103EB0004018491C1CBFB1F1010100F8012DF9D1D6
:103EC0007047FFFF01490860704700007C05002033
:103ED0007047000038B5044600F036F8002500F0C1
:103EE0001EF8C5F1070024FA00F101F001010520D8
:103EF00000F042FF012100F013F8102000F08EFFC7
:103F00006D1CE8B20828EADB00F009F8012100F096
:103F10001CF83C4A11682820BDE8344008470021BD
:103F2000032000F029BF80B500F035F800F00CF850
:103F3000022000F073FF012100F007F8314A1168F8
:103F40002320BDE8044008470021132000F014BFDF
:103F500010B5FFF7E8FF00F01EF82B4C21460320B8
:103F600000F008FF2146052000F004FF2749042047
:103F700000F000FFB920FFF7ADFF132000F05DFF58
:103F8000032000F05AFF052000F057FF0420BDE891
:103F9000104000F052BF1E49132000F0EBBEE0B508
:103FA0001C48016840F66102090B42EA01310160D8
:103FB0004168090B42EA01324260FFF797F8FFF7C8
:103FC0002EFA1548016840F2A313144A41F001018A
:103FD0000160002016210190009111491148FFF75E
:103FE0007BFB02216FF03100FFF780FB00F05FFEEA
:103FF00000F03EFF00F081FFFFF7AAFFBDE8074099
:1040000001F078B89400000F000400200220046042
:104010000104002018110040140000403F74FFFF0D
:10402000F60BE4FF41F1A30380B5FEF70FF8ADF8FE
:104030000200FDF74AFEADF80000009802BDFDF752
:104040008FBE01B5BDF80000FDF751FEBDF80200BE
:10405000BDE80240FEF735B870B500F026FA002240
:10406000DFF8E8580C265643A95949B18C4203D0D1
:10407000521C032AF6D303E0FFF7E3FFA81970BD33
:1040800020E070B50646FFF7CFFF044600210C2262
:104090004A43DFF8B8088518286828B186420BD053
:1040A000491C0329F3D30CE02E60A860FDF712FD34
:1040B000686008B901F01FF82046FFF7C2FF2846E4
:1040C00070BD2046FFF7BDFF002070BD38B500F081
:1040D000ECF90025DFF878282901515A39B18C42D2
:1040E00003D06D1C062DF7D301E000F083BB00F078
:1040F00085BB10B504462088FFF7E8FFFF2802D1F2
:104100004FF0FF3010BDDFF8481801EB0010816858
:1041100011B96FF0010010BD2046BDE810400847FE
:1041200070B504684568FFF77FFF0646FFF787FF15
:10413000FFF7A7FF08B900F0DEFF3046FFF781FF69
:1041400029460FF65000A04770BD10B50020DFF8DB
:10415000FC17002300240C2242438B500A44401CCD
:1041600094600328F7D30020DFF8E417002203014E
:10417000401CCA520628FAD310BD1CB508210820DD
:10418000DFF8D047FDF7D2FCA06120B913BD884706
:10419000019800F0A1F9A0694FF0FF326946FDF7E0
:1041A000CBFC0028F7D1019800990028EFD188476F
:1041B000F1E710B5DFF89C47201DFDF7B3FD0221A4
:1041C000E1604FF480600FF2B07120616160211DE9
:1041D000DFF88407FDF7AAFD206008B900F0FFF9B9
:1041E000002010BD7CB50D46002116464FF0FF346F
:1041F000009001914DB1300007D000F03DF90190E1
:1042000088B132462946FEF78BFEDFF84807806901
:1042100028B100226946FDF7AFFC040003D00198E5
:1042200008B100F059F9204676BD2DE9F84304465F
:1042300088460026DFF824970FF24C75DFF82077C8
:1042400019E03846FDF76EFD04EB06104168B960D1
:104250008268FA6001687961C06807F11401B86189
:1042600079603D6039464846FDF760FDF86108B960
:1042700000F0B5F9761C4645E3D3BDE8F183F8B507
:1042800068460521416040F2DC528260DFF8D416B6
:104290000091DFF8D426C2600121FFF7C6FFFFF7C7
:1042A00088FF05B000BD80B5FDF75AFDDFF8B016F8
:1042B000CA69904201D0012002BD002002BD38B57C
:1042C00005460C46FFF7B0FE002144F80C1C2A6896
:1042D00012B92C6006E00A4652F80C1C0029FAD1EB
:1042E00042F80C4CDEE0062809DADFF8642600010B
:1042F000105A00281CBF4FF6F872904202D14FF0BE
:10430000FF30704708800020704738B505460C46DE
:1043100000F072F902464FF47A70A0FB0501002309
:10432000FFF76EFC002902D8B0F1004F02D36FF006
:10433000020032BD2060002032BD01468868496815
:104340000847F8B505460E46FFF779FEFFF799FED8
:1043500004001AD0FFF768FE01460022DFF8F035AE
:1043600017013B44188818B1521C062AF6D30CE0FA
:104370004FF6F870002718805C609F602A706068B4
:10438000306000F01FFA0020F2BD00F0B4FE00BF64
:104390000C387EE070B5044615461E460846FFF709
:1043A00095FE0146FF2902D14FF0FF3070BD334624
:1043B0002A462046BDE87040A5E038B50546FFF71F
:1043C0003EFEFFF749FE040002D16FF0040032BD4B
:1043D00065B900200090009B606800224FF4803196
:1043E000FDF77AFB401E8041C00F32BD15F1010F71
:1043F00008BF4FF0FF30EDD069462846FFF785FF34
:104400000028E8D032BD80B54FF48031FDF77BFB4A
:10441000002002BD2DE9F84305460F461646994691
:10442000FFF70DFEFFF72DFE04006FF0020802D12A
:104430004046BDE8F283FFF7F7FD01460022DFF8B2
:10444000100500EB0213188828B185420ED0521CCB
:10445000062AF4D30DE01D805C609F6032706068B6
:10446000C9F8000000F0AEF90020E2E700F0AAF978
:10447000DEE700F040FE00BF38B500F016F8054654
:104480002046FDF7D9FF04462846FFF7DAFD20460F
:1044900032BD38B500F009F8054614B12046FDF7E5
:1044A000E3FF2846BDE83240CBE50446BCE530B525
:1044B00087B0FFF7FAFF05466846FDF7DBFA2846A6
:1044C000FFF7BFFD00984FF48031606021600198D4
:1044D000A06007B030BDCFE7DBE71FB504466846F4
:1044E00000F010F800F008F803D32046FFF7C4FFEF
:1044F00000E0002004B010BD019840F2E931001B3B
:1045000088427047D3E72DE9F8430E4691461C4692
:104510006FF00208062EBCBF0546062809DAFFF731
:1045200083FDDFF82C2402EB0617796819B9FFF731
:1045300088FD404625E0FFF784FDA4F108000570E2
:10454000467080F8029038884FF6F87188420CD196
:10455000FA68AAB1214600209047002C18BF002815
:104560000ED02046FFF714FF0AE078682146083095
:10457000FFF7A5FE78684FF480314068FDF7C3FA75
:104580000020BDE8F2832DE9F04106460F46904633
:10459000FFF755FDFFF760FD040008BF6FF0040052
:1045A0001BD0FFF741FDA168002541B10D46A5F1E3
:1045B0000C010A680023A260FF240B608C72FFF7D5
:1045C00040FD0DB9022008E0A5F10C000179317021
:1045D00040793870C8F800500020BDE8F08182B002
:1045E00001208DF800009DF800000028FBD100F0AC
:1045F00082FD00BFFDF7F2BCFDF7EEBC80B5FDF714
:10460000EBFC6FF00041A1FB00014FF47A72002334
:10461000FFF7F6FA002902D8B0F1004F01D36FF08E
:10462000004002BD7CB50C4615461E466946FFF7A4
:104630006CFE30B9009833462A46214600F002F855
:10464000002076BD2DE9FE431D462C6880460E46AF
:1046500017460CBB0C20FFF70FFF04006FF0030997
:1046600014D06846FDF781FB00208DF80000019012
:1046700002946A464146DFF8F402FDF73EFC2060F2
:1046800030B9FFF7ACFF2046FFF703FF48460FE0C5
:104690006660A7602C6003E02068FDF768FCA760F7
:1046A000206841468160C0462068FDF732FC00204A
:1046B000BDE8FE8300281CBF0068FDF758BC7047AA
:1046C0002DE9F84384B00446884616461F46FFF796
:1046D000B6FCFFF7C1FC05460020029015B96FF04B
:1046E00004006CE03CB90190FFF784FFDDF8049012
:1046F0000124814425E014F1010F08BF4FF0FF3081
:10470000F1D001A92046FFF700FE0028ECD056E0CA
:10471000039902A8FFF7D3FD68684FF48051FDF7B5
:10472000F2F90198012410F1010F18BF002808D0F8
:10473000FFF760FFB9EB00002ED0019981422BD327
:104740000190019B686800224FF48051FDF7C4F985
:1047500010B303AA69460DF10100FFF714FF04002E
:10476000DFD19DF801000DF10201FFF7BCFD00282B
:10477000CED1039A9DF80010BDF80200C047002872
:10478000C6D016B1BDF80200308017B19DF8000008
:1047900038700C9803990160029EFFF745FC0146B2
:1047A00056B1324600E0024652F80C0C0028FAD10D
:1047B000A86842F80C0CAE6000F004F8204605B082
:1047C000BDE8F0830846FFF73CBC38B5FFF737FC7F
:1047D000FFF76BFE00255E4A2B01D15A49B1D11873
:1047E00049680B68A34203D06D1C062DF4D300E08A
:1047F00000E003E0FFF725FCE8B232BDFFF721FC43
:10480000FF2032BD3EB505460C46FFF74CFD70B1AA
:104810000021ADF80210564A1168ADF800508DF82D
:1048200006406846884710B99DF807003EBDFF2046
:104830003EBD1078422801D101207047002070470A
:1048400018B587B014220023FF24ADF8102002937E
:104850008DF8124006900591FFF7B7FF05AB0322D4
:104860001021FFF797FD002001A90190009100237E
:104870000022404941F28830FFF722FF012805D08D
:1048800020B9019820B1FFF783FD01E0FFF7A7FEF3
:104890000598006808B010BD0EB400B501A9FFF777
:1048A000CFFF5DF810FB0CB438B504460D46FDF79C
:1048B00057FA2B49CA69904208BF002005D004A9C5
:1048C0002046FFF7BDFF2860012032BC5DF80CFBDD
:1048D0002DE9F8430D46164699466FF00208062D5D
:1048E000BCBF0446062808DAFFF79EFB184A02EB15
:1048F0000517796819B9FFF7A4FB404612E0FFF7E6
:10490000A0FBA9F1080004704570867078684946DC
:104910000830FFF7D4FC78684FF480514068FDF709
:10492000F2F80020BDE8F2833EB504460D4601A929
:104930006846FFF706FD9DF80010054A21709DF8B6
:10494000003002EB0311CD603EBD0000D0390120E4
:1049500058360120143A01207B410000214100001B
:10496000F4390120C9D20200E80500203B430000D1
:10497000D8050020334800004963616C6C5F576FB5
:10498000726B657200000000424C455F53746163B6
:104990006B000000F340000029400000434000008D
:1049A000704780B5002000F0A9FB00F004FE00F085
:1049B0003FFEBDE8014000F09ABE034A02F1200329
:1049C0000249034800F0AABEFC040020A3490000ED
:1049D000A1490000D2B2203A22BF41FA02F0C91721
:1049E00070472032D141D04048409140D1404840AA
:1049F0009140114170471C028D4B8E4903FB001101
:104A00000129ACBF01F50011A1F500114A1501EB18
:104A10009221894A894B891501F3080102EA012292
:104A200087490A6058807047814B864903FB001113
:104A30000129ACBF01F50011A1F500114A1501EBE8
:104A400092217D4A7D4B891501F3080102EA01227A
:104A50007D490A601880704770B5FDF7F7FA064681
:104A6000FF246FF0FF05794809E0B0F90C108C4283
:104A7000C8BF0C46B0F90E108D42B8BF0D46006895
:104A80000028F2D12946204600F005F83046BDE85E
:104A90007040FDF716BB38B5684DB5F900200C46DF
:104AA000904206DAFFF7C0FF6948016841F004014F
:104AB0000160B5F90200A04207DA2046FFF79CFF2B
:104AC0006348016841F00801016031BD2DE9F04102
:104AD000FF20FFF7A9FF5E4C20685C4D20F004002A
:104AE00020606FF0FF00FFF787FF206820F00800CC
:104AF00020602C6800F040F8064607E0B4F90C800E
:104B00000CE0B4F90C108E4206DA3C469CB1B4F9C4
:104B10000E802768B045F4DBB045EFDB2146284620
:104B2000FEF719FF2346226900202075A46841463C
:104B30003046A047E9E7FFF78FFF4548416801F09D
:104B40000C014160BDE8F08138B5FDF77FFA0446FD
:104B5000404D287858B900F0DEFE3F490C2000F0A7
:104B600008FF3E480168CA07FCD50120287020468E
:104B7000BDE83240FDF7A5BA39480168394A3A48DC
:104B800089094905491502FB01000128ACBF00F560
:104B90000010A0F50010411500EB91208015704722
:104BA0002DE9F04104460E4617461D46FDF74EFA24
:104BB00080466FF0FF00A681E081FFE7A7602561D6
:104BC000207D28B921462148FEF7B1FE012020753D
:104BD000B4F90E10B4F90C00FFF75DFF4046FDF785
:104BE00070FA0020BDE8F0812DE9F84304460E4636
:104BF00017469846089DFDF729FAA681E781C4F873
:104C0000088081462561207D28B921460F48FEF79E
:104C10008EFE01202075B4F90E10B4F90C00FFF7D8
:104C20003AFF4846FDF74DFA0020BDE8F283000048
:104C30003C553D007A55ECFF00FF0100FA160020BC
:104C40005C6000406AAAE10058600040F83C012026
:104C500048600040A63D0120CD4A0000346000407D
:104C6000306000401CB21000778594FF704700024E
:104C7000FF2804D0012101FA00F05B4A1060704760
:104C800070B55A4804685A4D012604610CE0B4FA24
:104C900084F0C0F11F0006FA00F18C43696851F8F6
:104CA000201009B1C0B28847002CF0D170BD2DE9A9
:104CB000F84183B0FDF7CAF94E4F3978002400253A
:104CC00011B1FDF7FEF952E001213970FDF7F9F954
:104CD0000020FEF7EBFA48480168DFF8148141F440
:104CE000801101606846FDF7E1F9D8F80C006B46C9
:104CF000424A01901521381DFDF776F94048414997
:104D00000078097881422ED382003F4BD8F800709A
:104D1000BF58002F23D45FEA877E06D55FEA477C21
:104D200015D501268640354311E04FF0010E0EFAED
:104D300000FE4EEA040484465FFA8CFEBEF1FF0FCB
:104D400005D053FA8CFC07F001068CF80060FF08D0
:104D500002F1804EFF000EF5445ECEF80070401C5C
:104D6000121D8142D2D22948046029490D6004B045
:104D7000BDE8F081002207E0FF2804D0224A01F0BC
:104D80000101101801707047F0B4002926D4FF28E3
:104D900008BF4FF0FF3022D04E0806F00106012375
:104DA00004461C4D86F0010603FA00F005EB84056D
:104DB000330006D0144B01F001071C192770164C64
:104DC0002060084B4C0746BF186098601861C908FE
:104DD00042EAC10129600EB90F4908610020F0BC08
:104DE000704700006430024074300240543002408A
:104DF000D4D90200903A012040000040814C0000CC
:104E0000D33E0000F6490000003102400035024068
:104E10004430024000310040103502400138FDD1DD
:104E200070477047FF281FBF104A526852F8203061
:104E30008B4218BF42F82010704770B50446FF2817
:104E400011D0FFF715FF094E3068254650F82510A0
:104E50002046FFF78FFF00212046FFF7E3FFB168F0
:104E6000002041F8250070BD00000000D4D90200E8
:104E700038B5194C2078C8B90125257000230FF2E8
:104E800031020421201DFEF7D7F91120FEF70EFA9A
:104E90001248FF2181620122826411490B6843603C
:104EA00002601120BDE83240FEF730BA31BD00008B
:104EB00080B504280ED11120FEF7F8F90748FF212C
:104EC00081620122826406490B68436002601120FE
:104ED000FEF71CFA002002BD543B012004400C40A8
:104EE000BCDA0200F0B47F4991E83C007E4E80E8D5
:104EF0003C0037780770F0BC704710B57B4C2078C9
:104F000018B900F0F0FD01202070002010BD70B530
:104F100004460D462668FDF799F8317819B1FDF77A
:104F2000D0F8002413E094B101213170FDF7C9F8E5
:104F300000F07AFE08B1002070BD15B96948C0685C
:104F400004E02978E868012908BF00247060204641
:104F500070BD38B504460846114601F087F962482D
:104F60000078224600214FF0FF3500F0F4FE38B9FA
:104F700000F02FFF20B900F05BFFC0B200B90025A0
:104F8000284632BD2DE9F04F89B0002818BF00290E
:104F900002D0B2F5801F02D36FF0020480E00AB99C
:104FA00000207EE0D41D022704F00704D51DA74091
:104FB000ED088A467F1EDDF84890804603910292F4
:104FC0008DF80030D8F8000001A900220A60B5F180
:104FD000011F0BD36FF002049DF80000002843D19D
:104FE0009AF8001039408AF8001044E040684146C1
:104FF00000F07EFE10B96FF00104EDE70120FEF72E
:105000002DF9042D02D201A9042606E0514615F01F
:10501000030F0EBF2E46AE08B60032464046FFF7DD
:1050200098FF040013D1042D05D22A4601A9504649
:10503000FDF776FF0BE015F0030F08D0B346AE1B6B
:10504000324601A94046FFF784FF040005D000F076
:1050500073FE0120FEF714F9BEE75FFA8BFB3246C0
:1050600001A90AEB0B00E3E70AEB050010F8011CAD
:10507000394000F8011CB9F1000F11D002980399D2
:105080009DF800200590139804918DF81820079042
:105090001498089004A8C847002C08BF002891D095
:1050A000204609B0BDE8F08F18B583B019B18A6801
:1050B0000F4B9A4203D36FF0020004B010BD0B787F
:1050C000042B1CBF242B6FF01F0008D10024029476
:1050D0000194009449680123D200FFF753FF04B004
:1050E00010BD000014DA0200E0DA0200A23D012047
:1050F000010002007047012001F0CEB81CB5DFF8B6
:10510000204420600FF2490001F0D0F801001ED1C8
:10511000606830B92020FFF7DEF9606008B913201D
:1051200016BD00F0CDF940F64802F721DFF8F40390
:10513000FFF7B2FB002001900090606800230FF29F
:10514000B931C26904F1180001F0A9F9002016BDB7
:105150002DE9FC410678848885684088DFF8C073B3
:105160004FF6FF72796890421CBFB1F818809045E5
:1051700009D040450AD001F019F90421052000F0BA
:105180006AF9404600E0088301F010F91EB1022ED2
:1051900009D004D362E02A462146002015E02A46C1
:1051A0002146012011E028787968421E10D0921E15
:1051B000022A08D9D21E17D0521E1BD0521E16D05A
:1051C0000B3A3FD047E02A46214600F04DF845E033
:1051D000498801228DF80020ADF801106A460321AC
:1051E000022001F0A2F839E00020887630E049780A
:1051F000082031E00720FFF76EF904464FF44430F1
:105200001430C04601788DF80010427869464A7023
:1052100043881B0A8B704288CA704268120A0A715E
:10522000426807204A7120700622601CFDF778FE54
:10523000A4B122460721022001F077F82046FFF7AB
:105240004BF90BE0002340F20941B748FFF724FB7C
:105250000021062000E0FF2100F0FDF8BDE8F38109
:1052600000220021022000BFF8B500270E46144698
:10527000022813D0AA4D69680B78032B47D8DFE8C2
:1052800003F002455DBE00268DF8006048B1421E65
:10529000042A3CD8052100F0DEF8074600F0FEF8AD
:1052A000D3E001F09FF90700FAD1204601F0CBF9D5
:1052B0006968002820D48B8888600246B2FBF3F02E
:1052C00003FB1022D3B203B1401CC8600A7405F17D
:1052D000180001F039F9296809B101208847686888
:1052E00001210422017042708DF800606A4601219C
:1052F000002001F01AF890E0C87E0A26401EC2B2D3
:105300000AB1C876F0E710260020FAE7052800F277
:105310009B80DFE800F07F7F7F037F7A296829B1D7
:105320000220884710B11121032074E0686802212F
:10533000042201704270406900214DE0052863D8C5
:10534000DFE800F068036868686305F1180001F0A1
:1053500005F948B16868C16905F1180001F017F94D
:1053600005F1180001F0F0F8A078E1786F6800040A
:1053700040EA01606178237840EA0120F96803433C
:10538000581C884203D1387C08B1001D00E07888A1
:105390007969994204BFF6B2864210D1B888311FAC
:1053A000221D584389B201F066F9064668684169D2
:1053B000C268491C4161914211D10E2618E00020BB
:1053C000786103266868002105220170427000F0B0
:1053D00065F868683146406900F048F81DE0310022
:1053E00004D10221017004224270F2E70E2EE9D1AD
:1053F000296809B10320884768680321F2E7032878
:1054000008D9021F0BD0521E1ED100F047F8002110
:10541000052000E0042100F01EF8074615E00021F9
:10542000042000F018F86868404A1168068B0320D1
:10543000884705F1080000F093F930B9132231468E
:105440003B48FFF729FA00E0122714B12046FFF786
:1054500043F83846F2BD80B58DF800008DF8011094
:105460006A460221022000F060FF02BD3EB52C4BCF
:105470005C6802460020A37E7BB100BF2EA0D0E96D
:1054800000450DF102030220CDE900458DF8011021
:105490001A606A46062100F048FF3EBD10B5204C58
:1054A00000F00EF801F0CDF804F1180001F056F804
:1054B00028B104F11800BDE8104001F055B810BD46
:1054C0006068002105220170EC2181804FF0FF31DE
:1054D0008160C16000214270017441614FF6FF712B
:1054E000012201838276F023032142F2107243806D
:1054F000C176C2617047000000210E4800F050B92B
:10550000022800D0704780B50548016811B1042019
:10551000884718B9BDE80140FDF779BF01BD00001B
:1055200060040020691101009DEF0000A400000F3D
:10553000857E0100615200001200000000000000A2
:1055400070B50B4686B04FF6FF71284C012806D087
:1055500002280FD0082824D0102819D026E025884A
:1055600058898D4222D120800622191DA01CFDF7EA
:10557000D7FC1BE0988800220A2303FB02F5665B38
:10558000864203D0521C002AF7DD0FE061530DE084
:10559000588900280CBF01210021184600F065F948
:1055A00004E099886A461248FFF776F906B070BDA4
:1055B00070470E48704710B50C4C4FF6FF712180B4
:1055C00004F10C0000F0CCF8010005D104F1180042
:1055D000BDE8104000F0C4B810BD04490A888242FA
:1055E00001D100207047FF2070470000D804002040
:1055F00057B500007047000070B51B4C22A501286C
:1056000002D002280ED070BD1848FFF745F90646B3
:105610001748FFF741F9864204D32078BDE870406F
:1056200000F01BB929462078BDE8704000F00FB9A2
:1056300010B50D4C201D00F093F8010013D104F1BA
:10564000100000F08DF801000DD100BF09A1204627
:1056500000F0ECF8010006D194F800000AA1BDE8C2
:10566000104000F0F4B810BD3C0500201DB600004D
:1056700031B600000700000060090020190000009A
:10568000680900204409002000000000C9881F4B61
:1056900000221F48FFF700B938B586B00D46022832
:1056A00023D1FFF786FF298804466A461948FFF789
:1056B000F3F8D0B99DF80100022818BF032814D1CF
:1056C0000622002102A801F00FFB70B92888FFF71D
:1056D00084FFC0B2FF2808D00A23584306220DF1E8
:1056E00002012044801CFDF71BFC07B030BD10B543
:1056F000094C204600F034F8010005D104F10C00FB
:10570000BDE8104000F02CB810BD000040E20100E0
:1057100083F3000057B50000240500201FB5DFF813
:105720008C416061DFF888010160002100910391E4
:105730000821E2602361019102916B4600224FF43F
:1057400000710FF28C10FCF7A0FEA06001F0F3FADC
:1057500001F0F4FB002104F12400FDF7E8F81FBD7F
:1057600038B50546DFF8444104F12400FDF7FEF8A2
:105770000820FEF7B0FE08B9012032BD0560002107
:105780004160A26912B9A06104E00A46516800298B
:10579000FBD1506004F12400FDF7EBF8002032BD8E
:1057A00070B506460C46300008D00820FEF793FE80
:1057B000050005D114B12046FEF78EFE012070BD14
:1057C0002E606C602946082001F0DEFB28B114B180
:1057D0002046FEF781FE2846EEE770BD3549334886
:1057E00001F0A0BA38B5314C2069E5682178037919
:1057F000287A314A01F0A6FA206904F11C010068F8
:1058000001F015FBE0682178C268007A01F01AFB0C
:1058100021785020FEF7F6FF0246E068C16900914A
:10582000837E017A2548FFF737F831BD1FB5CA6876
:1058300003920B8902934A6801920C88F322009428
:105840000B6901461E4801F038FB04B010BD80B55D
:105850004B880A7801461B4803E0014680B51A4888
:1058600020E0FFF719F8C0B202BDE0B58288ADF8BC
:105870000020837B8DF80A3061B1C188ADF8021039
:105880000189ADF804104189ADF806108089012125
:10589000ADF808008DF80B1069460C48FEF7FCFFC8
:1058A000C0B20EBDFEF7F8FFC0B202BD80050020F9
:1058B000103D012071C0020037C102005F2D0200BF
:1058C0008BC102009F880100B7890100C57E0100DD
:1058D000424C454170705574696C5F7468656172C3
:1058E000645175657565000038B528480468284D11
:1058F000E86820401EBF696800298847A8680440FE
:105900001FBF296800292046884722480068BDE853
:105910003240FCF767BBF0B583B0FCF797FB044659
:105920001D4D287800BB1B4F3E68B8681B4901EB32
:10593000860108606846FCF7B9FB786801218DF89C
:10594000081001906B46164A3146281DFCF74CFBA7
:10595000144800218164032202601348016841F069
:1059600004010160012028702046FCF7AAFB03B067
:10597000F0BD38B504460D46FCF768FB04498C6061
:105980000D60FFE7BDE83240FCF79BBB4C60004078
:105990004C3C012040DA0200D03A0120C4530240BE
:1059A000E958000000600040005800402DE9F44F25
:1059B0000446884699460A9F0B9D0C9EDDF834A04C
:1059C000DDE90E01DDF840C0DDE91223DDF850E02D
:1059D0004FF0C85BC4F800B09DF800B03F061FFA56
:1059E0008EFE48EA0B483F0CE76048EA0968CCF3B2
:1059F0000B0CC4F80880DFF8548708EA0E482561CC
:105A000066614CEA080CC4F818A0C4F81CC02062F7
:105A10006162A262E362BDE8F18FDFF8E8251368F6
:105A20005FEAC37CFBD439B1DFF8183850F804CBF7
:105A3000491E43F804CBF9D101201060704738B5F6
:105A400001F03EFB05462920FCF7CCFA2920FCF7A3
:105A500009FBDFF8FC46294604F5807001F00FFBD6
:105A60000020DFF8E417087004F5007001780229BF
:105A700005D104F51770BDE83240FCF716B90129CD
:105A800005D1416819B18068BDE83440084731BD8F
:105A900010B54FF0FF34012803D100F050F8002872
:105AA00000E0042808BF0024204610BDDFF8A4163B
:105AB0000A6840F2013022F4E06202430A60DFF833
:105AC0009806102181600268D106FCD5DFF88C06AB
:105AD000DFF88C261060DFF874074FF0004101609A
