:020000040000FA
:100000003DB8F3968000000080001400D316030072
:1000100000010000010000000000000000000000DE
:10002000FFFFFFFFFFFFFFFFFFFFFFFFFFFFFFFFE0
:10003000FFFFFFFFFFFFFFFFFFFFFFFFFFFFFFFFD0
:10004000FFFFFFFFFFFFFFFFFFFFFFFFFFFFFFFFC0
:10005000FFFFFFFFFFFFFFFFFFFFFFFFFFFFFFFFB0
:10006000FFFFFFFFFFFFFFFFFFFFFFFFFFFFFFFFA0
:10007000FFFFFFFFFFFFFFFFFFFFFFFFFFFFFFFF90
:1000800000880220090F0300C7250000C7250000D3
:10009000C7250000C7250000C7250000C7250000B0
:1000A000C7250000C7250000C72500001532000045
:1000B000C7250000C7250000BD31000051300000F9
:1000C000C7250000C7250000C7250000C725000080
:1000D000C7250000C7250000C7250000C725000070
:1000E000C7250000C7250000C7250000C725000060
:1000F000C7250000C7250000C7250000C725000050
:10010000C7250000C7250000C7250000C72500003F
:10011000C7250000C7250000C7250000C72500002F
:10012000C7250000C7250000C7250000C72500001F
:10013000C7250000C7250000C7250000C72500000F
:10014000C7250000C7250000C72500004FF0FF327B
:1001500000F1080182604160C16000F108020261A3
:1001600001F036BD00210161704710B542684A6058
:1001700093688B6094686160916008610168491CB4
:10018000016010BD30B50A6812F1010F08BF0369A4
:1001900007D000F1080300E023465C682568AA4206
:1001A000FAD25A684A6091608B60596008610168B0
:1001B000491C016030BD8268436801699A604268E9
:1001C00083685A604A68824204BF83684B60002299
:1001D00002610868401E086008687047F8B5044668
:1001E00001260D46002C1CBFE06B002832D04FF0DA
:1001F000FF31B1FBF0F0226C90422BD302F012FFE2
:10020000206CE16B2268002700FB01F3491E484384
:100210001344A3601044A763E060626004F14400EB
:100220004FF0FF31017041704DB9206978B104F190
:10023000100000F0B3FE50B102F0EAFE07E004F156
:100240001000FFF783FF04F12400FFF77FFF02F0A7
:10025000F5FE00E000263046F2BD7CB50025002802
:1002600018BF002B0CD00AB109B909E041B9069CAE
:100270001D46012685F846600095E3B200F025F89A
:10028000284676BDF8B504460E4617460025D4B17B
:100290004FF0FF30B0FBF4F0B04214D306FB04F093
:1002A00010F1500F0FD2503001F033FB05000AD08F
:1002B000002085F8460000953B4605F15002314686
:1002C000204600F002F82846F2BD38B51C46049DD1
:1002D00000290CBF2D602A60E863296401212846AB
:1002E000FFF77CFF85F84C4031BD30B100218160C3
:1002F00000220260C160002346E07047024610B54C
:1003000001F0B2FC0446FFF7F0FF204610BD80B5B7
:100310008168DFF82829D36B994209D1C168491E49
:10032000C16003D10023002200F02EF8012002BD9D
:10033000002002BD10B50446A068DFF80029D36B89
:10034000984204D1E068401CE060012010BD2046C6
:1003500000F057F910B1E168491CE16010BD38B5F3
:100360000D46002470B1A8420CD34AB114460121B5
:1003700084F846100094022300220021FFF7A5FF15
:1003800004B1A563204632BD2DE9F647064682B08A
:1003900089469846002406F14407DFF8A0A82FE01C
:1003A0000398002849D034B9DAF864000124009099
:1003B000DAF85010019102F041FE00F045FC02F025
:1003C00031FE00F0A8F904BF0021397000F09EF959
:1003D00004BF0021797002F031FE00F093F900288B
:1003E0003DD102F01FFEB06BF16B884214BF0025B7
:1003F000012502F023FE25BB00F001F900F040FCCE
:1004000002F010FEB06BF16B884202D3B8F1020F1C
:10041000C6D142464946304600F0BEF9716A19B16C
:1004200006F1240000F0BAFD08B102F0F1FD02F07F
:1004300005FE012004B0BDE8F08702F0FFFD0020BA
:10044000F8E7039906F1100000F057FD00F0D7F827
:1004500000F016FC0028D3D102F0DAFDD0E700F05E
:10046000CEF800F00DFCEAE72DE9F8430546894691
:1004700014461E4602F090FE8046A86BE96B884247
:1004800001D3022E1FD195F94570A86B324649461B
:10049000284600F081F917F1010F0AD1686A80B18E
:1004A00000F040F8002818BF002C0AD0012121607C
:1004B00007E0DFF88807C16C8F423CBF7F1C85F8DE
:1004C0004570012400E00024404659E170B505461E
:1004D0000C4602F061FE0646A86BE96B88421BD20F
:1004E00095F94510401CA86311F1010F0AD1686A03
:1004F00080B100F017F8002818BF002C0AD00121A5
:10050000216007E0DFF83407C26C91423CBF491C10
:1005100085F84510012400E00024304602F047FE33
:10052000204670BD05F1240000F038BD2DE9F743E9
:1005300006468846002406F14407DFF8009703E0EA
:1005400000F05DF800F09CFB02F06CFDB56B002D37
:1005500035D10298002844D034B9D9F86400012478
:100560000090D9F85010019102F068FD00F06CFB8A
:1005700002F058FD00F0CFF804BF0021397000F000
:10058000C5F804BF0021797002F058FD02A9684641
:1005900000F0A6FD0028304627D100F07AF90028A7
:1005A000CED0029906F1240000F0A7FC00F027F855
:1005B00000F066FB0028C7D102F02AFDC4E74146DF
:1005C000304600F01DF96D1EB563306920B100F0B2
:1005D000A7F808B102F01CFD02F030FD0120BDE8D3
:1005E000FE8302F02BFD0020F9E700F01DF900F07A
:1005F00047FB304600F04DF90028A5D0F3E7304620
:1006000012E12DE9F3410646002482B0A04606F12E
:100610004407DFF8285603E0FFF7F1FF00F030FB56
:1006200002F000FDB06B00283BD10398002863D096
:1006300024B9686E01240090296D019102F0FEFC3E
:1006400000F002FB02F0EEFC00F065F804BF0021B0
:10065000397000F05BF804BF0021797002F0EEFC05
:1006600000F050F8002830462DD100F012F9002893
:10067000D2D0306838B902F0D5FCB06800F0D6FDB1
:10068000804602F0DBFC039906F1240000F035FC03
:10069000FFF7B5FF00F0F4FA0028C1D102F0B8FC72
:1006A000BEE7401EB063306810B900F069FEB0606C
:1006B000306920B100F034F808B102F0A9FC02F072
:1006C000BDFC01201BE000F0AFF800F0D9FA304685
:1006D00000F0DFF80028A3D0B8F1000F0ED002F030
:1006E000A1FC706A00281DBF306B0168C1F10A01CE
:1006F0000021B06800F008FE02F0A0FC002004B069
:10070000BDE8F08103A9684600F0EABC97F9010052
:1007100010F1010F704797F9000010F1010F7047B9
:1007200006F1100000F03ABC2DE9F8430646884671
:10073000144602F031FDB56B8146FDB196F9447067
:100740004146304600F05CF86D1EB56317F1010FAD
:100750000AD1306980B1FFF7E3FF002818BF002CF1
:100760000AD00121216007E0DFF8D004C16C8F427C
:100770003CBF7F1C86F84470012400E000244846FA
:1007800002F015FD2046BDE8F28390F846100029DE
:1007900008BF01F029B97047F8B506461446B56B95
:1007A000326C002742B9306830BBB06800F079FD88
:1007B00000210746B1601FE064B9706802F038FD9F
:1007C0007068316CB26808447060904214D330682D
:1007D000706011E0F06802F02BFD306CF16840426F
:1007E0000144F1603268914202D2B1680844F0607D
:1007F000022C01D105B16D1E6D1CB5633846F2BDEA
:10080000026C0B46002A00D1704710B5C16884689D
:100810001144C160A14224BF0168C160C16818468B
:10082000BDE8104002F004BDF8B500F09CF904F1F9
:10083000440090F9015007E004F1240000F0AEFB01
:1008400008B100F075FC6D1E68B2012802DB606A19
:100850000028F1D104F144054FF0FF366E7002F02C
:10086000EDFB02F0DFFB95F9007007E004F11000EA
:1008700000F094FB08B100F05BFC7F1E78B2012809
:1008800002DB20690028F1D12E70BDE8F14002F0B2
:10089000D5BB10B500F067F9A06B441EA44102F06F
:1008A000CDFBE00F10BDF8B501F000FD02F0BAFB82
:1008B00004F1380797F90C0010F1010F04BF002173
:1008C000397397F90D0010F1010F04BF00217973FE
:1008D00002F0B4FB386828B93246294604F12400F6
:1008E00000F039FB2046BDE8F2409DE72DE9F043DA
:1008F00085B00E9D06460F4690469946002D1CBFBA
:100900000D9C002C18D06421284602F023FD022201
:100910002C6385F861200C9A002004A903900191B2
:10092000009202954B4642463946304600F039F86F
:10093000284600F077F801E00020049004982DE0AC
:100940002DE9F8430646174684B088469946B80014
:1009500000F0DFFF04001FD0642000F0DAFF050084
:1009600017D0642102F0F6FC00202C6385F86100AA
:1009700003900D980C990190029500914B463A46D0
:100980004146304600F00DF8284600F04BF80120B3
:1009900004E0204601F028F84FF0FF3005B0BDE834
:1009A000F0832DE9F8430A9C80460D46206B1646DD
:1009B0009946A522B10002F0D1FC216B01EB860023
:1009C000061FF608F60004F140010E6065B1002232
:1009D000AB5CA01880F83430A85C10B1521C0C2A13
:1009E000F6D3002084F83F00089F092F88BF09270D
:1009F000099DE762CF60201DFFF7B4FB04F11800EA
:100A0000002101612461C7F10A07A761216B6462BB
:100A10004B464246304602F03DFB206005B12C605B
:100A2000BDE8F1832DE9F84300F09DF8DFF8685543
:100A3000E86C1426DFF8F077401CE864E86B40BBF4
:100A4000EC63E86C01282CD1002506FB05F06D1C39
:100A50003844FFF77BFB0A2DF7D3DFF83C5505F14F
:100A600090084046FFF772FB05F1A4094846FFF7DE
:100A70006DFB2846FFF76AFB05F11400FFF766FBE4
:100A800005F12800FFF762FBC5F84080C5F84490E7
:100A900007E0A86D28B9E06AE96BCA6A904228BFEE
:100AA000EC63A86EE16A401C60646A6D8A4238BFDC
:100AB00069654E43A866381D805900F014F8B819CE
:100AC0006061BA59521CBA5102F0B8FAA86D40B12F
:100AD000E86BC16AE06A814203D2BDE8F14302F0EB
:100AE00097BABDE8F183211DA0608268E260826848
:100AF00051608160704738B500F035F800F06EF84D
:100B0000A06A18B104F11800FFF755FBA86E401C4D
:100B1000A866E86B84420BD1211D05F11400FFF794
:100B200024FBA86C401CA864204602F029FA07E0C8
:100B3000E86C401EE864204602F022FA00F059FBFF
:100B400002F07CFAE86B84421CBF204600F043FBB5
:100B5000A86D18B1E86B844200D146E031BD02F0C7
:100B60006DFA204610BD044602F05CBA38B5FFF7B6
:100B7000FAFF00F033F8A06A18B104F11800FFF78B
:100B80001AFB211D05F12800FFF7EFFA00202118BC
:100B900091F86030012B03D10021221882F86010F7
:100BA000401C0028F3DD02F049FAA86D28B102F0DC
:100BB00039FA00F01EFB02F041FAE96B8C420CD1CD
:100BC000A86D00B111E0A86AE96C884202D100204A
:100BD000E86331BDBDE8314056E131BDDFF8B853BF
:100BE00004B9EC6B201DFFF7E6BABDE8314002F016
:100BF0000FBA00003EB5114C04F1B80004F58E7137
:100C0000029001910025009500234C220CA10FF2C7
:100C10002D50FFF76BFE70B100F012FC01280AD1D5
:100C200002F0BAFA4FF0FF30E0660121A165002022
:100C3000206502F063FA206F37BD0000840D0020AC
:100C400049444C4500000000DFF84C03416F491C4B
:100C500041677047DFF84023516D002001B101204A
:100C6000D36BD96A29B9DFF8C0150B68012B00D8FE
:100C700008B100207047D06E116D401A7047000017
:100C8000F8B502F0CFF9DFF81063706F002400258B
:100C9000401E7067706F002853D1F06C00283AD165
:100CA0004FE0F068C468216AE269A06A9160E16976
:100CB000226A5160416804F11802914204BF216A1E
:100CC0004160A5620168491E016000F0F3F904BFAC
:100CD000E168416065610168491E0160E76A706D05
:100CE000B84238BF776514204743DFF83C05011D43
:100CF000C959A1608B68E3608B685A608A60C1192A
:100D00006161C3595B1CC351E06AF16BCA6A9042CE
:100D100024BF0121316630680028C2D10CB100F037
:100D200068FAF46D44B100F022F808B10120306691
:100D3000641EF8D10020F065306E10B1012502F07C
:100D400067F900F027BB38B50446934D286DE96E6E
:100D50002018884207D102F065F9E86D641E401C36
:100D6000E86502F06BF9286D24182C6531BDF8B5E3
:100D7000894E706F002500286DD1346D641C346578
:100D800008D1306C716C31647064706E401C706698
:100D900000F02FFAF06E844257D34FE0316CC868F0
:100DA000C1684868844254D3CA688B6848699A60AD
:100DB0008A68CB685A6042680B1D9A4204BFCA68B1
:100DC000426000234B610268521E0260886A88B14B
:100DD0000A6ACB699A60CA690B6A5A60426801F173
:100DE00018039A4204BF0A6A426000238B620268B9
:100DF000521E0260D1F82CC0706D604538BFC6F835
:100E000054C0142000FB0CFCDFF81C04021D52F837
:100E10000C200B1D8A609768CF6097687B60936099
:100E200000EB0C024A6150F80C707F1C40F80C700B
:100E3000F06BC26AC86A824238BF0125306C006814
:100E40000028ABD14FF0FF31F166306E30B1012593
:100E500004E0F066F9E7F06D401CF0652846F2BD4D
:100E600038B504000D4604BF4B48C46B02F0DAF8F5
:100E7000656500F05CBB10B5040004BF4648C46B58
:100E800002F0D0F8646D6AE610B5434C606F10B1A3
:100E90000121216610BD2066E26B106B0168B1F183
:100EA000A53F04BF4168B1F1A53F07D18168B1F109
:100EB000A53F04BFC068B0F1A53F05D0E06B00F1CD
:100EC0003401E06B02F084FA616DDFF85C2300E02E
:100ED000491E14234B43D0580028F9D0D01842683B
:100EE00000F10803526842609A4204BF52684260AF
:100EF0004068C268E263616510BD274A10B5D36BD4
:100F00000C4603F11801FFF73DF920460121BDE829
:100F1000104000F05DBA70B51F4BDC6B41F0004132
:100F2000A1614168DD6BE9618C68DD6B2C62DE6B71
:100F30008D6806F118046C60DC6B04F118058D6097
:100F4000D96B8862036801215B1C03601046BDE811
:100F5000704000F03DBAF8B50B4641680E4CE66BA8
:100F6000F1618D68E66B3562E76B8E6807F11805F5
:100F70007560E56B05F118068E60E16B88620468A8
:100F8000641C04600AB14FF0FF3311461846BDE8F7
:100F9000F44000F01DBA0000840D002070B5C06858
:100FA000C568296AEA69A86A9160E9692A6A516094
:100FB000416805F11802914204BF296A416000228C
:100FC000AA6200F0F3F9606FD0B900F0F5F904BF40
:100FD000E968416000226A610168491E0160E96AAE
:100FE000606D884238BF616500F084F900F0D6F981
:100FF00042186A614658761C465000F0FAF80CE038
:10100000606805F11801E86182682A6282685160AF
:101010008160AC622068401C2060E06BC16AE86AB5
:10102000814203D201210120216670BD002070BDE4
:1010300070B541F00041016082684368C46801698D
:101040009A60426883685A604A68824204BF836833
:101050004B60002202610868401E086000F0C9F879
:1010600000F028F804BFE168416000226261016875
:10107000DFF85027491E0160E16A506D884238BF91
:101080005165142041436848031D5B58251DA3602A
:101090009E68E6609E6875609D604318636146586F
:1010A000761C4650D06BC16AE06A81423CBF012188
:1010B000116670BDE168A26860699160A168E2682C
:1010C00051604168221D91427047BDE8104001F017
:1010D000B5BFDFF8F0164A6E0260096D41607047D7
:1010E000F8B500F055FBDFF8DC06016D62682E688C
:1010F0008B1A16F1010F12D0476ED4F800C0674565
:1011000005D0914203D30020012428600CE0B342B3
:1011100007D2F31A2B60416E2160006D60600024DD
:1011200002E000202860012401F088FF2046F2BD83
:101130000120DFF8901608667047000038B5DFF828
:10114000844611E001F06EFF206AC568281DFFF794
:1011500032F8E06C401EE064A06C401EA06401F018
:101160006DFF284600F037F8A06C0028EAD1FFF7A1
:1011700071FD0228F8D3FFF767FDFFF76BFD02282A
:1011800024BFA06702F0D7F9FFF77AFDECE7DFF89C
:10119000342611680120002904BF116E002901D1F5
:1011A000D16D09B100207047916AD26C491C9142FF
:1011B00008BF0220704721B910B9DFF80806C06BDC
:1011C000826570470246002021B912B9DFF8F405A4
:1011D000C26B906D704710B5044694F8610018B961
:1011E000206B00F001FC01E0012801D100F076BB8A
:1011F00010BDDFF8D015086C006818B94FF0FF3249
:10120000CA667047086CC2681368CB667047DFF81F
:10121000B415886D08B901207047486F08B90220DD
:10122000704700207047000090350120F8B5044653
:101230000020002C34D0E16ADFF88855EA6BD36ACD
:10124000994227D2A069002804D4E86BC26AC2F18F
:101250000A02A261142779436269DFF8AC6631445F
:101260008A4213D100F04DF8E86BC06A696D814283
:1012700038BF68654743E062311DC859FFF733FC4A
:10128000F0196061F259521CF25108E0E86BC16A32
:10129000E16204E0E16CEA6BD36A994200D201207A
:1012A000F2BD38B5044600201CB3216DE26AE36C40
:1012B000491E21659A421CD0D9B900F022F8E16C90
:1012C000C1F10A00A061E162DFF8F804426D8A42D0
:1012D00038BF416500F00EF8231DA2609568E560F7
:1012E00095686B609360421862614458641C445076
:1012F000012032BD14204143DFF80C06021D525874
:101300007047201DFEF757BF70B504002CD0E06C6D
:10131000814238BF0146E06A884225D0226D012A09
:1013200022D1A269E162002A5CBFC1F10A01A16178
:10133000142670436169DFF8D0552A18914213D101
:10134000FFF7DFFFE06ADFF87C144A6D824238BFA6
:1013500048654643211D281D8059FFF7C5FBA81984
:101360006061AA59521CAA5170BDDFF85814C86BAD
:101370008069CA6BC96BCB6AC3F10A03936170477A
:10138000DFF84014C86B18B1C86B026D521C0265BF
:10139000C86B704701F052FE2846F2BD2B1DAA60B3
:1013A0009668EE6096687360936070470168DFF836
:1013B0001444491E01607047E968AA686869916031
:1013C000A968EA68516041682A1D9142704700008F
:1013D000F8B5DFF8F0630C46376DF16B0546081D74
:1013E000FEF7E9FE15F1010F15D1A4B1F06AF26B19
:1013F00090608168F26BD160F36B8268191D516057
:10140000F16B0A1D8260F16B06F128004861B06A39
:10141000401CB062F1BDF06BED19BD424560F06B50
:1014200005D2011D706CBDE8F440FEF7ABBE011D96
:10143000306CFEF7A7FEF06E854238BFF566F1BD51
:101440003EB500F07BF9DFF8E055A868002488B1CC
:1014500005F5E67105F50C700522029101900092E8
:101460000023642204A10FF23110FFF73FFA00B10C
:101470000124E86020463EBD546D7220537663001F
:101480002DE9FC4105460E46174698462C2000F0F3
:1014900040FA04000BD0002084F828000899019439
:1014A000434600913A463146284600F002F800F0E3
:1014B0002DBA2DE9F8430546884614469946089EFC
:1014C000099F00F03BF93D60C7F81880C7F81C90F1
:1014D0003E62381D002101612CB197F8280040F0D0
:1014E000040087F82800BDE8F1837FB51E46DFF8C9
:1014F00038359C6805460020BCB1009101920295E8
:1015000006290CDAFFF783FE022807BF089A00239A
:101510000023002269462046FEF736FF05E000233F
:10152000324669462046FEF79FFF04B070BDBDE815
:10153000314001F083BD70B500F0B8FE04E0A06951
:10154000216A451920468847A1692B463246491928
:10155000204600F0D8F80028F1D170BDF8B5044657
:101560000D46DFF8C4040168CA68D668301DFEF76E
:1015700022FE06F12007387A410705D52A46214682
:101580003046FFF7D8FF02E000F0FE003872304628
:101590003968BDE8F4400847F0B585B0DFF88854F5
:1015A0002968086810B90124002602E0C8680024F0
:1015B0000668FFF749FB684600F088F80746009880
:1015C000C8B944B9B7420BD3FFF75AFB3946304686
:1015D000FFF7C4FF19E0686801684C1EA441E40FDE
:1015E000A8682246F11BFFF75EF9FFF749FB60B9D7
:1015F00001F00EFD09E0FFF743FB06E094F8280038
:10160000810738D4204600F0EFF9A868002201A92C
:10161000FEF78CFF0028C3D00198002803D5049959
:101620000398029A904701980028EED4039C6069C1
:1016300008B1FFF766FE684600F048F806460198D4
:10164000401E0828E1D8DFE800F01D1D1607061D22
:101650001D160700D9E7D1E794F828103346324623
:1016600041F0010184F828100298A06181192046F8
:1016700000F049F8C9E794F8280000F0FE0084F86B
:101680002800C2E794F82800324640F0010084F8B0
:1016900028000299A0690B464118204600F033F853
:1016A0000028B2D094F82800410707D50299A06914
:1016B000324641182046FFF73EFF03E000F0FE00EF
:1016C00084F82800216A204688479EE770B50446C2
:1016D0003C48056DDFF85063306985420AD300202D
:1016E00035612060284670BDD0684FF0FF3100683A
:1016F000FFF734FF326810680028F5D17068726017
:1017000030600120ECE738B5002441600061DFF86B
:1017100018538A4206D38169D21A8A4206D2011D21
:10172000686807E09A4203D2994201D3012403E09A
:10173000011D2868FEF726FD204632BD1CB501F0CC
:1017400071FCDFF8E442A068C0B904F11400FEF7B0
:10175000FDFC04F12800FEF7F9FC04F1140004F18B
:101760002801002220606160009204F13C0304F132
:101770008C0210211420FEF770FDA060BDE813401C
:1017800001F05CBC10B5FFF7EEF9E469FFF7E7B9CB
:1017900004460D4601F046BC38B584B000F00AF8A6
:1017A0006FF001050291009500236946FEF75CFE8B
:1017B00005B030BD039201901C462246DFF810436D
:1017C000A0687047840D002010B5202000F0A1F81B
:1017D000040006D000202060201DFEF7B7FC00208A
:1017E0002077204610BD2DE9F84F0746884614465D
:1017F00099460A9DFFF728FA3E684A464146304618
:101800004FF0000B6FEA080A00F06DF830B10025C8
:10181000A4B138680AEA000038600FE075B10CB175
:101820004FF0807BB9F1000F18BF4BF0806B2A4658
:101830004BEA0801381DFFF76EFB0026FFF720FA80
:10184000DDB108B901F0E4FBFFF78FFD0646B001FA
:1018500011D401F0E7FB3E684A464146304600F0AD
:1018600042F8002818BF002C03D038680AEA0000AC
:10187000386001F0E3FB26F07F463046BDE8F28F8A
:10188000F8B504460E46FFF7DFF921682269002506
:101890000E43266016E0984213D1F80148BF1D435D
:1018A00041F000711046FFF7C3FB0AE01768566865
:1018B00027F07F4301EA03005FEA471CEBD40028CE
:1018C000EBD1324604F10C0021688242EED121EACC
:1018D00005052560FFF7D4F92068F2BD2046BDE874
:1018E000104081E0CCE7034600200B400AB91BB151
:1018F00001E08B4200D10120704713460A460146A1
:10190000DFF8E40348E70000903501202046BDE8F9
:10191000F681F8B501F0F0F8DFF860168868002568
:10192000F0B901F11C0201F11C064FF4803013469E
:1019300016F0070F05D0D31DDB08DB00C3F580369A
:101940009019C0180838C008C0000B604D6088604E
:1019500045600560C61A5E60186058680861C86016
:10196000002C3DD004F00700C0F110004FF0FF3212
:10197000121AA24234D3041932D431D0C868A0421A
:101980002ED30E6801E0314606467068A04202D2AE
:1019900030680028F7D1DFF8E475B86886421FD0B8
:1019A00030680A680860706802F10805001B10289A
:1019B00005D9311D08517460301900F037F870688E
:1019C000F9683B69091A994298BF0B463B61F96077
:1019D00040F000407060002030607969491C7961F6
:1019E000FFF74EF92846F2BD002800D1704738B500
:1019F000A0F108046168002914D5206890B921F08D
:101A000000416160FFF720F9DFF87055E968606810
:101A10004118E960204600F009F8A869401CA86157
:101A200001F0F6B831BD0000E0200120DFF84C15D0
:101A300030B50A4600E01A4613688342FBD3536868
:101A4000D418844203D14068C318536010464368D9
:101A50001468C518A54208D189688C4204D0616811
:101A6000CB184360246800E00C460460824218BF33
:101A7000106030BD2DE9F04101F03EF8DFF8FC7454
:101A80003868002500264FF0FF3860B108E0426852
:101A90006D1CB24228BF1646424598BF904600686A
:101AA000B9688842F3D1FFF7EBF86660C4F80880A4
:101AB000E56001F0B7FAF868206079696161B8699A
:101AC000A06139692161BDE8F04101F0B7BA0000B9
:101AD000E0200120FFF778BE38B50C464FF47A714C
:101AE000B3FBF1F11546130018BF01230091012249
:101AF0002146FFF778FE204003D0A04202D0012DFE
:101B000000D1002032BD38B5044600200D460090BB
:101B100000F045FC28B16A4629462046FFF7EDFE55
:101B200031BD29462046FFF7ABFE31BD0B460146CD
:101B300000221846FEF7A6BB70B500F019F813D0C6
:101B400000F02DFC28B1002229462046FEF7ECFDCE
:101B500006E000F02BF8024629462046FEF7E6FC98
:101B6000012801D1002070BDFFE74FF0FF3070BDAC
:101B700004000D461646704770B5FFF7F9FF10D008
:101B800000F00DFC18B1002300F012F805E000F0A1
:101B90000DF80246002300F005F8012801D10020CD
:101BA00070BDE2E729462046FEF7EEBB304604E072
:101BB000002229462046FEF757BC10F1010F02D142
:101BC0004FF0FF3070474FF47A71B0FBF1F070477F
:101BD0000021016070473EB50C4622B9002101AAE0
:101BE0008DF804100291117839B9024621464FF65A
:101BF000FF70FEF7B4FB054609E0002508B100F0D0
:101C00001CF8002D18BF002C01D000F010F8284659
:101C10003EBD38B50C46002538B100F00EF8002D59
:101C200018BF002C01D000F002F8284632BD002376
:101C3000002200212846FEF7A7BB0546012085F8B3
:101C400046000095032300220021FEF73EBB38B575
:101C5000044600F008F8050018BF002C01D000F081
:101C6000A4FF284632BD032200210120FEF70ABB53
:101C7000FEF78BBD002101704160704738B5044606
:101C80000D4600F08CFB28B1002200212046FEF713
:101C90004BFD06E04FF47A70B5FBF0F12046FEF7FD
:101CA000B0FC012801D1002032BD00F089BE1CB576
:101CB000044600F074FB28B9002300220021FFF73E
:101CC00072FF13BD69462046FEF700FC13BD10B538
:101CD00000F03AFBDFF8D8168C6A00228A6200F026
:101CE00074FB204610BD0000E5180000044600F01B
:101CF0002BBB70B5064600F027FBDFF8B456044650
:101D0000AE62686A48B1012E04BF2878002804D169
:101D1000286B00F058FB012028702046BDE8704079
:101D200000F053BB08B400B501AB00F004F85DF857
:101D300008FB000000BF2DE9F34F81B05FEA020A03
:101D40002DED028B88B09B464FF0000807D10FE1C4
:101D500001460CAA0BA800F049F908F101081AF88D
:101D6000011B080000F000812528F1D11AF8010BB1
:101D70002D2806BF4FF001091AF8010B4FF000099A
:101D8000302806BF01241AF8010B002400220A2182
:101D90004FF0FF352A2811D15BF8040B0290029A0C
:101DA0001AF8010B002A0ED54FF00109524209E042
:101DB00001FB0200A0F130021AF8010BA0F1300380
:101DC0000A2BF5D302922E2816D11AF8010B002502
:101DD0002A280DD15BF8045B002D48BF00251AF8B6
:101DE000010B09E001FB0500A0F130051AF8010B19
:101DF000A0F130020A2AF5D304B1029C6C2814BF6A
:101E00004C281AF8010B03AE07AF2A46A542B8BF0B
:101E10002246642818BF692804D15BF8041B6FF0C0
:101E2000090309E00A2375281FBF10237828082317
:101E30006F2806D15BF8041B07A800F0A9F8064636
:101E40006DE0702807D0632810D15BF8040B0127E0
:101E50008DF80C0064E05BF8041B1023082207A82F
:101E600000F096F8461E4020307058E0732810D1DC
:101E70005BF8046B0EB90FF20816304601F0C8FE8D
:101E8000074615F1010F4BD0BD42C8BF3D462F4656
:101E900046E066287FF45CAF0BF1070020F00700F6
:101EA00000F1080B90ED008B002551EC180B00227F
:101EB000002301F0C9FE05D281F0004141EC180B6E
:101EC0000125641E51EC180B01F0D8FE0A230422F0
:101ED00006460192009301F0EDFE02460B4651ECDE
:101EE000180B01F0AFFF0022DFF8443802F01CF8B5
:101EF00002F0F0F8009B019A014607A800F048F8AC
:101F00002E2200F8012C401E391A621A0A2331468B
:101F100000F03EF8064615B12D2006F8010DBF1B56
:101F2000029CE41BB9F1000F0ED1641E0CD400F02A
:101F30002BF808F10108F8E716F8011B0CAA0BA80A
:101F400000F054F808F101083846471E0028F3D184
:101F5000B9F1000F3FF403AF641E3FF500AF00F08E
:101F600013F808F10108F7E70B9808B10021017098
:101F700008B04046BDEC028BBDE8FE8FD01A0020B1
:101F8000286E756C6C2900000CAA20210BA82DE08E
:101F9000F0B500240025002B44BF5B42002902D588
:101FA0004942521E2D25B1FBF3F600BF0AA7641C5F
:101FB00003FB1611795C00F8011D31460029F2D1AE
:101FC0009442BEBF302100F8011D641CF8DB2900DB
:101FD00018BF00F8015DF0BD30313233343536378B
:101FE0003839616263646566000000001368022B83
:101FF00005D35B1E13600268531C036011707047A9
:1020000009A1142201F024B9E0B5002202AB02922A
:1020100001938A680092CA684B6809689203120C9F
:10202000FEF78EFC02980EBD0C12030000000000AB
:1020300001000000000200000000000000BFDFF807
:102040004407C06B704710B5DFF8E81691E81C0034
:1020500080E81C0010BD70B5DFF8D846207B60BB5F
:10206000DFF8D4060568DFF8D4660121316000226C
:1020700082600120F0600FF2B101DFF8C40600F0C9
:10208000B0F92321DFF8000701600122726004F13A
:10209000140002F030F80021E5616FF480006173F4
:1020A000A173451901212562217300F04DF9054600
:1020B000206A00F003F8284630E670BD38B50446C3
:1020C000DFF8C8560121A962202000F0FFF82C603B
:1020D000DFF860160C6231BDF8B50546DFF854062E
:1020E0000E464FF0FF37446919E0207D012815D1D5
:1020F000012D04BFE168B14208D1206900281ABF50
:102100004118E1602075E069A1698847207D0128B8
:1021100004D1E068801BB84298BF07462468002CB1
:10212000E3D13846F2BD0000F8B50120DFF80C1607
:10213000086000F009F9DFF800361C68DFF8F415D4
:102140000E6A012200234A738B73A41B00F03DF931
:10215000002706E0BE1931460120E41BFFF7BCFF53
:102160000746BC42F6D200F0EFF80446DFF8C4554B
:10217000A87B012804D131460020FFF7ADFF0746B8
:102180006FF48000874288BF0746B819FFF796FFB3
:1021900000206873EE61204654E070B504001D46CF
:1021A00018D0DFF8906505B935466868A260A1616E
:1021B0002061A8680021E0612175FFF74CFF2146EE
:1021C00006F1140001F0B4FF287810B1204600F0A9
:1021D0000EF8204670BD70B500F068F8202000F0C1
:1021E000B1FA33462A462146BDE87040D5E7F8B536
:1021F000FFF77CFD0546DFF83C25507BDFF83815FE
:10220000B0B90B68D769166AD2F81CC0DF1BA6EB01
:102210000C0CBC450CD3A0680121C018E0602175EE
:10222000A068F31A98420CD2E068FFF747FF08E075
:102230000B68A168CB18E36001232375012808BF50
:1022400090732846BDE8F240BFE070B5064600F046
:102250007BF8044600203075DFF8D854687B10B155
:102260000121A97319E0296AF068884215D1DFF8C5
:10227000C8241668EA69E869B21A091A8A420CD2B7
:1022800031460020FFF728FF6FF48001884288BFA5
:1022900008468019FFF712FFEE613EE570B500F0C9
:1022A00005F800F051F8A561E66137E504460D46F2
:1022B00016467047DFF844164160002202607047FE
:1022C00001207047DFF870040068704701F0DBBF41
:1022D000FEB504000E4617461D4622D01DB96846BD
:1022E0006D4600F067F86868314900F0FF02FF2A88
:1022F00019D16020686001EB86014C636760286833
:102300000FF26501A0602660304601F038FF696871
:102310003046C9B201F05CFF287A10B1304601F0B6
:1023200065FF2046FEBD0A6B9642E4D07028E2D1DC
:102330000024F6E710B50446206801F06BFF206822
:10234000BDE8104001F03FBF80B500F028F818B993
:1023500000F068FE002002BDBDE8014000F01CBF97
:1023600001F058BF00000000914800688F4900F05C
:10237000FF0001EB8000416B002900D1704780B560
:10238000886849688847BDE8014000F041BE01F017
:102390002DBFEFF31180401E8041C00F704784486D
:1023A0000168C1F30800002818BF0120C0B27047BF
:1023B000D00F002030B1002101604FF0FF32012327
:1023C00042600372704701F039BF10B50446FFF751
:1023D000E6FF08B9FEF779BE2046BDE8104000F0E0
:1023E000E6BE70B5FFF762FFFFF7AEFF6560A6605F
:1023F000BDE87040E9E7C9B201F0EABE2DE9F84F47
:10240000EFF3108B012080F31088FEF7C0FE002848
:1024100017D001F06CF8DFF8D425936F41088008DD
:1024200001F0010100F0010003F0030381F001015C
:1024300080F00100012B05D1002904D01168890327
:1024400003D499E0002900F09180DFF8B8150C68FA
:10245000DFF8E472396CDFF82C830091D7F800A024
:102460006FF480010CB34FF0FF3900220FF210130C
:1024700024FA02F5ED0714D5DFF88C5505EB820C34
:10248000DCF8005008EB8206F5679E5C0AFA06FE4F
:10249000A5EB0E058D4288BF0025F540A94588BFF4
:1024A000A946521C052AE3D300E08946D8F87820D3
:1024B0004FF47A715143894588BF894640F2F5113E
:1024C000894553D3FEF7C0FBDFF840050168DFF80C
:1024D000B852D1444908490001608168DFF830658D
:1024E000A9F196094160042028602020FFF7EEFE44
:1024F000C6F82490AFF30080012001F0C7F8AFF3D5
:1025000000800120F0600121716530682020FFF714
:10251000DDFE23202860F96B0129FCD1142208F18B
:102520007C01DFF8E40400F093FE0098DFF8D41497
:1025300038640C6001F0ECFE042001F0ACF938685E
:10254000A0EB0A014FF47A70B1FBF0F0FEF7FBFB51
:10255000DFF8B804002181600268DFF8901542F0CE
:10256000050202604160FEF78BFB05E020B1AFF38E
:10257000008030BFAFF300808BF31088BDE8F18F8F
:10258000000002020200000080B5C046C0461022D2
:1025900082F31188BFF34F8FBFF36F8FDFF85005C1
:1025A000DFF850150860012002BD0000D00F0020A8
:1025B00004ED00E040F28000C0F2000000688546B3
:1025C000E2E70120704772B6FEE700002DE9704394
:1025D00005460C46204600F078F8022D36D0012D35
:1025E00006D001F0B7FE162101604FF0FF302EE05B
:1025F000DFF85865A068B169DFF85455884208DAF9
:102600002818A060D4E90023501E63F10009C4E932
:102610000009D4E90001D6E90423D6E90089821A29
:1026200061EB0303A168B06912EB0802B66843EBE3
:102630000903091A7618AE4205DB521C63F1FF3319
:10264000DFF81C058619C4E90023A6600020BDE858
:1026500070832DE97F430D46A968DFF8F4641446C2
:10266000B14228BF4FF0FF302CD26946FFF7AEFFD2
:10267000D5E90023DDE90001DDE90089101A63EBEB
:1026800001014B450ADB01DC424507D3AA68029BE6
:10269000002908BF002803D1934201DB00210FE08D
:1026A000D21A44BFB218401EDFF8BC148A18DFF8F3
:1026B0005052B2FBF5F14FF47A7303FB0011491C41
:1026C0002160002004B0BDE870832DE9FC41804604
:1026D000FFF73AFE05466846FEF7FBFC2846FFF783
:1026E00074FE019D4FF47A76DFF8B4C4B5FBF6F4BE
:1026F000009FDFF8B0040CFB04553246002300FBBA
:102700000755DFF86064B5FBF2F2A01843EB030154
:102710007E430CFB025C0027DFF8E451861905FBC1
:102720000CF04F41C8E90067C8F80800BDE8F38124
:102730000088C340443B0120042102405420024051
:10274000D814002010B500F1080408B1844203D267
:1027500001F000FE162106E02046FFF7DAF828B95E
:1027600001F0F8FD0C210160002010BD0060446004
:10277000083010BD00281CBF50F8080CFFF734B912
:1027800070470000840D0020445402402021024084
:10279000102200F05DBD0CB42DE9F8438146DFF84E
:1027A000D86470680F4600250024D8B9FEF72FFDC5
:1027B000022818BFA04605D1FEF746FA70684FF010
:1027C000010840B90120FDF799FD706000B90124AE
:1027D000B8F1000F01D0FEF753FA1CB101F0BAFDB9
:1027E0000C2114E008A8B90503D545680DB906F118
:1027F0000805B9F1000F07D0B8050AD569680129A5
:10280000A4BFA868012804DA01F0A4FD1621016024
:102810006EE0FEF7FCFC022802D1706800F0E7FBD6
:10282000484600F0D0F8040008D007F42060B0F566
:10283000206F09D101F08EFD112151E0B80503D4BC
:1028400001F088FD02214BE00820FFF762F85FEA03
:10285000000842D024BB2420FFF75BF8040039D0E5
:102860000120E061A968616168682061484601F063
:10287000CFF9401CFFF74DF8206248B3494601F0FC
:1028800073FDA96868680022FDF7FCFCA060D8B160
:1028900000216160306800B144602060346002E073
:1028A000E069401CE061FEF7B2FC022802D17068CA
:1028B00000F07BF9BF1307F00107C8F80040BF0321
:1028C000C8F80470404615E0206A08B1FFF78CF89C
:1028D00000F036F94046FFF787F801F03BFD0C2188
:1028E0000160FEF794FC022802D1706800F05DF9E7
:1028F0004FF0FF30BDE8F2035DF80CFB00D8B805DF
:1029000040420F00F8B506680D467469A24203D232
:1029100001F020FD7A2118E0406841044CBF0027F7
:102920004FF0FF37FFF73BFD28B1B0680022294682
:10293000FDF7FAFE04E0B0683A462946FDF7F6FDD9
:10294000012804D001F006FD0B2100F0D6B9204685
:10295000F2BD70B500F025F806D2FFF720FDE0B912
:1029600001F0F8FC7A2117E0406841044CBF0026D2
:102970004FF0FF36FFF713FD10B100F01BF803E036
:10298000A868002300F012F8012808D0FFF707FD1F
:1029900018B901F0DFFC0B210160FFF7E6B8002059
:1029A00070BD05680C466969914270473246214600
:1029B000FDF7EABCA868002300222146FDF754BDBC
:1029C0004FF0FF3032BD38B50546DFF8AC02046881
:1029D00000E024683CB1206A294601F0D1FC0028BF
:1029E000F7D1204632BD002032BD00004810004023
:1029F00080B5DFF8C813142200F02AFC002002BDC5
:102A000000000000442002404C21024010E000E0A1
:102A100000200040002918BF012901D0162070476E
:102A200001610020704709680A2900D209B91620FF
:102A30007047F1E0416082600020704700002DE99E
:102A4000FE4380460D461646994600270DB9DFF82D
:102A50006C533420FEF75DFF04001AD0286900B1E2
:102A60000120207466610021C4F81890E760A1601D
:102A7000E76121622868A16221636060E1622869E0
:102A800048B903220120FDF7FDFBA06018B900F052
:102A900057F80C2028E0FEF7BAFB012803D00126E6
:102AA000FEF7D2F800E000260194286823463BA1F7
:102AB00000902A890FF211109208FDF741FF0128BA
:102AC00004D120682146FEF7CBF907E0A06808B1E1
:102AD000FDF75BFE00F034F800240C27C8F8004036
:102AE0000EB1FEF7CDF83846BDE8FE83FF76010053
:102AF0008000000008ED00E00446FEF7A5B838B5F8
:102B0000054600F027F80446656200F01CF802E074
:102B1000012100F04FF8A06A0028F9D1204600F00A
:102B20005BF8207C30B9A06800F03FF80020FEF789
:102B30001DF831BD00F004F80020FDF7DCFF31BDC9
:102B40002046FEF751BF694601200FE09840012062
:102B500000CA9A3BDFF87C14C86BFEF78CB9000002
:102B6000003665C4378941003F420F0038B504463E
:102B70000D46FFF7EFFF002C18BF012C01D01620E7
:102B800032BDC1692960C4612CB9006A18B14FF027
:102B9000FF30FFF7B4FF002032BD000078000000D6
:102BA00018FCFFFFC976BEFF6868002300220021E1
:102BB000FDF7EABB024610691368986211B190688C
:102BC000516808477047000080B501468869496927
:102BD0008847BDE8024092E738B5FFF78DFF14E063
:102BE0000168E1620569696809B12A680A602968B3
:102BF00009B16A684A608168096800291EBFC06817
:102C0000002888472846FEF7EFFEE06A0028E7D153
:102C1000BDE83140FEF734B801600020704710B5C0
:102C2000DFF8B41391E81C0080E81C00002010BD00
:102C300080B5C06808B1FDF7A8FD002002BD10B541
:102C4000044609B9DFF8901308680022E260A0602A
:102C5000626049682160A068002816BF0228012030
:102C60000420FDF74BFB20B92046FFF7E1FF0C20C5
:102C700010BDE060002010BDEC1000204FF0FF31CF
:102C80001DE070B50446A0680025012808D1E06861
:102C9000FDF73DFB012801D1002070BD012070BD72
:102CA000FDF7D2FFE068FFF780FF06466560FDF79D
:102CB000E7FF012E18BF40F2D175284670BDF8B568
:102CC00004460F46FFF746FF064660680025A168E8
:102CD000B04208BF022901D12D20F2BD0129E068D0
:102CE000394602D1FDF726FB01E0FDF78AFC0128F9
:102CF00014BF912566602846F2BD01604FF0FF3099
:102D0000F2BDF8B506460F461546022E18BF012E35
:102D100003D001F01FFB162125E0002028603020A1
:102D2000FEF7F7FD04001BD0F86800222346206060
:102D3000B968226104F124006160C4E90222E26101
:102D4000A261027046600FF29510009001224FF0D0
:102D5000FF310020FEF794FB206228B9FFF7F0FE58
:102D600001F0F8FA0C21C8E72C600020F2BD2DE933
:102D7000F04D064606F12002107988B11268954B95
:102D80004FF47A775268186DDFF858820025121ACE
:102D9000B2FBF7F49248A8FB04AB5244504301E065
:102DA000002400258861C1E90445084606F10801B0
:102DB000FFF7EEFC0020BDE8F08D000004110020BC
:102DC000FEB51646B2680F46844904468A4259D277
:102DD000B2698A4256D213B11946FFF7C8FFD6E945
:102DE000040104F12405002908BF00281ED1B069A0
:102DF000E0B9FFF7D4FA40B100200090206A02AB9E
:102E000000220821FEF771FB04E04FF0FF30009034
:102E100000F077F8012802D100202870FEBD0028BC
:102E200050D001F097FA0C22026053E0D6E900017D
:102E3000002908BF002801D1B06870B1304600F009
:102E400066F8012399421DD20190E061D6E90001A4
:102E5000C4E90201B268226119E078070BD56868FD
:102E600001AA06F11001FFF7F4FB019878B9606838
:102E70002168884723E006F1100000F048F801239C
:102E8000994203D301F066FA162122E00190FFF780
:102E900086FA40B100200090019A206A02AB092115
:102EA000FEF723FB08E04FF0FF300090019A206A04
:102EB00000230421FEF719FB012802D1287000200D
:102EC000FEBD18B901F046FA0B2102E001F042FA0A
:102ED0000C2101604FF0FF30FEBD00001CB5FEF775
:102EE00051FC0446E06938B94FF0FF31009100F021
:102EF00008F8002084F8240060682168BDE81C40C0
:102F00000847206A002300220321FEF7EEBAF0B53D
:102F1000D0E900234FF47A768768A6FB0245304655
:102F200080FB070106FB03552C4A002301F054FAED
:102F300020186941F0BD70B5FEF769F92A4D0128E6
:102F400001D1284670BD2348C66B00213046FEF7EC
:102F500039F9040011D12A4600213046FEF72BF939
:102F600001F06DFBFEF7D5FC040008D001F05AFB20
:102F7000224600213046FEF71EF9204670BDFEE7CE
:102F800010B50021FEF71EF90446AFF3008004B12E
:102F90001AE010BD38B505460C20FEF7BAFC040057
:102FA00000D1FEE70120FDF7A9F9A06010B9FFF7F5
:102FB000C7FDFEE70020206060602C6031BD10B5C9
:102FC0000468A068FDF7E1FB2046BDE81040FEF76D
:102FD0000BBD0000840D00200C43012000CA9A3B69
:102FE00040420F0018FCFFFFCC45012068684FF0FD
:102FF000FF31FDF706BBCDE7E1E79CE780B5002098
:10300000009000F0C9F800980028FCD001BD000035
:103010004FF0805047490860BFF34F8FBFF36F8F69
:103020007047000080B500F0B7F843480168491CBC
:103030000160BFF34F8FBFF36F8F01BD3E48016842
:10304000491E01600068002808BF00F0B0B8704752
:1030500010B500F0A1F80446FDF789FE18B14FF055
:103060008050344908602046BDE8104000F09FB809
:10307000806910F8021C02290BD13048016841F424
:10308000700101602E48026842F04042026000F088
:103090005DB8704730B5A0F14404E263294AA263E9
:1030A0004FF00332226363624FF001324FF011336D
:1030B000A26223624FF010324FF00933E261A36144
:1030C0004FF080754FF008324FF00733256462618E
:1030D00023614FF012354FF006324FF00533656330
:1030E000E260A3604FF002354FF004326FF002034C
:1030F000E5626260236040F8481D30BD80B512482B
:10310000016841F47F010160026842F07F42026081
:1031100001F0A0FA00200849086000F031F8FDF73E
:10312000B3FE0020009000F037F800980028FCD093
:10313000002002BD04ED00E01811002088ED00E041
:1031400034EF00E0FD2F000020ED00E0364A11686A
:10315000086806C881F30B88022181F314882030A7
:1031600080F30988BFF36F8F4FF0000080F3118860
:103170001047EFF3148020F0010080F314887047AB
:103180002A480068006880F3088862B661B6BFF319
:103190004F8FBFF36F8F02DFEFF311804FF01001FD
:1031A00081F31188BFF34F8FBFF36F8F704780F3A8
:1031B0001188BFF34F8FBFF36F8F7047EFF3098014
:1031C0001EF0100F08BF20ED108AEFF30B8273463C
:1031D00020E9FC0F144A116808604FF0100080F3DA
:1031E0001188BFF34F8FBFF36F8FFDF74DFE4FF088
:1031F000000080F311880C4A11680868B0E8FC0FE1
:1032000013F0100F08BFB0EC108A82F30B8880F324
:10321000098818471EF0040F0CBFEFF30880EFF386
:103220000980FFF725BF0000C00D002008ED00E079
:1032300062B38B0708D0521E11F8013B00F8013B26
:1032400000F024808B07F6D1830740F0208000BF78
:10325000103A07D330B4B1E83810103AA0E838106B
:10326000F9D230BC530724BFB1E80810A0E8081019
:1032700044BF51F8043B40F8043BD20724BF31F867
:10328000022B20F8022B44BF0B7803707047121FEB
:1032900017D35B0009D151F8043B20F8023B1B0C0B
:1032A000121F20F8023BF6D20BE051F8043B00F865
:1032B000013B1B0A20F8023B1B0C121F00F8013BCC
:1032C000F3D238BF121D521E24BF11F8013B00F883
:1032D000013BF8D87047F0B402461068956813189F
:1032E000506803EB5004C00748BF4D44A3422DD0A3
:1032F00013F8016B16F0030004BF13F8010BC01C98
:1033000031090F2907D113F8011B0F3103E013F81E
:10331000017B05F8017B401EF9D10029E6D013F8A6
:10332000010BC6F38106032E08BF13F8016B00EBF7
:103330000620404228440026B71E8F421EBF10F8C8
:10334000017B05F8017B761CF6D1CFE7F0BC02F1DA
:103350000C007047002201F097B90A1862F30F229F
:1033600062F31F4200B500BF130096469446103921
:1033700028BFA0E80C50FAD85FEA417C28BF0CC0F7
:1033800048BF40F8042BC90728BF20F8022B48BFCC
:1033900000F8012B00BD232A10B50FF249000A499D
:1033A000086001F07BF901F0E6F901F011FD074C2E
:1033B000A168086001F00EFDA168486001F00BFFF4
:1033C000FDF718FC002010BD04140020EC070020BD
:1033D00081B001208DF800009DF800000028FBD18D
:1033E00001B0704781B00B2806D101208DF8000094
:1033F0009DF800000028FBD101B0704738B5DFF818
:103400009C47607A002870D101206072DFF8901725
:103410004868002814BF0122002222726061886877
:1034200000230FF25932A061DFF878070168DFF856
:10343000785741F480110160132104F11C00FEF75C
:1034400047FF0320DFF86417086048F20A026A6049
:103450001320FEF79CFF00230FF23142202104F1DC
:103460007C00FEF735FFDFF84807012101600122EB
:1034700082600120DFF83C170860DFF83C07C26873
:10348000120B1203C260016821F4704141F4004143
:1034900001600120C0464FF4FA71B1FBF0F2002345
:1034A0000FF2BD6104F13800FEF777FE286B40F0A3
:1034B00005002863FEF748FF216941F00201216100
:1034C0006178491C6170FEF780FF4FF4004028606E
:1034D000686004F13800FEF78AFE286D102140F084
:1034E00000402865DFF8D4060160002032BDDFF817
:1034F000AC0600697047C1B210F47F4008BFDFF826
:10350000C00604D0B0F5807F03D1DFF8B806405C78
:103510007047B0F5007F04D1DFF8A8060844007AB0
:10352000704705E0052803D2DFF87016085C704785
:103530006FF001007047DFF86416486918B1097A26
:10354000012908BF0047704738B5002408B11500AD
:1035500002D16FF0020407E08160C260036101469E
:10356000DFF8640600F0E4FD204632BD0146DFF8D6
:10357000580600F0F1BD38B50446FEF7E5FEDFF869
:103580001C160A690123A3401A430A610D5D6D1CD4
:103590000D55FEF71AFF002032BD10B50446FEF7A8
:1035A000D3FEDFF8F8150A5D521E0A55D2B232B9C1
:1035B0000A69012303FA04F422EA04040C61FEF709
:1035C00004FF002010BD70B50446FEF7BDFE0546A1
:1035D0002046FFF790FF0646711CC9B2204600F056
:1035E00073F9F6B2F6B914F47F4006D0B0F5807FD7
:1035F0000AD0B0F5007F0ED014E0012101FA04F4E6
:10360000DFF8C82514600DE0012000FA04F4DFF8AB
:10361000BC154C6006E0012000FA04F40021A0B2C1
:1036200000F064FE2DE070B50446FEF78DFE054601
:103630002046FFF760FF461EF1B2204600F044F935
:10364000F6B2F6B914F47F4006D0B0F5807F0AD008
:10365000B0F5007F0ED014E0012101FA04F4DFF888
:10366000702514600DE0012000FA04F4DFF8601505
:103670004C6006E0012000FA04F40021A0B200F042
:103680003EFE2846FEF7A1FE002070BD38B50120A1
:1036900000F001F920B10121DFF80025917232BD5F
:1036A00000F041FADFF8004560B1DFF80C150A6858
:1036B0000B6800EB123060F30F330B60206B400897
:1036C00040002063E06C20F00040E064EFF31485DC
:1036D000DFF80015A8070BD5002282F314880968CB
:1036E00000208847022080F3148885F3148802E0C4
:1036F000096800208847206BDFF8A05440F00500DF
:103700002063FEF721FE296941F0020129616978F1
:10371000491C6970FEF759FE4FF40040206060605C
:103720000120A872002032BD72B6DFF8AC04016837
:1037300041F001010160FEE780B5DFF8A004DFF889
:10374000A014416402228266012181634FF48062E9
:103750000260FEF7F9FDDFF844140A6942F0020244
:103760000A614A78521C4A70BDE80240FEF72DBE3D
:10377000BDE81040FEF729BE0000000070B5DFF87C
:1037800064643468DFF81454B4603461200425D5CF
:103790004FF40031B16005F13800FEF756FD00220C
:1037A000002105F13800FEF779FDDFF83C04706573
:1037B000A86918B180470020A8610FE0082000F038
:1037C0006AF8FEF7C1FD6978491E6970C9B219B976
:1037D000296921F002012961FEF7F7FD14F00A0FB3
:1037E00025D0B06B40084000B063706D20F0004001
:1037F0007065DFF8C403016821F4704141F40041B1
:103800000160B06B40F00500B063FEF79DFD2969D3
:1038100041F0020129616978491C6970FEF7D5FD04
:103820004FF40040B060F06004F00A00F060200740
:103830000DD5FEF789FDB16D21F00041B165B16D87
:1038400041F00041B165FEF7C0FD0820F060600561
:1038500017D501217166DFF88003026842F0040287
:103860000260102000F017F8FEF76EFD6978491E1F
:103870006970C9B219B9296921F002012961FEF7FD
:10388000A4FDE00600D5FEE770BD0000DFF85C0394
:1038900001688160704738B50546DFF82C0304687D
:1038A00084B1A068284203D12468002CF9D109E032
:1038B0002269E3680021284698470028F4D04FF099
:1038C000FF3032BD002032BDC2B210F47F4008BFCD
:1038D000DFF8EC0204D0B0F5807F03D1DFF8E4021A
:1038E00081547047B0F5007F03D1DFF8D80210444F
:1038F0000172704710B50446DFF8A002C460007C76
:10390000C10609D4FEF720FDDFF8E4120A68920E22
:1039100062F39F640C602BE710BD2DE9FC4B14464D
:103920000746984601947E28A8BF7D2704DA10F147
:10393000280FB8BF6FF02707FEF706FD8146DFF8B6
:10394000B422107D002850D0BDF90660BE4237DA9F
:10395000D2F80CC090685168136807FB0C0C4FF04C
:10396000300E92F910200CFB071CA7F119054BF241
:103970001B7B0CFB073C8EFB0C0101F059FCDFF8B4
:1039800078124D43DFF87422594600EB2550101889
:103990000246C317002000F0FDFCFFF7ABFFBDF8A7
:1039A0000420BDF804000094BA1AC719521C791EED
:1039B000DFF84C3212B209B2404601F043FD14E088
:1039C0004FF48000FFF796FFBDF904003818401E41
:1039D000B04203DBBDF80400C7197E1E2346DFF8A2
:1039E000202231B2404601F009FD4846BDE8F64BC1
:1039F000FEF7EBBC30B4029C7E4D28606960AA6083
:103A0000EB602C7430BC70472DE9F0430546794CCF
:103A1000207D83B00E46002840F07F800121217573
:103A200001F0C0FC01F0D6FC2946ADF80650ADF817
:103A30000460814268DA064601987E2E0290A8BF93
:103A40007D2604DA16F1280FB8BF6FF02706FEF7BF
:103A50007BFC0546207D002850D0BDF90A70B74296
:103A600037DAE368A0686168226806FB03034FF059
:103A7000300CA6F1190803FB06134BF21B7903FB6C
:103A8000062394F910208CFB030101F0D1FBDFF831
:103A900068C10CFB08F8594900EB28500818024689
:103AA000C3170020494600F075FCFFF723FF01987B
:103AB000BDF80820524B0090BDF80800B21A521C05
:103AC0008619711E12B209B204F1180001F0BAFC95
:103AD00014E04FF48000FFF70DFFBDF90800301827
:103AE000401EB84203DBBDF808008619771E019B13
:103AF000434A39B204F1180001F080FC284603B0B3
:103B0000BDE8F043FEF761BC019B04F1180003B06F
:103B10003B4ABDE8F04301F071BC03B0BDE8F0835F
:103B20001E49C868E6E637480268C2F3064102F05B
:103B30007F0249008A4234BF891A0021406B0A295A
:103B4000C0F3033003D2082808D20120704711299E
:103B500028BF042802D34FF0FF3070470020704781
:103B600080B5FEF7F1FB28490A6D02F0F052B2F180
:103B7000206F11D1CA6F22F4704242F40042CA672A
:103B8000224A0A600B6D03F0F053B3F1206FF9D0B5
:103B90000A6822F000420A60E6E500005C1400209A
:103BA00078110300440000405410004010540240BB
:103BB00058200040602002401C1100400058004086
:103BC000D840012008420120904301201400024007
:103BD000200002404C00000F2C0000405810004014
:103BE00080841E804C100040110003804C20004057
:103BF000A4100040F43E01208FC23500E06DDC02CD
:103C00001B390000E8100040A010004012000180A5
:103C100000F10103810704D010F8011B820781B174
:103C2000FAD10268A2F10131914311F0803104BF51
:103C300050F8042FF6E709BAB1FA81F100EBD10090
:103C4000401CC01A7047242A41EA030C50EA4C0C6D
:103C500052EA0C0C4FF4001C09D307D01CEB410FA7
:103C60009CBF1CEB430F8B4208BF824270471CEB8A
:103C7000430FFBD8994208BF90427047C1F30A53E3
:103C800040F21E42D31A0CDDCA0283F3070342EA54
:103C9000505242F00042DA4002EBE17282EAE170F7
:103CA00070476FEAE17203F2E13008B182F0004040
:103CB0007047252A10F0004160B148BF4042B0FA79
:103CC00080F29040D21CC2F5846241EA025202EBBB
:103CD000D02140057047262A841A71EB030604D2CE
:103CE0006E40001BB141121973414FF4001C1CEBD4
:103CF000410F34BF7CEB430683E00C0DA4EB13565D
:103D0000362E00F37C80012E45EAC32341DC43EAD2
:103D1000525312BFD20292025B08240545EAC12128
:103D200041EA5051D2EBC020994125D407D1B0FAD5
:103D300080F610FA06F162D00020203608E0B1FAD1
:103D400081F6B140C6F1200220FA02F21143B040E0
:103D50004FEAF474B4EB465434F001064FEA7404AD
:103D60000AD8D6F50016760D04F00044F04061FA4A
:103D700006F25040F1404840C00A40EA415021F06C
:103D8000004128BF5FEA500550F1000044EBD1210B
:103D900035E0DB0A45EAC121C90AB6F120050EDD8E
:103DA00042EA0242120CC5F1200603FA06F6EB4085
:103DB00042EA06056D42984161F100010DE062FAA8
:103DC00006F5F240554063FA06FC82EA0C02F34025
:103DD0005A406D42904161EB030111F4801F05D1FF
:103DE000641E620502D06D004041494121F48011FA
:103DF000430875F1004350F1000041EB045170BCE1
:103E000070471CEB410F15D223F0004352EA4306E2
:103E10000BD04FEA4C0CBCEB410F04D80C0D661EC6
:103E2000342EB7DDEBE7801A994150EA410608BF0E
:103E30000021E4E708BF1CEB430F28BF6FF000012F
:103E4000DDE7000070B491EA030F4FF000457FF505
:103E500043AF6B40841A71EB030603D2001BB141E0
:103E6000121973414FF4001C1CEB410F34BF7CEB63
:103E7000430442E00C0DA4EB1356352E4FDC45EA0B
:103E8000C323DB0A45EAC121C912B6F120050DDDC5
:103E900063FA05F6EB4086EA0305124218BF45F0C7
:103EA0000105C01851F100010CD213E062FA06F5C9
:103EB000F2405540F3415A40B340F3405A40801815
:103EC000594107D349085FEA30005FEA350528BF4A
:103ED00045F0010501F58011420875F1004250F1ED
:103EE000000041EB04514E0016F5001F70BC38BFB6
:103EF00070470020090D090570471CEB410F10D2D7
:103F000052EA43060BD0BCEB410F05D80C0DAB4376
:103F1000661E342EB6DD02E0AB438018594170BCFA
:103F2000704770BC7047272A30B540F2FF7C1CEA0E
:103F300011541DBF1CEA1355644565453FE06419E3
:103F400081EA030C6FF35F530CF0004C43F48013D1
:103F5000C90241F0004141EA505EC5021100A5FBD3
:103F6000020200284FF00000EEFB01204FF000019C
:103F7000E3FB052118BF42F001024018002149412E
:103F8000E3FB0E01A4F580640D0302D292184041B8
:103F9000494154F1010470DD450872F1004250F1CD
:103FA000000051EB0451A1F5801102D441EA0C014B
:103FB00030BD40F2FF7E4CEA0E51002030BD0CEACD
:103FC0001355644518BF654581EA030C0CF0004C9D
:103FD00041D050EA410E1CBF52EA430E02E0614656
:103FE000002030BD24422C441BD15FEA050EF6D0E0
:103FF000090302BF01460020AEF1140EB1FA81F5AB
:10400000AEEB050401FA05FE0C35C5F1200100FAFE
:1040100005F5C8404EEA000E6FF35F5343F480137A
:104020009CE733F00043B3FA83F504BFB2FA82FE93
:1040300075440B3D641BB5F1200E2FBF02FA0EF341
:10404000AB40C5F1200E22FA0EFE38BF43EA0E0344
:10405000AA40641C7CE750EA410E14BF52EA430EAA
:104060006FF000014FF4001515EB430F8EBF19469A
:1040700015EB410F9DE7B4D830BDD4F10104B4F184
:1040800020050FDAC4F12005520828BF42F00102D2
:1040900010FA05FE01FA05F57244E2BFE04028433C
:1040A000E1400FE0352C9ADCC5F1200452EA4002D1
:1040B00020FA05F218BF42F0010231FA05F0A140E2
:1040C0000A43002172F1004250F1000051EB0C0153
:1040D00030BD282A400D40F21E4C40EAC120BCEB06
:1040E000115C40F0004003D48CF30701C8407047D6
:1040F0006FEAE170704710B50446FEF725F900211C
:1041000061602160BDE81040FEF75FB938B5054633
:10411000FEF71AF92C683CB1216829602168002952
:104120001ABF00224A606960FEF74FF9204632BD8F
:1041300038B504460D46FEF707F90021296062688C
:104140006A606168002914BF0D6025606560FFE743
:10415000BDE83240FEF739B938B504460D46FEF7E2
:10416000F3F829686A6800290CBF62604A606968D0
:104170002A6800290CBF22600A60E9E7FEE70246D0
:104180002DE9F0434E4D28684E4B1C46A04216D0F8
:104190002E681F461120D6F800C006F1040E06F165
:1041A000080947F804CBDEF800800C36401E47F8BB
:1041B000048BD9F800C047F804CBECD12C6043F84D
:1041C0002210BDE8F08340493E4A42F82010704773
:1041D00001F0F001102804D23C4A104400F8041CFD
:1041E00070473B4B034403F8101C70470F2805D160
:1041F0003848016841F002010160704710382328F7
:1042000007D2012200F01F018A40334B400943F8D6
:10421000202070470F2805D12E48016821F00201A7
:10422000016070471038232807D2012200F01F01D7
:104230008A402A4B400943F820207047A0F1100122
:10424000232908D2012201F01F008240244B490992
:1042500043F8212014E0022804D12248016841F0EB
:1042600000410CE00E2804D11E48016841F0805145
:1042700005E00F2804D11B48016841F0806101600E
:10428000BFF36F8F70470E2804D11648016841F0C4
:10429000006105E00F2805D11248016841F0007166
:1042A000016070471038232807D2012200F01F0157
:1042B0008A400D4B400943F8202070470000000061
:1042C00008ED00E0004501207D41000018ED00E010
:1042D00000E400E010E000E000E100E080E100E048
:1042E00000E200E004ED00E080E200E0022905DAEF
:1042F000154A32F81130184322F8110008E002295B
:1043000006DA114A32F8113023EA000022F81100CF
:104310000E4802680C490B8849881943920707D553
:104320004A0852000A4B1A6069B90221416170477C
:104330000A0008D00222826003689A07FCD5490867
:104340004900034801607047044401200C0002400A
:104350000400084080B5FEF750FE0249084402BD43
:1043600000000000000000005FEA000C11F8012BC3
:1043700000F8012B12B111F8012BF9E760467047E4
:1043800010F8012B11F8013B0AB19A42F8D0D01A6B
:104390007047292A13F0004C03D55B42524263F167
:1043A00000039CEA210C00F0178010B5644603D38B
:1043B0004942404261F1000100F00EF8640004D36C
:1043C0004942404261F10001244203D55B4252421E
:1043D00063F1000310BD0000BBBBE1B1B2F5803F4B
:1043E00080F07E80022A1ED98C46B1FBF2F102FBDE
:1043F00011C31B0443EA1043B3FBF2FC02FB1C3362
:1044000080B240EA0343B3FBF2F002FB103240EA11
:104410000C4000237047022A05D98446B0FBF2F015
:1044200002FB10C270474AB105D100F001024908F1
:104430005FEA3000704700220023704701F044B863
:104440000B000200002100207047904271EB030C2A
:10445000F6D3B3F5803F2FD2F0B5B3FA83F7B1FAB4
:1044600081F4A7F10F0E3D1B5340CEF1200602FA56
:104470000EF2F3415340B5F10F0746D80F3C2C44E0
:104480004140C4F12006A040F1414140B1FBF3F6A8
:1044900003FB1611A2FB0645001BA94102D2761EA2
:1044A0008018594180EA010221FA0EF362FA0EF2F5
:1044B00000215A403046F0BD30B4B1FBF3FC03FBA1
:1044C0001C11A2FB0C45001BA94103D2ACF1010C4D
:1044D0008018594130BC02460B46604600217047A7
:1044E000B2F1807F65D3F0B5B2FA82F7B1FA81F408
:1044F000C7F10F063D1B22FA06F307F1110EF24138
:1045000020355A40B5F10F07B8D94140C4F1200613
:10451000A040F1414140B1FBF3FC03FB1C11A2FBA5
:104520000C45001BA94103D2BCF1010C8018594174
:104530000F2F12D30F3FC90341EA5041B1FBF3F6ED
:1045400003FB1611A2FB0645D4EBC030A94102D2F1
:10455000761E8018594146EACC3C07B34140C7F16A
:104560002006B840F1414140B1FBF3F603FB1611C0
:10457000A2FB0645001BA94102D2761E80185941B4
:1045800080EA010221FA0EF3C7F1200462FA0EF26A
:104590000CFA07F05A402CFA04F13043F0BD80EADF
:1045A000010221FA0EF3002162FA0EF260465A402F
:1045B000F0BD8C46B1FBF2F102FB11C31B0243EAD2
:1045C0001063B3FBF2FC02FB1C331B024CEA00201D
:1045D00043EA1063B3FBF2FC02FB1C331B024CEA00
:1045E000002043EA1063B3FBF2FC02FB1C331B0206
:1045F0004CEA002043EA1063B3FBF2FC02FB1C32DE
:104600004CEA00200023704738B50E4D0E49044691
:104610002A46FEF70DFE0D49491B6019BDE83440DE
:10462000FEF798BE80B5FFF7EFFFAFF3008001BD46
:1046300010B504460648FFF7E7FF204610BD0348C3
:1046400070470000000000000000000004000000AF
:10465000CC45012008480949AE225E230160426032
:10466000836007480021016000228260054B43609F
:1046700007210160704700BF184301200077010047
:1046800010E000E0FF7601004018491C1CBFB1F1AA
:10469000010100F8012DF9D170472A2A014908606B
:1046A00070470000980500207047502A38B504462E
:1046B00000F036F8002500F01EF8C5F1070024FAD6
:1046C00000F101F00101052000F0B1FF012100F02F
:1046D00013F8102001F000F86D1CE8B20828EADB9E
:1046E00000F009F8012100F01CF83C4A116828206C
:1046F000BDE8344008470021032000F098BF80B592
:1047000000F035F800F00CF8022000F0E5FF012180
:1047100000F007F8314A11682320BDE8044008473B
:104720000021132000F083BF10B5FFF7E8FF00F071
:104730001EF82B4C2146032000F057FF2146052090
:1047400000F053FF2749042000F04FFFB920FFF786
:10475000ADFF132000F0CFFF032000F0CCFF0520B9
:1047600000F0C9FF0420BDE8104000F0C4BF1E499E
:10477000132000F03ABFE0B51C48016840F6610222
:10478000090B42EA013101604168090B42EA01323A
:104790004260FEF733FEFEF7CFFF1548016840F296
:1047A000A313144A41F00101016000201621019079
:1047B000009111491148FFF71DF902216FF03100F6
:1047C000FFF722F900F0AAFE00F0B0FF00F0F3FFBF
:1047D000FFF7AAFFBDE8074001F0EAB89400000F18
:1047E0000004002002200460010400201811004091
:1047F000140000403F74FFFFF60BE4FF41F1A303F8
:1048000080B5FDF7A1FDADF80200FDF760FAADF847
:104810000000009802BDFDF711BC01B5BDF8000015
:10482000FDF767FABDF80200BDE80240FDF7CDBD17
:1048300070B500F026FA0022DFF8E8580C2656433F
:10484000A95949B18C4203D0521C032AF6D303E084
:10485000FFF7E3FFA81970BD20E070B50646FFF72B
:10486000CFFF044600210C224A43DFF8B808851820
:10487000286828B186420BD0491C0329F3D30CE0E9
:104880002E60A860FDF726F9686008B901F091F87C
:104890002046FFF7C2FF284670BD2046FFF7BDFF48
:1048A000002070BD38B500F0ECF90025DFF878285D
:1048B0002901515A39B18C4203D06D1C062DF7D312
:1048C00001E000F083BB00F085BB10B504462088F2
:1048D000FFF7E8FFFF2802D14FF0FF3010BDDFF8EF
:1048E000481801EB0010816811B96FF0010010BD8C
:1048F0002046BDE81040084770B504684568FFF7DA
:104900007FFF0646FFF787FFFFF7A7FF08B901F013
:1049100050F83046FFF781FF29460FF65000A047B8
:1049200070BD10B50020DFF8FC17002300240C2216
:1049300042438B500A44401C94600328F7D3002064
:10494000DFF8E41700220301401CCA520628FAD3FC
:1049500010BD1CB508210820DFF8D047FDF7E6F8A8
:10496000A06120B913BD8847019800F0A1F9A069A2
:104970004FF0FF326946FDF7DFF80028F7D10198C4
:1049800000990028EFD18847F1E710B5DFF89C4780
:10499000201DFDF735FB0221E1604FF480600FF22E
:1049A000B07120616160211DDFF88407FDF72CFBE9
:1049B000206008B900F0FFF9002010BD7CB50D465D
:1049C000002116464FF0FF34009001914DB13000A8
:1049D00007D000F03DF9019088B132462946FEF734
:1049E00027FCDFF84807806928B100226946FDF7F7
:1049F000C3F8040003D0019808B100F059F920462B
:104A000076BD2DE9F843044688460026DFF8249752
:104A10000FF24C75DFF8207719E03846FDF7F0FA11
:104A200004EB06104168B9608268FA600168796138
:104A3000C06807F11401B86179603D6039464846A5
:104A4000FDF7E2FAF86108B900F0B5F9761C4645C1
:104A5000E3D3BDE8F183F8B568460521416040F233
:104A6000DC528260DFF8D4160091DFF8D426C260F1
:104A70000121FFF7C6FFFFF788FF05B000BD80B535
:104A8000FDF7DCFADFF8B016CA69904201D00120C8
:104A900002BD002002BD38B505460C46FFF7B0FE4A
:104AA000002144F80C1C2A6812B92C6006E00A4662
:104AB00052F80C1C0029FAD142F80C4CDEE0062812
:104AC00009DADFF864260001105A00281CBF4FF6EF
:104AD000F872904202D14FF0FF30704708800020FA
:104AE000704738B505460C4600F072F902464FF49F
:104AF0007A70A0FB05010023FFF76EFC002902D8A5
:104B0000B0F1004F02D36FF0020032BD20600020F0
:104B100032BD0146886849680847F8B505460E4623
:104B2000FFF779FEFFF799FE04001AD0FFF768FE41
:104B300001460022DFF8F03517013B44188818B110
:104B4000521C062AF6D30CE04FF6F87000271880A6
:104B50005C609F602A706068306000F01FFA00207F
:104B6000F2BD00F026FF00BF0C387EE070B50446B1
:104B700015461E460846FFF795FE0146FF2902D15D
:104B80004FF0FF3070BD33462A462046BDE87040E6
:104B9000A5E038B50546FFF73EFEFFF749FE0400E5
:104BA00002D16FF0040032BD65B900200090009B77
:104BB000606800224FF48031FCF78EFF401E804178
:104BC000C00F32BD15F1010F08BF4FF0FF30EDD01F
:104BD00069462846FFF785FF0028E8D032BD80B53A
:104BE0004FF48031FCF78FFF002002BD2DE9F84320
:104BF00005460F4616469946FFF70DFEFFF72DFEB8
:104C000004006FF0020802D14046BDE8F283FFF7CE
:104C1000F7FD01460022DFF8100500EB02131888AB
:104C200028B185420ED0521C062AF4D30DE01D8017
:104C30005C609F6032706068C9F8000000F0AEF9F7
:104C40000020E2E700F0AAF9DEE700F0B2FE00BFC4
:104C500038B500F016F805462046FDF773FD04460A
:104C60002846FFF7DAFD204632BD38B500F009F8D6
:104C7000054614B12046FDF77DFD2846BDE83240CB
:104C8000CBE50446BCE530B587B0FFF7FAFF054633
:104C90006846FCF7EFFE2846FFF7BFFD00984FF48B
:104CA0008031606021600198A06007B030BDCFE71F
:104CB000DBE71FB50446684600F010F800F008F87E
:104CC00003D32046FFF7C4FF00E0002004B010BD6E
:104CD000019840F2E931001B88427047D3E72DE983
:104CE000F8430E4691461C466FF00208062EBCBFE4
:104CF0000546062809DAFFF783FDDFF82C2402EBCE
:104D00000617796819B9FFF788FD404625E0FFF7D7
:104D100084FDA4F108000570467080F80290388880
:104D20004FF6F87188420CD1FA68AAB121460020EA
:104D30009047002C18BF00280ED02046FFF714FF24
:104D40000AE0786821460830FFF7A5FE78684FF43E
:104D500080314068FCF7D7FE0020BDE8F2832DE9E2
:104D6000F04106460F469046FFF755FDFFF760FD00
:104D7000040008BF6FF004001BD0FFF741FDA168DD
:104D8000002541B10D46A5F10C010A680023A2607F
:104D9000FF240B608C72FFF740FD0DB9022008E084
:104DA000A5F10C000179317040793870C8F80050D5
:104DB0000020BDE8F08182B001208DF800009DF850
:104DC00000000028FBD100F0F4FD00BFFDF77ABA27
:104DD000FDF776BA80B5FDF773FA6FF00041A1FBDD
:104DE00000014FF47A720023FFF7F6FA002902D887
:104DF000B0F1004F01D36FF0004002BD7CB50C460E
:104E000015461E466946FFF76CFE30B900983346DA
:104E10002A46214600F002F8002076BD2DE9FE4327
:104E20001D462C6880460E4617460CBB0C20FFF72B
:104E30000FFF04006FF0030914D06846FDF703F973
:104E400000208DF80000019002946A464146DFF888
:104E5000F402FDF7C0F9206030B9FFF7ACFF20463F
:104E6000FFF703FF48460FE06660A7602C6003E091
:104E70002068FDF7EAF9A760206841468160C046D6
:104E80002068FDF7B4F90020BDE8FE8300281CBFB0
:104E90000068FDF7DAB970472DE9F84384B004469D
:104EA000884616461F46FFF7B6FCFFF7C1FC0546CD
:104EB0000020029015B96FF004006CE03CB901903D
:104EC000FFF784FFDDF804900124814425E014F10C
:104ED000010F08BF4FF0FF30F1D001A92046FFF7C6
:104EE00000FE0028ECD056E0039902A8FFF7D3FD9E
:104EF00068684FF48051FCF706FE0198012410F118
:104F0000010F18BF002808D0FFF760FFB9EB0000C1
:104F10002ED0019981422BD30190019B6868002219
:104F20004FF48051FCF7D8FD10B303AA69460DF188
:104F30000100FFF714FF0400DFD19DF801000DF11F
:104F40000201FFF7BCFD0028CED1039A9DF80010A6
:104F5000BDF80200C0470028C6D016B1BDF8020057
:104F6000308017B19DF8000038700C9803990160EB
:104F7000029EFFF745FC014656B1324600E002466C
:104F800052F80C0C0028FAD1A86842F80C0CAE605C
:104F900000F004F8204605B0BDE8F0830846FFF7AE
:104FA0003CBC38B5FFF737FCFFF76BFE00255E4AC7
:104FB0002B01D15A49B1D11849680B68A34203D0DB
:104FC0006D1C062DF4D300E000E003E0FFF725FCA4
:104FD000E8B232BDFFF721FCFF2032BD3EB50546E9
:104FE0000C46FFF74CFD70B10021ADF80210564A97
:104FF0001168ADF800508DF806406846884710B932
:105000009DF807003EBDFF203EBD1078422801D12B
:10501000012070470020704718B587B01422002384
:10502000FF24ADF8102002938DF8124006900591F0
:10503000FFF7B7FF05AB03221021FFF797FD002014
:1050400001A90190009100230022404941F28830DB
:10505000FFF722FF012805D020B9019820B1FFF702
:1050600083FD01E0FFF7A7FE0598006808B010BDBA
:105070000EB400B501A9FFF7CFFF5DF810FB0CB42B
:1050800038B504460D46FCF7D9FF2B49CA69904252
:1050900008BF002005D004A92046FFF7BDFF286007
:1050A000012032BC5DF80CFB2DE9F8430D46164695
:1050B00099466FF00208062DBCBF0446062808DAA0
:1050C000FFF79EFB184A02EB0517796819B9FFF73D
:1050D000A4FB404612E0FFF7A0FBA9F10800047012
:1050E00045708670786849460830FFF7D4FC7868C8
:1050F0004FF480514068FCF706FD0020BDE8F283C4
:105100003EB504460D4601A96846FFF706FD9DF829
:105110000010054A21709DF8003002EB0311CD60AC
:105120003EBD0000F83F0120103C01205841012005
:1051300053490000F94800001C400120E507030026
:10514000EC070020134B0000DC0700200B50000090
:105150004963616C6C5F576F726B65720000000091
:10516000424C455F537461636B000000CB48000004
:10517000014800001B4800007047000010B50446BD
:1051800000F0B8FCA01D00F083FD034618A200212A
:10519000012000F0BFFE1348817E02290BDB0020B6
:1051A00001F020F800F074FD4FEA000318A200217E
:1051B000022000F0AFFE01F097F801F0F5F801F0E1
:1051C00057F901F0BDF901F084FA01F00FFBBDE8D9
:1051D000104001F034BB034A02F1200302490348A6
:1051E00001F034BB080500207D510000795100001A
:1051F000424C4520494420416464726573733A20EF
:105200001B5B316D1B5B33326D25731B5B306D0097
:10521000424C4520525020416464726573733A20B9
:105220001B5B316D1B5B33326D25731B5B306D0077
:10523000D2B2203A22BF41FA02F0C9177047203299
:10524000D141D04048409140D14048409140114127
:105250007047F0FF8D4B8E4903FB00110129ACBF55
:1052600001F50011A1F500114A1501EB9221894ABF
:10527000894B891501F3080102EA012287490A6076
:1052800058807047814B864903FB00110129ACBF50
:1052900001F50011A1F500114A1501EB92217D4A9B
:1052A0007D4B891501F3080102EA01227D490A605C
:1052B0001880704770B5FDF747F80646FF246FF079
:1052C000FF05794809E0B0F90C108C42C8BF0C46C4
:1052D000B0F90E108D42B8BF0D4600680028F2D11B
:1052E0002946204600F005F83046BDE87040FDF73D
:1052F0006CB838B5684DB5F900200C46904206DA16
:10530000FFF7C0FF6948016841F004010160B5F989
:105310000200A04207DA2046FFF79CFF63480168BD
:1053200041F00801016031BD2DE9F041FF20FFF798
:10533000A9FF5E4C20685C4D20F0040020606FF0F7
:10534000FF00FFF787FF206820F0080020602C682E
:1053500000F040F8064607E0B4F90C800CE0B4F920
:105360000C108E4206DA3C469CB1B4F90E802768D8
:10537000B045F4DBB045EFDB21462846FEF7ECFEF6
:105380002346226900202075A46841463046A04784
:10539000E9E7FFF78FFF4548416801F00C014160E4
:1053A000BDE8F08138B5FCF7CFFF0446404D2878C2
:1053B00058B901F078FB3F490C2001F0A2FB3E48B0
:1053C0000168CA07FCD5012028702046BDE832409C
:1053D000FCF7FBBF39480168394A3A488909490551
:1053E000491502FB01000128ACBF00F50010A0F533
:1053F0000010411500EB9120801570472DE9F04118
:1054000004460E4617461D46FCF79EFF80466FF089
:10541000FF00A681E081FFE7A7602561207D28B914
:1054200021462148FEF784FE01202075B4F90E10B4
:10543000B4F90C00FFF75DFF4046FCF7C6FF002003
:10544000BDE8F0812DE9F84304460E46174698461C
:10545000089DFCF779FFA681E781C4F808808146A2
:105460002561207D28B921460F48FEF761FE012005
:105470002075B4F90E10B4F90C00FFF73AFF484656
:10548000FCF7A3FF0020BDE8F28300003C553D007F
:105490007A55ECFF00FF0100A21A00205C6000407A
:1054A0006AAAE10058600040A04301204860004023
:1054B0004E44012029530000346000403060004019
:1054C0001CB21000778594FF7047F1FFFF2804D0CD
:1054D000012101FA00F0714A10607047FF2805D0E1
:1054E000012101FA00F06C4908608860704770B5CE
:1054F0006B4804686B4D012604610CE0B4FA84F03B
:10550000C0F11F0006FA00F18C43696851F82010C1
:1055100009B1C0B28847002CF0D170BD2DE9F84127
:1055200083B0FCF711FF604F39780024002511B1DA
:10553000FCF74BFF52E001213970FCF746FF0020D9
:10554000FEF741F859480168DFF8588141F48011AD
:1055500001606846FCF72EFFD8F80C006B46544AF1
:1055600001901521381DFCF7B3FE524852490078CE
:10557000097881422ED38200504BD8F80070BF5872
:10558000002F23D45FEA877E06D55FEA477C15D5D6
:1055900001268640354311E04FF0010E0EFA00FE61
:1055A0004EEA040484465FFA8CFEBEF1FF0F05D07C
:1055B00053FA8CFC07F001068CF80060FF0802F13A
:1055C000804EFF000EF5445ECEF80070401C121DA8
:1055D0008142D2D23A4804603A490D6004B0BDE835
:1055E000F0813949081800787047002227E070B52B
:1055F00004460D46FF2819D0344E06EB8006FCF712
:10560000A3FE31782A0C02F0030201F0FC011143E1
:105610003170FCF7DAFE680703D52046BDE870401C
:105620005CE7012000FA04F41C490C6070BDFF28FF
:1056300004D0224A01F00101101801707047F0B443
:10564000002926D4FF2808BF4FF0FF3022D04E0893
:1056500006F00106012304461D4D86F0010603FAFB
:1056600000F005EB8405330006D0144B01F0010770
:105670001C192770174C2060074B4C0746BF186059
:1056800098601861C90842EAC10129600EB9114940
:1056900008610020F0BC7047643002407430024062
:1056A00054300240A4100300F840012040000040A4
:1056B000EF54000027D50100260C02000031024003
:1056C00000350240443002400036024002310040C2
:1056D00000310040103502400138FDD1704770475D
:1056E000FF281FBF104A526852F820308B4218BF63
:1056F00042F82010704770B50446FF2811D0FFF71C
:10570000E5FE094E3068254650F825102046FFF783
:105710006CFF00212046FFF7E3FFB168002041F84D
:10572000250070BD00000000A410030038B5194C1E
:105730002078C8B90125257000230FF23102042119
:10574000201DFDF701FF1120FDF73DFF1248FF214D
:1057500081620122826411490B684360026011205A
:10576000BDE83240FDF75FBF31BD000080B50428C1
:105770000ED11120FDF727FF0748FF21816201228A
:10578000826406490B68436002601120FDF74BFFFD
:10579000002002BDD841012004400C40301203001B
:1057A000F0B47F4991E83C007E4E80E83C003778B9
:1057B0000770F0BC704710B57B4C207818B901F029
:1057C0005AFA01202070002010BD70B504460D4625
:1057D0002668FCF7B9FD317819B1FCF7F6FD002415
:1057E00013E094B101213170FCF7EFFD01F0E4FA10
:1057F00008B1002070BD15B96948C06804E0297877
:10580000E868012908BF00247060204670BD38B5E3
:1058100004460846114601F0F1FD62480078224630
:1058200000214FF0FF3501F05EFB38B901F099FB24
:1058300020B901F0C5FBC0B200B90025284632BD31
:105840002DE9F04F89B0002818BF002902D0B2F529
:10585000801F02D36FF0020480E00AB900207EE0CE
:10586000D41D022704F00704D51DA740ED088A4681
:105870007F1EDDF848908046039102928DF800303B
:10588000D8F8000001A900220A60B5F1011F0BD36E
:105890006FF002049DF80000002843D19AF8001030
:1058A00039408AF8001044E04068414601F0E8FAC7
:1058B00010B96FF00104EDE70120FDF75CFE042D47
:1058C00002D201A9042606E0514615F0030F0EBFCF
:1058D0002E46AE08B60032464046FFF798FF040059
:1058E00013D1042D05D22A4601A95046FDF7A0FC8C
:1058F0000BE015F0030F08D0B346AE1B324601A9EA
:105900004046FFF784FF040005D001F0DDFA0120D6
:10591000FDF743FEBEE75FFA8BFB324601A90AEBB7
:105920000B00E3E70AEB050010F8011C394000F812
:10593000011CB9F1000F11D0029803999DF80020C5
:105940000590139804918DF81820079014980890EA
:1059500004A8C847002C08BF002891D0204609B0F1
:10596000BDE8F08F18B583B019B18A680F4B9A4221
:1059700003D36FF0020004B010BD0B78042B1CBFE2
:10598000242B6FF01F0008D100240294019400948E
:1059900049680123D200FFF753FF04B010BD000097
:1059A00004110300601203004A44012001000200B8
:1059B0007047012001F038BD54A000F01BBA000070
:1059C0002DE9F0474448FFF753FBC4B234B9434ACA
:1059D00000210020BDE8F04700F09CBA00F071FE05
:1059E000804600263BA70FF24D05DFF8F49018E043
:1059F0000A2070434044801C00F04AF9C6EB0611AF
:105A00000F2209EB010A01460AF10C00FDF710FC18
:105A10000C2070430AF10C01761C4844016045607B
:105A20008760A642E4DB214644A0BDE8F04700F0D1
:105A3000E8B9000080B500F046FE2A49088100F070
:105A4000C9F900BF34A0BDE8024000F0D3B900009E
:105A500034A000F0CFB90000E0B500BF3AA1D1E911
:105A600000232049CDE900230A89ADF80020085C15
:105A70008DF803008DF80400684600F097FF034698
:105A8000194A00F016F800F0A5F907BD7FB500BF70
:105A90002FA191E81C00134E3589684680E81C0050
:105AA000ADF8005000F08FFF0346104A00F001F8F7
:105AB0007FBD0021002000F02DBA80B5094908897A
:105AC00000F06CFF03460A4AFFF7F3FFBDE8014010
:105AD00000F080B90000000079AE00004809030022
