:2000000000900020452900007F29000037270000B3280000B3280000B3280000B328000050
:20002000B3280000B3280000B3280000B3280000B3280000B3280000B3280000B3280000E8
:20004000B3280000B3280000B3280000B3280000B3280000B3280000B3280000B3280000C8
:20006000B3280000B3280000B3280000B3280000B3280000B3280000B3280000B3280000A8
:0C008000B3280000B3280000B3280000E3
:20008C00F0B58BB00446016CC26A02F0F2F9E16F4A1C904201D9352591E1002813D0206CEF
:2000AC008A0087180837891C384602F072FCA168384602F0CDFB002807D0E66F711C88425D
:2000CC0005D9C6257BE1532579E16C2577E123786625022B00D272E1052B00D96FE10890CB
:2000EC00216C0A68981E4342434101252A405A4080200A9022500898E06720463A460B4642
:20010C0001F07CFF20784000001F294681400A982150216C20460A4602F0FCF9E667E16C69
:20012C0020460A952A4602F09EFB626EA06EE16CA36FE56F0095A34DA847A26EE06E02F05E
:20014C0093FCA06EE26E02F08FFC216F226B204602F08FF9E56FA84201D93C252FE100287B
:20016C000ED0606CE26E216F02F0BAFC216F626B204602F07EF9E56FA84203D965251EE172
:20018C00C3251CE1074600280ED0A06C216FA26E02F0A6FCE16EE268204602F06AF9E56F33
:2001AC00AF4203D95C250AE1562508E126468036A26EE16E206F02F093FCE26C206D216F9A
:2001CC00A36FE56F009500F0A9FAE06F421C09963260656D0026277802F01EFC09DA616C54
:2001EC00284602F0B1FB0998026890002D18761CF1E7A56D002602F00FFC06DAA16C28460D
:20020C0002F0A2FB02F0BEFBF5E7E56D002602F003FC06DAE16C284602F096FB02F0B2FB96
:20022C00F5E7216C08688007C20F089840010290401C0190002507952B460A9E02988642E5
:20024C00E8B26AD80490069308920198801BB84200D33846099A10602046324602F0B0F8E5
:20026C004119C8B27B1E01252A469A409042059500DA00252B46BB4090420A9600DB4842E7
:20028C001818089A5049895C9600504A9219079F7B00D218525D920051180006800D001FC0
:2002AC0004229043081809990860204600F09EF86800474989190918049A895C03914549C3
:2002CC0089190818C75D079720780490811E42488019405C0A9E36181420089A50433F4A1C
:2002EC001218052041435118069D4D5D216C720992008A581F233340DA40059B1A40039F82
:20030C007A4042430A20089B5843354B18188018425D2B463D46049F90E7012810D107988C
:20032C008000C01C099E30602E4D2046A847012030602046A847022030602046A8472778A2
:20034C009925032F3BD30020C0430890B91E01200A908840FE30099EC7B20A983060002FCF
:20036C0011D07A1C2046394600F0D6FF0A9830602078801E08998140C94320463A4600F0A4
:20038C00CBFF781EE8E72078801E089F39468140CA43002107912046134B98470A9830606A
:2003AC002078801E8740FA432046079F39460E4B98470A9A3260204639460B4B9847284676
:2003CC000BB0F0BD29070000142E0000942D0000642D0000AC2D00007C2D0000102B000028
:2003EC00E32B0000F903000025130000F0B589B0044680202158C8080D460391E26F511CF9
:20040C004143E06DC9B28F00C019616F636C06AE0BC6A807060F05A88159206EA36F00927B
:20042C00BB4D0A46A847606E02F00AFB05A88059A16CA36FE26F0092B64D0A46A847E06E8C
:20044C00216FA26C636E06920791089305A98959E26DD2190497236EE56C06920793089540
:20046C0005AA02F006FBAA4DA847606EE16EE26C06AB07C305A88059E26F521C02F064FA6D
:20048C00E06E216F06900791089005A88059216E02F0C7FA9F4DA847206FA16E069007903E
:2004AC00089105A88059A16DC919226E636E06AD0EC505A98959A26CE36C656F0693079544
:2004CC00089205AA02F0D5FA914DA847606F216E06900791089005A88059A16E02F0A1FAF3
:2004EC008C4DA847234660330ECB06930791089205A88759E56C606F06910795089005A962
:20050C00895906920790089305A88259A36FE06F009038467E4DA847226E606E616F06AB93
:20052C0007C305A88559E16EA36FE06F00902846784FB847216E226DA36FE06F0090284669
:20054C00B847E06C616E226E06AB07C305A88159E06E626FA36E06AD0DC505A8805902F0B6
:20056C0060FA6B4DA847616EA06D049FC219E56E06A826C005A988590290216F226E636F1A
:20058C0006910792089305A98959E26DD219636C06950792089305AA02F06BFA5C4DA8477E
:2005AC00606EE16DC919E26E06AB07C305A88059E16F4A1C029902F0C7F9206D02F040FA24
:2005CC0005A88159206F226E06900792089005A8805902F026FA4F4DA847606E616FA26ED1
:2005EC0006AB07C305A88059216EE36E06920791089305A98A59A36FE16F0091464D0146E5
:20060C00A847226F216E206D06920791089005A88059636E06AD0EC505A98959636CA76E19
:20062C0006930797089205AA02F000FA384DA847616F606D049D4019626C069107900892A1
:20064C0005A88059A26E06920791089205A98959E26E236F06920793089205AA02F0E6F970
:20066C002D4FB847606F02F0EBF905A88059626C636D5B1906920793089205AA02F0D6F97A
:20068C00254FB847616FA06EE26E06910790089205A88059636D5B1906930792089105A9A2
:2006AC008959636E276E06920793089705AA02F0BDF9174FB847616FA06D4019A26C06917E
:2006CC000790089205A880590490A26E042303980340E76E606E069707901B1D05ADED5828
:2006EC0006910792089505A98959226F256E0690079705A8C05806920795089005A8825920
:20070C00A36FE06F00900498034CA04709B0F0BD29070000CD08000055090000F8B444460B
:20072C004D4656465F46F0B400B501B40B9B5B005B1C6C469B00E31A9D4610B46C46241D6F
:20074C0000266D46009CE36A2D1D9B00EE505B00EE50E36A013B9B0098465B0099460023B0
:20076C0000240025002702E0370040463F1A9A46A346AC46B646F01B1458C859030C80B275
:20078C00250CA4B21E006E436343454360431C041B0C00195E412C042D0C00196E4153465D
:2007AC005C4665461B1874410020454176460437474501DCB742DADD6846001D835123463A
:2007CC002C46002504364645CCDD4E45CCDD8351009B9969083102464E4604361068009BF9
:2007EC009C6924684443A14600270023002400259A46A346AC46B6464C46C859030C80B2B0
:20080C00250CA4B21E006E436343454360431C041B0C00195E412C042D0C00196E415346DC
:20082C005C4665461B18744100204541D0591B18002044414541002F02D0043FD3510437A7
:20084C000437764623462C4600254745D0DD301D8742EBDD043FD351043E464500DDBDE7C9
:20086C0010BC2068E36A9B46024691466846012720C840C97F08B5417F4120C2013BF7D1E1
:20088C0005682F430126F741FF17FE4368463840494631400843494639406D4635402943AA
:2008AC005B4604C904C0013BFBD1A54603BC8E46F0BCA046A946B246BB46F8BC7047C04689
:2008CC00F0B444464D46564670B48146079CA246002720C940CA7F0875417F4120C0013C05
:2008EC00F7D1B8464846083354466A46A400141BA54604B46A46121D5446012720C840CB09
:20090C007F08B5417F4120C2013CF7D1424617430126F741FF17FE4348466946091D0D4659
:20092C00384031400843494631403D402943544604C904C0013CFBD101BC854670BCA046C0
:20094C00A946B246F0BC7047F0B444464D46564670B48146079CA246012720C940CA7F08CC
:20096C00B5417F4120C0013CF7D1B8464846083354466A46A400141BA54604B46A46121D6A
:20098C005446002720C840CB7F0875417F4120C2013CF7D147460126F741FF17FE434846E2
:2009AC006946091D0D463040394008434946394035402943544604C904C0013CFBD101BCF5
:2009CC00854670BCA046A946B246F0BC7047C046F0B444464D4630B4884699466C469B003F
:2009EC00E31A9D4610B46C46241D4B460832012720C940CA7F08B5417F4120C4013BF7D149
:200A0C006A46121D0125EF41FF17FD43414629403A4011434B4610C910C0013BFBD101BC82
:200A2C00854630BCA046A946F0BC7047F0B591B01D46174610910446866A8168304601F0EA
:200A4C0045FEE067002804D00246FF2803D928201DE16C201BE1307AC00701D1822016E10F
:200A6C00501C8300F058002837D0099717980E90D000089037180B970837F8180A9031465E
:200A8C00061D0C93F018001D0F902046079100F0B1FF2046394601F01FF8A36FE06F009048
:200AAC00304639463A46FFF70BFFE06F40018021605020460F990D9632460E463B4601F0E5
:200ACC00C9F901F0C7FF204631460E9A01F0D1FCE16F884203D92220D9E02320D7E000283B
:200AEC002ED00C9830180E903A46069727468037A36F00910D983146FFF710FE2078801E28
:200B0C000321059181400C310497396020460D9F394600F00FFB01F09DFFA36FE06F0090D4
:200B2C00304639460E9F069AFFF7F8FD204639462A4601F09EFCE16F884203D92720A6E0D9
:200B4C002120A4E0002824D03246169803900C983E18A36F0091069D28463946FFF7DEFDF1
:200B6C0001F0AAFF01F0FEFEE36F0B9DAB600C35A26F284602963146039EFFF729FF2046E9
:200B8C003946324601F075FCE16F884203D911207DE072207BE0002878D00B95029E0C9A29
:200BAC00B018801880180C90A36F00910D9D284639460F9AFFF7B2FD01F07EFF01F0D2FEDE
:200BCC00E36F0A9F7B600837A26F38463146FFF7FFFE6069A1690C9AA262069AE2620F9DEE
:200BEC0020636163204600F093FD99284FD101F078FE41180C31284601F0A6FE01F086FD67
:200C0C0041180C310E9801F09FFE2046FFF738FA99283CD12046029901F062FC0D98E0626B
:200C2C00109820630998606301F05BFE40180C30294601F089FE01F069FD40180C300E99C2
:200C4C0001F082FE2046FFF71BFA99281FD10A97022004990860002520462946029A00F0A7
:200C6C005BFB0698A0630D98E063204600F04AFEA06BE16F01F00DFE00280BD0E06BE16FF6
:200C8C0001F007FE002805D0E32000E01220C0B211B0F0BD079EA662E76FA168304601F0ED
:200CAC0015FD0246E0672046314600F0A3FE38467F1C81000898411889190C310A98039E64
:200CCC00E26F531C9F4202D220C17F1CF8E70D9D2A60A26FE36F0B99FFF77AFEE06F421CE2
:200CEC002846314601F06AFD01465A200029CED0C043CCE7F0B591B00C46054689480768AA
:200D0C006821284601F082FE0D9520350026022E0BD0304601F04BFEC0B2294601F08AFC2F
:200D2C00761C2C350028F2D0FEE70C97079400200990C6430D9D012E11D0741C00230D98D3
:200D4C0021462A4601F0B1FB002802D12C352646F1E7002E03D007460D9E099CDAE00EA865
:200D6C00002707800D9E35463C46022C0CD0296A284601F08DFA002803D00EA80121015565
:200D8C007F1C641C2C35F0E7002F00D1A2E000200690099C0897B84200D19EE00A90002075
:200DAC003146024603461E461546022828D00EAA125C002A0AD0002E02460B4608D00A7DEE
:200DCC00337D9A4202460B4602D804D22A463346401C2C31E7E74A7D737D9A4202460B4696
:200DEC00F6D8F3D38A7DCB7D1B029A18B37DF47D2402E318099C9A4202460B46E6D9E7E7CC
:200E0C004848076800200B90294601F0D7FDC0B20FA901F00FFC00284FD12C2068430D99CD
:200E2C000F1800200C90294601F0C8FDC0B210A901F000FC002801D00C980FE0109801F061
:200E4C00AFFD0446109801F080FC0C980246042A2CD0B95C521CA142F9D0099C397CC9060D
:200E6C0021D40F9B01210A022F490091019202900390049001463A4600F05CF80C900F99F5
:200E8C0038460F4601F004FA002804D0274800680C9981420DD0BA680021384601F09CF925
:200EAC002348006800E001200C9002E001200C90099C0F9801F049FC0C9F1C4800680C977B
:200ECC0087420CD00EA80B9941550A98401C0D9E089F60E70327099C1CE0069F1AE0002E42
:200EEC000B9F0CD02C2068430D9A1018006A4178079B1971406898601E6016460AE00D9E3C
:200F0C0008E0012060402C2141437018006A01F01CFC641C022CF4D1002F00D00C970C9897
:200F2C0011B0F0BD5C220020002000206422002060220020F0B5BFB004931646469C784868
:200F4C000068019001F060FC002C05D04799012902DB204601F0FAFB489802904598059027
:200F6C00449D307A717A09020818317B727B12025118B27B1204F37B1B069A1851180818A1
:200F8C00B17A0396F27A1202511846180027BE4212D9F41B0598844200D3059C0498394627
:200FAC002A46234601F030FB002808D12846214601F0CCFBE719EAE706A801F019FC01F02C
:200FCC0038FBBE4216D80298002803D006A9202201F07AFD002700972EA8524B0399049A8B
:200FEC0000F0DEFD002805D1339C049801F074FD844203D94A4800683FB0F0BDFD434A4845
:20100C00006805902C4626462EA836A935AA34AB00F028FE0028EDD400D07BE034A80088E8
:20102C00222807D1002E2C46EDD4059886422C46E9DA57E001281AD010283446E3D135A8FA
:20104C0000882028D6D136990EAA2023049801F0DBFA0028CED106A80EA9202201F038FD4D
:20106C0033490968012788423446CCD0C2E735A80388202BBED836990EAA049801F0C4FAAB
:20108C000028B7D135A8017820292C46BBD800240291059884421FDAE6002448801903905F
:2010AC0001F0B2FB2148805903994968096801F04DFB37A801F09CFB029A002A0ED00EA88C
:2010CC0037A90B780678B34204D1401C491C521EF7D104E0641CDCE72C4600E0002401F0D2
:2010EC00A8FA90E735A80388802B00D982E736990EAA049801F088FA002800D07AE735A8AA
:20110C000388F0B2009006A820210EAA00F072FA019077E7002F00D16CE701986CE7C046CF
:20112C005C220020FFFF00001C2E0000042E000064220020F0B589B00D468021415803294E
:20114C0001D8002200E001220392052901D302220392C36F072901D303210391024680324D
:20116C00032B089007920BD311680B2901D304200390082B04D31168132901D305200390A3
:20118C000398441E0127591C8A00A1408900691804918E18B1180691022809D30898806F04
:2011AC0005900093069829462A46059BFFF7B6FA3846A040059002952C46089D38B205990F
:2011CC0081420FDDAB6FE96F88000019001D00912146069AFFF7A2FAE86F80000019041DE9
:2011EC007F1CEBE7089FB86F8068411E4C424C41801E079908603846069D294601F060FCC3
:20120C00012001B2FA6F8A4211D9BA6F890052189268E3B2012B07D10023002A02D0521E91
:20122C001C4601E00124DA436A50401CE9E7521C0498029901F088FBB96FF86F820089186C
:20124C004A680021002A02D05208491CFAE740014218223A0498044610B200284FD4D00851
:20126C002C49084028581F211140C840C007089837D0059292B20399079B1960294600F02D
:20128C0077FF049000252746E8B2079C216881420CD90898836FC06F0090304639463A4672
:2012AC00FFF73CFA6D1C34463E46ECE70498401E81B2C90B4018400880B208998B6FC96FF6
:2012CC004A1C42439000029A1218009130463946FFF724FA2088059A121A30463E46069D17
:2012EC00B9E7836FC06F00903046214617462246FFF714FA3A467A1E30462646ABE70898BF
:20130C00C06F421C029D2846214601F01DFB284609B0F0BDFC1F0000FEB515460446C26F3F
:20132C00571C8023C358022B13D0012B06D0002B15D1656CA06C0190E06C0EE07D43636D15
:20134C00A66DE06D0290A8001D1833180193029B02E0B8002B1801931818029002E00025FC
:20136C00019502957943E06D8F00C119E06EA36F0092514E0A46B047206EE26EA36FE16FAA
:20138C0000912946B04701F0E6FA0199B0473546606EE26E216FA36FE66F0096A8472E465F
:2013AC00E06EA36FE16F0091029D29462A46B047E26E206F616DC919A36FE66F00963E4E53
:2013CC00B047606DA16DC019C919A36FE26F00922A46B047616DA06DC019C919E26EA36F20
:2013EC00E66F0096344EB047606DC019216F226EA36FE66F0096314EB04701F0ACFA29463E
:20140C002D4EB047E06DC019616DC919226F01F03FFB206FA16DC919626EA36FE56F009572
:20142C00264DA847606DC119E06E01F00EFBA06E216F01F00AFBA06DC019216EE26E01F005
:20144C0027FB206EE16E626DD21901F021FBA06E226EA36FE16F00910146184EB047E06E37
:20146C00A16DC919A36FE26F00920A46FFF728FA606DC019A16EE26E01F00AFBA06E626D3B
:20148C00A16DC919D21901F003FB216F2546743529CDA26E0095084EB047E06E226E616E3D
:2014AC0001F0F6FAA06DC019254674352ACDE26E0095024CA047FEBD2907000055090000EB
:2014CC00F8B515460E460446806AA067616801F0FDF80246E067A16F204600F08BFAA06F31
:2014EC00E26FD1004118083190000A18121D13181B1D1818001D274660370EC7E0663B4FF2
:20150C0020463246B847616E20462A46B847A16E62682046B847304601F0EFFAE16FE42656
:20152C00884260D1284601F0E8FA0146E06F814259D1206E01F0ADF9002807D0606EE16F9E
:20154C0001F0A7F9002801D0E3264CE0A36EE16E226E204600F0C8FCE126012843D1E16E23
:20156C00E06F8000085800283DD1626EA36E204600F0BAFCE226012835D1E06EE56FA9008B
:20158C00405800282FD1A06E216EE269A36F0095174DA847206E01F033FAE06E216E226A88
:2015AC0001F07AFA206EA26EE16EA36FE66F0096A847E06E216E626A01F06EFA616EA06E02
:2015CC00E269A36FE66F0096A847606E01F018FA606EE16EE26F01F0F1F8002801D11A207B
:2015EC0000E01920C643F0B2F8BDC0467F24000029070000F0B597B01F46164601901C989B
:20160C003E490D68C0003E490A180858029051680968441800F0B1FF02A816AA302321461D
:20162C0001F01CF8002804D000F0C3FB284617B0F0BD02981699441802A806AA03AB2146F9
:20164C0000F09AFC0028EFD107980728ECD108982C49072201F0F0F80028E5D104980828C4
:20166C00E2D105982849082201F0E6F80028DBD102A816AA214600F099FF0028D4D11699FB
:20168C004129D1D102984118A142CDD101780429CAD1441C0294F519039603A816AA302322
:2016AC00294600F0DBFF002813D1039816994018A8420ED806A803A92A4600F013FE002874
:2016CC0007D106A8203003A92A4600F00BFE002808D00A49084605680C4800688542A3D00F
:2016EC000D68A1E706AA2046019900F0A7FD002801D0024800E005480049ECE75C22002073
:20170C00042E00000C2E0000F82D000064220020F0B589B00446806AA067616800F0D6FFDF
:20172C00E067002804D00246FF2803D9D2206FE008206DE0A16F087AC00701D1DC2067E0EB
:20174C0090000B185B68002B61D0D300CB18083303931D1808352E18361D079637183E1DD2
:20176C0006963618361D059637183E1D08962678B31E561C9E40B600089FBB1902939F1900
:20178C000497039B23646564079BA364069BE364059B2365089B6365029BA365049BE36504
:2017AC009B1908931D182D1D2E18361D37183F1D3B181B1D1818001D0790089820666566AB
:2017CC00A666E766236707986067204600F012F9E16C204600F080F9206EE16CA36FE26FF9
:2017EC0000920A46FFF76CF8E06F400180216050226E656EA16E20462B4600F02BFB01461A
:20180C00E06F421C284601F09FF8992000E0302009B0F0BDF0B5FFB0FFB0D3B005460920D0
:20182C00C44331A8032101802C4932912C4933912C4934912C4935912C4936912C493791B8
:20184C002C4938912C4939912C493A9153A93B912C305C2101F0DAF828684168412937D1B0
:20186C0006683078042833D1082028901F9016900D900490686816A9091D214FB847A8687C
:20188C000DA9091DB847E86804A9091DB847701C28AD291DB8473A4621361FAF391D304628
:2018AC00904731A829463A46FFF70AFEE6280ED104A801900DA8009031A828A91FAA16ABDC
:2018CC00FFF7B4F80024A52802D0E44300E0093420467FB07FB053B0F0BDC046402D00006C
:2018EC001C2D0000202C0000682C0000B02C0000D42C0000F82C0000442C00008C2C00008B
:20190C0055250000F0B585B00446016C0B1D08460491E16F4A1C91005F180397D10059180B
:20192C00029180256251616D304EB047A16D62593846B047E16D6259029F3846B047207878
:20194C00801E03218140C81D6051204639463E46FFF7F0FB606EA36FE16F0091244F31466D
:20196C003246B847206E626E01F079F8226EA36FE06F00903046039D2946B847626EA36F3D
:20198C00E06F009028460499B847A06F616800F09DFEA16FE26F204600F02CF8216F012261
:2019AC00204600F060FFA06E226FA36FE16F00912946B847A16EA26FE36F2846FFF708F890
:2019CC00A16B20462A4600F006FFE06E226F01F046F8E16EA26FE36F3046FEF7F9FFE16BB5
:2019EC002046324600F0F7FE05B0F0BD5529000029070000F0B587B002920C46049003911E
:201A0C008A680692C86808340026951C07460346059077412846394600F034FE801C7141AD
:201A2C0001F061F801F007F8801C714101F05BF800900191069D2A46059F3B4600F022FE64
:201A4C00801C7141009A019B00F01CFE0190009101F049F8801C7141019A009B00F012FE14
:201A6C0000F0E9FF801C71412A463B46029F00F009FE039A03C2B800083A11184968CA0F9C
:201A8C00049B5A7000290FD4002102233A46002A1CD02568ED43EE0F6D00EB184E412350BD
:201AAC00521E241D3346F2E701223946334600290CD02568ED43AD18255013435A1E93415E
:201ACC006A426A411A40491E241DEFE7049803998167C76707B0F0BDFEB50D4604460220A7
:201AEC00009002900298E16F891C884202D200F0EFFEF6E701222046294600F0B4FEA36F25
:201B0C000833204629462A4600F039FC00F004FF02D000F061FF0146204680300190802071
:201B2C00215000F0C5FF00F05DFFE06F800000262E5002962F1F0299E06FC20E1207524268
:201B4C00914221D281007918012807DB4A684B881204D2184A60401E091FF5E72868000471
:201B6C00286000F0D9FE02D000F036FF01460198016000F09DFF00F035FFE06F80002E50D5
:201B8C000298401C0290D6E7009902910299801C814204D200F09CFE0290E06FF6E7FEBDF5
:201BAC00F0B585B00024E743002820D00E4600291DD0002A1BD005460193307A717A0902DB
:201BCC0008180390317B1046727B12025118B27B1204F37B1B069A185118039A891804AA01
:201BEC0004230290039100F00FFD002802D0384605B0F0BD1A4904A800884A1CB17AF37A21
:201C0C001B025918904210D104A8408881420398EDD1411804AA0423029800F0F5FC002816
:201C2C00E5D104A80088039A02E00029039ADED10B498842DBD10A982E60029969600199C2
:201C4C002981A872B07AF17A090208181018E86004A9498840186861101D28612746C6E715
:201C6C0007690000F0B585B00026F743002836D004460068002832D0606800282FD0019321
:201C8C0002910392216960690125814228D22068827AC07A0002801804D0E068814201D1D1
:201CAC00091D2161606804AA042300F0ADFC002815D1A07A002803D0E068216981420FD2A1
:201CCC002089124988420ED004A9098881420AD004A8408821694018011D2161D3E73D463E
:201CEC00284605B0F0BD019A002A039901D0049810802069001D029A106004A840880880FC
:201D0C0021694018001D20613546E9E7FFFF0000F0B58B4200D1824204D90B0002000021DC
:201D2C00002040E0002B00D1002A0CD10B00020000210020002B00D1002A01D0C943C04300
:201D4C0000F09FFC2FE01C0015000B0002000CB4002126002F00FF19764102D2491C4029F8
:201D6C00F9D100201E001700FF19764102D2401C4028F9D10E1A21002800320000F0D6FCA2
:201D8C000C0005000CBC00200021A34200D1AA4201D3521BA341404149416D08E7073D4368
:201DAC006408761EF1D5059F002F01D03A607B60F0BD7047F8B503465F20C0431D684E1B6E
:201DCC00012E0BDB00242F57002F08D46F1C1F602E781660C91B8E4200D82046F8BD0094CC
:201DEC007F2427407F1E032F32D8C0467F443F797F00BF4401220713012EEFD06E7816606A
:201E0C00AF1C22E0042EE9D36C782404AE7836023419EE78A61916602F1D16E0052EDDD384
:201E2C006C782406AE7836043419EE783602A4192E79A61916606F1D07E0032ECED36C787B
:201E4C002402AE78A6191660EF1C1F60009CC1E7001FF8BDF0B587B01E460F460446836F82
:201E6C00C06F0090084611460292FEF757FC8020059420580490002101200390C5070A46E0
:201E8C00002D2ED00692002A0DD00598836FC06F009030460C4639463A46FEF73FFC2146C0
:201EAC0030463E4607462C4604980440002911D0002C11D00598836FC06F0090304606910B
:201ECC003946029AFEF72AFC06993846039A3746064603E0069A01E00024039A21436D083F
:201EEC00CEE7384607B0F0BDF0B585B0029000921568280C01931E68F7433F0C1D4CB44391
:201F0C00ADB22C19641C250C3E1876193504A4B22C190C60012297B20298C46F651CBD4282
:201F2C001CD9300C0390BF000098C5592E0C0198C459E3431B0C084604920E4AA243A9B2A3
:201F4C00039C091989180A0C9B199E18320489B252180146C251049A521CDCE7A0000A588D
:201F6C00521C01D0002003E0081800210160012005B0F0BDFFFF0000FEB51C4617460E462A
:201F8C00054602AA302300F069FB002800D0FEBD6520C2432868311A012927DB0192017847
:201FAC003A4602C20299461806232846314600F055FB0028EBD12868B8607968401828603D
:201FCC00B04215D00178224602C2401C286028463146FFF7EFFE0028D9D12868A0606168A2
:201FEC0040182860B04207D00198FEBD901DFEBD0C21204600F014FC0020FEBDF0B587B026
:20200C0006930592802202908058020C019280B200900026344632460298C06F824228D276
:20202C000491059802C80590080C0392069A08CA06921A0C8DB2009F3946694309199BB2B2
:20204C00C9180B0C4743BC19E3181C0C019F7D43AA189BB2D218130C78432018C018060CA5
:20206C0084B21004039A89B24018049901C1521CD2E730042043086007B0F0BDF8B5451CE3
:20208C0000780023082B32D02F78C2070CD16A780F241440E41C122C0BD102242E57F4B243
:2020AC00002E08D4EE1C0EE06D1C4A1C0F7011461AE0AE1C08E02E1DED7800957F252C404C
:2020CC00009DED012C1912343D0112095219094DAA420ED0D243002C05D08D5C4F1C0D7013
:2020EC00641E3946F7E7354640085B1CCAE72846C5E7F8BDFF0F00001FB500F051FB00F02D
:20210C0013FC01A800F03EFB00281FD10198017842781202511882781204C078000680188B
:20212C0040181249884211D17D2082000F20032100F024FA039801990A7A497A090289188C
:20214C00401800F0A0FC002004B010BD00F028FB0E240A213222204600F010FA7D20C2006B
:20216C000221204600F00AFAF2E7C0463DB8F396FCB50123DD438023C4588030944205D961
:20218C000B68541C9540AB4304601CE0521C0192171B1F22FB0800921740FF26B6001E4094
:2021AC008B59FB406A1C1546A540AB433D19212D09D389194968019D009E3540AA409143FE
:2021CC00621B9140CB18611EDA0703D15B080160491EF9E7D8B2FCBDFEB5436884685D1881
:2021EC00AF18E1188F4200D9FEE70022D14340787F2818D1680500D0FEE7029201910C4E64
:20220C00BD420FD23468002030600A4802680A48294690473460054949194D1C0006EFD0C0
:20222C00019900E002990846FEBDC046FF070000244402405800000F8FA0E3B7F0B599B0A0
:20224C0014460191074602AE04203070701C202539462A4600F038FC304621302037394644
:20226C002A4600F031FC17AD41222846314600F040FC13950198149015942034169413A846
:20228C00FFF7C8FA002801D00020C04319B0F0BDB0B50246007853781B02181893781B0481
:2022AC00D4782406E3181B1800200D4CA34213D1137B547B2402E318947B2404D57B2D06F4
:2022CC002C19E318147A527A12021219D21803D28868824201D30020B0BD0120B0BDC046B1
:2022EC003DB8F3967CB513460C46064601AA0225084619462B4600F0B1F9002801D0E8437E
:20230C007CBD019D202D05D32068411920392022304608E02020411B304600F077FB701BDB
:20232C00203021682A4600F0CFFB20684019206000207CBDF0B513681C0C80254559AEB2E9
:20234C009BB2F618330C2D0C2C19E3181C04B5B264190C6001241B0CE5B2C66FAE420CD901
:20236C00AD005659370CB6B2F618330CDB191F04B6B2BE194E51641CEDE71846F0BDFEB5F6
:20238C0000AC0EC4014600252846AEB2CF6FB74215D9B600019A97593C0C029A93591A0C1D
:2023AC009BB2BFB23818C318180C12191218100C12049BB2D218009B9A516D1CE5E7FEBDB0
:2023CC0070B50023DC4355091F231340EAB292008958D940802545592646AE40B143ED18D9
:2023EC00212D09D3006C80184068203DAC40A0432022D21A90404118C8B270BD70B50A485A
:20240C000A4C84420CD00A4D0A4EB54208D02A686968501C12789200A25890470835F4E766
:20242C0000BF00BF70BDC0464C2E0000402E0000542E0000642E0000FCB4020C0B0CFF24EB
:20244C002402FF34204021400C00444315005D4306005E430F005743320C3B0CA818C018A1
:20246C0032043B040025A1186841C9186841FCBC704770B508CAC46F641CA34200D3234690
:20248C000C461D46002D03D040CA40C46D1EF9E79A0089181A46C46F641CA24203D20024D7
:2024AC0010C1521CF7E7184670BD1CB51446002000F084FAC0B201A900F0BCF8002801D0F6
:2024CC0001240BE0019800212023224600F09CF80446019800F039F9601E844120461CBD70
:2024EC00F8B50D460446C06F421C8027E251616D074E2846B047E25990002D18A16D28460B
:20250C00B047E25990002818E16DB047F8BDC04655290000F0B514688023C5580023651BAB
:20252C001C465C410D600125EEB2C76FB74209D9B6009759E7191C465C417F1E5C418F518D
:20254C006D1CF1E7E043F0BDF0B502461E320023202B11D01F245C40951E561E367817786F
:20256C00045D2D782D06360475193E02AD192C19CC501B1D121FEBE7F0BD7047F8B5144641
:20258C000091012787400026074D0098864209D22F60204600F092F92F61204600F08EF91D
:2025AC00761CF2E7F8BDC04610320240B0B515460446032300F052F8002800D0B0BD67200F
:2025CC00C04329680029F9D0491E296021680A78002AF3D1481C20600020B0BD0648417808
:2025EC00032900D880300078FD2804D30348044901600449416070472F03004E1811004020
:20260C00E3887F09E3387F4970B5446885686118CE182C19A64200D9FEE7407800247F284D
:20262C0004D110461A4600F04FFA00E0E443204670BD704770B50022074B1446251D102D07
:20264C0007D01E59347884422C46F7D10E60002070BDD04370BDC046C42D000070B5044613
:20266C006120C04325684E1B012E08DB2E789E4204D1681C20602046FFF79CFB70BD801CA7
:20268C0070BD704730B514004C4325001C0044436419050010002900FFF7CEFE0019040060
:2026AC000D002100280030BD074880F3088800BF00BF00F024FA002801D0FFF79FFE00F071
:2026CC0053F8012000F012FA00900020B0B504C9002303604360531C083001249C4203D2FC
:2026EC0020C9641C20C0F9E71046B0BD10B5002A0AD003780C78A34204D1491C401C521E2F
:20270C00F7D11C46181B10BD002010BDA06AE16FCA0080188A0080182278921E059B9340FB
:20272C005B1D4A1C534399007047FEE718B520239B1A04D8010000205B42994004E00400C4
:20274C009140DC402143904018BD704780B50A460146034803680348984740B280BDC046DF
:20276C007C00000F6821002080B50020044A002A014601D001CA1146FFF7BEFC80BDC0461F
:20278C00282E0000B0B50446044D6821284600F03DF928462146FEF7ADFAB0BD002100209B
:2027AC0005480168012293030B4303600168D2030A4302607047C04600350240B0B5002344
:2027CC00002A05D010C820C965402B43521EF7E758425841B0BD10B5C36F08C100249C426A
:2027EC0004D208CA641C08C1C36FF8E7184610BD80B50146024802680248904780BDC0460C
:20280C008000000F6821002080B50348026803480021904780BDC0467800000F68210020D4
:20282C0080B5002904D00A4602490B680021984780BDC046202E000010B503780C78A34212
:20284C0004D1491C401C521EF7D11C46181B10BD10B504C91346002B03D010C910C05B1E31
:20286C00F9E7104610BD04C10122C36F5B1C9A4203D2002308C1521CF7E77047032280581B
:20288C00002805D0401E4A1C00230B701146F7E770470022002903D008C81A43491EF9E74F
:2028AC00504250417047FEE740B584B002AE0096FFF72EFA029A039B04B040BD0349414305
:2028CC00002902D000BF491EFAE77047C2100000A06F029989004258D24342500298401CF7
:2028EC007047A06AE16FCA0080188A0080184A1CD100704710B500239A4203D0CC5CC45472
:20290C005B1CF9E710BD80B50B4603214258C11D184600F0D9F880BDA26FE06F80002958A8
:20292C0012185268002A704701208003014908607047C04610320240EFF3108072B6FFF79F
:20294C004DFEFFF7B1FEFEE7002A03D008C908C0521EF9E77047206FE16DCA19A36FE16FD7
:20296C0000917047A36FE06F0090304629463A4600E0FEE782B00094014C019410BD00BFB4
:20298C00290700000998026890002D18761C27787047002903D0002204C0491EF9E7704753
:2029AC0040787F38022801D2FF207047FEE7032802D30020C0437047401C7047032902D3F6
:2029CC000020C0437047481C704700239A4202D0C1545B1CFAE770472818001F00685242A6
:2029EC00002361E7A26F0832204629462B46FFE782B00094014C019410BD00BF092000008C
:202A0C00A16EA36FE26F00920A4628470A46002180B5FFF7DAFF80BDB81E0A9981408E422B
:202A2C007047A36FE26F00920A4670479259A36FE76F0097704705460F46069A059B21E64F
:202A4C00E16E0690079108907047A36FE26F00920A4630470146E06F421C384674E7A36F03
:202A6C00E16F009131463847E16CA36FE66F009628479259A36FE56F00957047806807210D
:202A8C00884328387047016881F3088841688F46A36FE56F00953047A36FE66F0096FFE708
:202AAC0082B00094014C019410BD00BFCD080000204629462A463DE4012220463946D2E6DB
:202ACC00802280580860704780B5FFF713FF80BD80B5FFF70BFE80BD80B5FFF7CFFF80BD30
:202AEC00A36F009546E72A463B46CBE500F003F8FEE706C0704700BF704700687047012052
:022B0C00704710
:202B1000000102030400010203040001020304000102030400010203040001020304000168
:202B3000020304000102030400010203040001020304000102030400010203040101010146
:202B5000010202020202030303030304040404040000010203000001020300000102030025
:202B70000001020300010203040001020304000102030400010203043059301306072A868E
:202B900048CE3D020106082A8648CE3D030107034200042ACB403CE8FEED5BA44995A1A9FF
:202BB0001DAEE8DBBE1937CD14FB2F245737E5953988D994B9D65AEBD7CDD5308AD6FE48E1
:202BD000B24A6A810EE5F07D8B6834CC3A6AFC538EFAC10000000000010101010102020264
:202BF00002020202020202030303030303030303030405040404040504040404050404045A
:202C10000405040404000000000001010101010008000000FCFFFFFFFFFFFFFFFFFFFFFF91
:202C300000000000000000000000000001000000FFFFFFFFFCFFFFFFFFFFFFFFFFFFFFFF96
:202C500003000000000000000000000004000000FCFFFFFF00000000080000004B60D227B8
:202C70003E3CCE3BF6B053CCB0061D65BC86987655BDEBB3E7933AAAD835C65ADFBDC429B0
:202C900062DF9CD890308478CD05F0ACD62E21F7AB20A2E5344887041D0630DC00000000A1
:202CB0000800000096C298D84539A1F4A033EB2D817D0377F240A463E5E6BCF847422CE170
:202CD000F2D1176B08000000F551BF376840B6CBCE5E316B5733CE2B169E0F7C4AEBE78EFE
:202CF0009B7F1AFEE242E34F0300000000000000FFFFFFFFFBFFFFFFFEFFFFFFFFFFFFFF4E
:202D1000FDFFFFFF040000000000000008000000512563FCC2CAB9F3849E17A7ADFAE6BC67
:202D3000FFFFFFFFFFFFFFFF00000000FFFFFFFF08000000FFFFFFFFFFFFFFFFFFFFFFFF93
:202D500000000000000000000000000001000000FFFFFFFF00010001000100010001000160
:202D7000000001010001000100010001010101010000000000000000000000000000000039
:202D9000020304050000000000010100000000000000000000000000000000000001000111
:202DB0000000010100010001000100010001000100010001D42D0000E02D0000EC2D0000D2
:202DD00000000000007F00000000000000600000017F00000060000000C00200027F0000E1
:202DF0000020030000A004002A8648CE3D03010700000000882B0000242E00002A8648CE23
:182E10003D020100030301020303000001000000D72900005B000000FF
:082E28000000000000000000A2
:202E3000001500000F79FF0000010904FFF000008920000013290000892800000200000051
:142E5000D0010000302E0000D02100204C2E00000020002074
:020000044E02AA
:20000000FFFFFFFF000000000000000000000000FFFFFFFFFFFFFFFFAAAAAAAA0000000044
:20002000FFFFFFFFFFFFFFFF00000000FFFFFFFF00000000000000F00000000000000000DC
:200040000000000000000000000000000000000000000000000000000000000000000000A0
:20006000000000000000000000000000000000000000000000000000000000000000000080
:20008000000000000000000000000000000000000000000000000000000000000000000060
:2000A000000000000000000000000000000000000000000000000000000000000000000040
:2007C000000000000000000000000000000000005AA500000101020305080D156DD7E43686
:2007E000EBF431DF95AE15EE03BA8EE4C4C63FD8453F675E74D7C2012C9058E500000000A4
:00000001FF
