:2000000000900020C13400009F34000043320000633200006332000063320000633200009F
:20002000633200006332000063320000633200006332000063320000633200006332000018
:200040006332000063320000633200006332000063320000633200006332000063320000F8
:200060006332000063320000633200006332000063320000633200006332000063320000D8
:0C008000633200006332000063320000B5
:20008C00F0B58BB00446016CC26A02F094FEE16F4A1C904201D9352591E1002813D0206C48
:2000AC008A0087180837891C384603F038FAA168384603F05DF9002807D0E66F711C884209
:2000CC0005D9C6257BE1532579E16C2577E123786625022B00D272E1052B00D96FE10890CB
:2000EC00216C0A68981E4342434101252A405A4080200A9022500898E06720463A460B4642
:20010C0002F01EFA20784000001F294681400A982150216C20460A4602F00CFFE667E16CB5
:20012C0020460A952A4603F02EF9626EA06EE16CA36FE56F0095A34DA847A26EE06E03F0CE
:20014C005FFAA06EE26E03F05BFA216F226B204602F031FEE56FA84201D93C252FE100283F
:20016C000ED0606CE26E216F03F08EFA216F626B204602F020FEE56FA84203D965251EE1F8
:20018C00C3251CE1074600280ED0A06C216FA26E03F07AFAE16EE268204602F00CFEE56FB9
:2001AC00AF4203D95C250AE1562508E126468036A26EE16E206F03F067FAE26C206D216FC7
:2001CC00A36FE56F009500F0A9FAE06F421C09963260656D0026277803F0EAF909DA616C8A
:2001EC00284603F077F90998026890002D18761CF1E7A56D002603F0DBF906DAA16C28467E
:20020C0003F068F903F084F9F5E7E56D002603F0CFF906DAE16C284603F05CF903F078F9B8
:20022C00F5E7216C08688007C20F089840010290401C0190002507952B460A9E02988642E5
:20024C00E8B26AD80490069308920198801BB84200D33846099A10602046324602F052FD3E
:20026C004119C8B27B1E01252A469A409042059500DA00252B46BB4090420A9600DB4842E7
:20028C001818089A5049895C9600504A9219079F7B00D218525D920051180006800D001FC0
:2002AC0004229043081809990860204600F09EF86800474989190918049A895C03914549C3
:2002CC0089190818C75D079720780490811E42488019405C0A9E36181420089A50433F4A1C
:2002EC001218052041435118069D4D5D216C720992008A581F233340DA40059B1A40039F82
:20030C007A4042430A20089B5843354B18188018425D2B463D46049F90E7012810D107988C
:20032C008000C01C099E30602E4D2046A847012030602046A847022030602046A8472778A2
:20034C009925032F3BD30020C0430890B91E01200A908840FE30099EC7B20A983060002FCF
:20036C0011D07A1C2046394600F0BEFF0A9830602078801E08998140C94320463A4600F0BC
:20038C00B3FF781EE8E72078801E089F39468140CA43002107912046134B98470A98306082
:2003AC002078801E8740FA432046079F39460E4B98470A9A3260204639460B4B9847284676
:2003CC000BB0F0BD29070000083A000064390000343900007C3900004C390000B836000005
:2003EC008B370000F9030000F5120000F0B589B0044680202158C8080D460391E26F511C76
:20040C004143E06DC9B28F00C019616F636C06AE0BC6A807060F05A88159206EA36F00927B
:20042C00BB4D0A46A847606E03F0D6F805A88059A16CA36FE26F0092B64D0A46A847E06EC2
:20044C00216FA26C636E06920791089305A98959E26DD2190497236EE56C06920793089540
:20046C0005AA03F0D2F8AA4DA847606EE16EE26C06AB07C305A88059E26F521C03F02AF8DE
:20048C00E06E216F06900791089005A88059216E03F093F89F4DA847206FA16E0690079073
:2004AC00089105A88059A16DC919226E636E06AD0EC505A98959A26CE36C656F0693079544
:2004CC00089205AA03F0A1F8914DA847606F216E06900791089005A88059A16E03F06DF85D
:2004EC008C4DA847234660330ECB06930791089205A88759E56C606F06910795089005A962
:20050C00895906920790089305A88259A36FE06F009038467E4DA847226E606E616F06AB93
:20052C0007C305A88559E16EA36FE06F00902846784FB847216E226DA36FE06F0090284669
:20054C00B847E06C616E226E06AB07C305A88159E06E626FA36E06AD0DC505A8805903F0B5
:20056C002CF86B4DA847616EA06D049FC219E56E06A826C005A988590290216F226E636F50
:20058C0006910792089305A98959E26DD219636C06950792089305AA03F037F85C4DA847B3
:2005AC00606EE16DC919E26E06AB07C305A88059E16F4A1C029902F08DFF206D03F00CF88D
:2005CC0005A88159206F226E06900792089005A8805902F0F2FF4F4DA847606E616FA26E00
:2005EC0006AB07C305A88059216EE36E06920791089305A98A59A36FE16F0091464D0146E5
:20060C00A847226F216E206D06920791089005A88059636E06AD0EC505A98959636CA76E19
:20062C0006930797089205AA02F0CCFF384DA847616F606D049D4019626C069107900892D0
:20064C0005A88059A26E06920791089205A98959E26E236F06920793089205AA02F0B2FF9E
:20066C002D4FB847606F02F0B7FF05A88059626C636D5B1906920793089205AA02F0A2FFD6
:20068C00254FB847616FA06EE26E06910790089205A88059636D5B1906930792089105A9A2
:2006AC008959636E276E06920793089705AA02F089FF174FB847616FA06D4019A26C0691AC
:2006CC000790089205A880590490A26E042303980340E76E606E069707901B1D05ADED5828
:2006EC0006910792089505A98959226F256E0690079705A8C05806920795089005A8825920
:20070C00A36FE06F00900498034CA04709B0F0BD29070000CD08000055090000F8B444460B
:20072C004D4656465F46F0B400B501B40B9B5B005B1C6C469B00E31A9D4610B46C46241D6F
:20074C0000266D46009CE36A2D1D9B00EE505B00EE50E36A013B9B0098465B0099460023B0
:20076C0000240025002702E0370040463F1A9A46A346AC46B646F01B1458C859030C80B275
:20078C00250CA4B21E006E436343454360431C041B0C00195E412C042D0C00196E4153465D
:2007AC005C4665461B1874410020454176460437474501DCB742DADD6846001D835123463A
:2007CC002C46002504364645CCDD4E45CCDD8351009B9969083102464E4604361068009BF9
:2007EC009C6924684443A14600270023002400259A46A346AC46B6464C46C859030C80B2B0
:20080C00250CA4B21E006E436343454360431C041B0C00195E412C042D0C00196E415346DC
:20082C005C4665461B18744100204541D0591B18002044414541002F02D0043FD3510437A7
:20084C000437764623462C4600254745D0DD301D8742EBDD043FD351043E464500DDBDE7C9
:20086C0010BC2068E36A9B46024691466846012720C840C97F08B5417F4120C2013BF7D1E1
:20088C0005682F430126F741FF17FE4368463840494631400843494639406D4635402943AA
:2008AC005B4604C904C0013BFBD1A54603BC8E46F0BCA046A946B246BB46F8BC7047C04689
:2008CC00F0B444464D46564670B48146079CA246002720C940CA7F0875417F4120C0013C05
:2008EC00F7D1B8464846083354466A46A400141BA54604B46A46121D5446012720C840CB09
:20090C007F08B5417F4120C2013CF7D1424617430126F741FF17FE4348466946091D0D4659
:20092C00384031400843494631403D402943544604C904C0013CFBD101BC854670BCA046C0
:20094C00A946B246F0BC7047F0B444464D46564670B48146079CA246012720C940CA7F08CC
:20096C00B5417F4120C0013CF7D1B8464846083354466A46A400141BA54604B46A46121D6A
:20098C005446002720C840CB7F0875417F4120C2013CF7D147460126F741FF17FE434846E2
:2009AC006946091D0D463040394008434946394035402943544604C904C0013CFBD101BCF5
:2009CC00854670BCA046A946B246F0BC7047C046F0B444464D4630B4884699466C469B003F
:2009EC00E31A9D4610B46C46241D4B460832012720C940CA7F08B5417F4120C4013BF7D149
:200A0C006A46121D0125EF41FF17FD43414629403A4011434B4610C910C0013BFBD101BC82
:200A2C00854630BCA046A946F0BC7047F0B591B01D46174610910446866A8168304602F0E9
:200A4C00ABFBE067002804D00246FF2803D928201DE16C201BE1307AC00701D1822016E1AC
:200A6C00501C8300F058002837D0099717980E90D000089037180B970837F8180A9031465E
:200A8C00061D0C93F018001D0F902046079101F027F82046394601F095F8A36FE06F009062
:200AAC00304639463A46FFF70BFFE06F40018021605020460F990D9632460E463B4601F0E5
:200ACC00E9FB02F093FD204631460E9A02F073F9E16F884203D92220D9E02320D7E00028AE
:200AEC002ED00C9830180E903A46069727468037A36F00910D983146FFF710FE2078801E28
:200B0C000321059181400C310497396020460D9F394600F0F7FA02F069FDA36FE06F009022
:200B2C00304639460E9F069AFFF7F8FD204639462A4602F040F9E16F884203D92720A6E039
:200B4C002120A4E0002824D03246169803900C983E18A36F0091069D28463946FFF7DEFDF1
:200B6C0002F07EFD02F0C4FCE36F0B9DAB600C35A26F284602963146039EFFF729FF204651
:200B8C003946324602F017F9E16F884203D911207DE072207BE0002878D00B95029E0C9A89
:200BAC00B018801880180C90A36F00910D9D284639460F9AFFF7B2FD02F052FD02F098FC46
:200BCC00E36F0A9F7B600837A26F38463146FFF7FFFE6069A1690C9AA262069AE2620F9DEE
:200BEC0020636163204600F009FE99284FD102F01CFC41180C31284602F06CFC02F00CFB03
:200C0C0041180C310E9802F065FC2046FFF738FA99283CD12046029902F058F90D98E062B2
:200C2C00109820630998606302F0FFFB40180C30294602F04FFC02F0EFFA40180C300E99D7
:200C4C0002F048FC2046FFF71BFA99281FD10A97022004990860002520462946029A00F0E2
:200C6C0043FB0698A0630D98E063204600F0C0FEA06BE16F02F0A8FB00280BD0E06BE16FFF
:200C8C0002F0A2FB002805D0E32000E01220C0B211B0F0BD079EA662E76FA168304602F053
:200CAC007BFA0246E0672046314600F019FF38467F1C81000898411889190C310A98039E8A
:200CCC00E26F531C9F4202D220C17F1CF8E70D9D2A60A26FE36F0B99FFF77AFEE06F421CE2
:200CEC002846314602F0E2FA01465A200029CED0C043CCE7F0B58DB00D4604467C4800684C
:200D0C0006907C4860627C482065274620370026022E0CD00020314602F00FFCC0B23946E7
:200D2C0001F06CFF761C2C370028F1D0FEE7204602F0BEF9002807D10026204631463246FE
:200D4C0001F07EFF002838D058200121215407A8C17100200C900021204600F033FC6749E7
:200D6C000968634A176888420CD1B8420AD064490968884206D00C99491C0C910C9901291B
:200D8C00074616D100260A96099608960796206A417829714068A8602C60022E0AD001202F
:200DAC0070402C2141436018006A02F015FA761CF3E7FEE738460DB0F0BD204601F07DF9BD
:200DCC000028C1D007A8867109960A9601210791FF210591023181800496304601F0C8F804
:200DEC000746801E02280ED801262046314600F0E9FB42490968884205D0414909688842B4
:200E0C0000D005263746F8B2224658325821675407A9CF71811E032907D2029201200CA980
:200E2C0001F0ECFE002812D0FEE70128069F01D0052813D104990C91012800D18BE7002165
:200E4C0007AA204601F0FCFE00289BD183E702200BA901F0D3FE002803D0FEE705981070F1
:200E6C00FEE7A06A0421049F0395002812D00590606A46580C980D463946324601F0BEF97A
:200E8C00002806D1F71908350598401E2946039DEBE7FEE70B990C9A00230093019701F0B0
:200EAC008FFD002800D0FEE70B98216D4A68002101F0A4F9002800D0FEE7216D606DC20031
:200ECC000B985218083A136852680968591A01F095F9002800D0FEE70C9802F07DF90B9893
:200EEC0002F07AF902980078FF28069FB8D0A1E760460020000000200010002068460020AF
:200F0C0064460020F0B5BFB004931646469C78480068019002F0FCF9002C05D04799012967
:200F2C0002DB204602F098F94898029045980590449D307A717A09020818317B727B1202AD
:200F4C005118B27B1204F37B1B069A1851180818B17A0396F27A1202511846180027BE42DD
:200F6C0012D9F41B0598844200D3059C049839462A46234601F082FC002808D1284621465B
:200F8C0002F06AF9E719EAE706A802F0B5F901F034FEBE4216D80298002803D006A920223A
:200FAC0002F066FB002700972EA8524B0399049A00F06CFE002805D1339C049802F060FB57
:200FCC00844203D94A4800683FB0F0BDFD434A48006805902C4626462EA836A935AA34ABAD
:200FEC0000F070FF0028EDD400D07BE034A80088222807D1002E2C46EDD4059886422C46B4
:20100C00E9DA57E001281AD010283446E3D135A800882028D6D136990EAA2023049801F0A6
:20102C002DFC0028CED106A80EA9202202F024FB33490968012788423446CCD0C2E735A881
:20104C000388202BBED836990EAA049801F016FC0028B7D135A8017820292C46BBD800247A
:20106C000291059884421FDAE60024488019039002F04EF92148805903994968096802F0CC
:20108C00EBF837A802F038F9029A002A0ED00EA837A90B780678B34204D1401C491C521E29
:2010AC00F7D104E0641CDCE72C4600E0002401F0A4FD90E735A80388802B00D982E7369992
:2010CC000EAA049801F0DAFB002800D07AE735A80388F0B2009006A820210EAA00F000FB65
:2010EC00019077E7002F00D16CE701986CE7C04660460020FFFF0000103A0000F839000071
:20110C0068460020F0B589B00D4680214158032901D8002200E001220392052901D30222A5
:20112C000392C36F072901D30321039102468032032B089007920BD311680B2901D3042044
:20114C000390082B04D31168132901D3052003900398441E0127591C8A00A1408900691896
:20116C0004918E18B1180691022809D30898806F05900093069829462A46059BFFF7CEFA30
:20118C003846A040059002952C46089D38B2059981420FDDAB6FE96F88000019001D0091AA
:2011AC002146069AFFF7BAFAE86F80000019041D7F1CEBE7089FB86F8068411E4C424C41C4
:2011CC00801E079908603846069D294602F04CFA012001B2FA6F8A4211D9BA6F8900521886
:2011EC009268E3B2012B07D10023002A02D0521E1C4601E00124DA436A50401CE9E7521CE8
:20120C000498029902F066F9B96FF86F820089184A680021002A02D05208491CFAE74001D8
:20122C004218223A0498044610B200284FD4D0082C49084028581F211140C840C0070898E4
:20124C0037D0059292B20399079B1960294601F083FB049000252746E8B2079C216881425C
:20126C000CD90898836FC06F0090304639463A46FFF754FA6D1C34463E46ECE70498401E1F
:20128C0081B2C90B4018400880B208998B6FC96F4A1C42439000029A1218009130463946CF
:2012AC00FFF73CFA2088059A121A30463E46069DB9E7836FC06F00903046214617462246F3
:2012CC00FFF72CFA3A467A1E30462646ABE70898C06F421C029D2846214602F0FBF8284666
:2012EC0009B0F0BDFC1F0000FEB515460446C26F571C8023C358022B13D0012B06D0002B6A
:20130C0015D1656CA06C0190E06C0EE07D43636DA66DE06D0290A8001D1833180193029B58
:20132C0002E0B8002B1801931818029002E00025019502957943E06D8F00C119E06EA36F68
:20134C000092514E0A46B047206EE26EA36FE16F00912946B04702F0C4F80199B047354618
:20136C00606EE26E216FA36FE66F0096A8472E46E06EA36FE16F0091029D29462A46B0479D
:20138C00E26E206F616DC919A36FE66F00963E4EB047606DA16DC019C919A36FE26F0092A7
:2013AC002A46B047616DA06DC019C919E26EA36FE66F0096344EB047606DC019216F226E98
:2013CC00A36FE66F0096314EB04702F08AF829462D4EB047E06DC019616DC919226F02F0E0
:2013EC0023F9206FA16DC919626EA36FE56F0095264DA847606DC119E06E02F0F2F8A06E3A
:20140C00216F02F0EEF8A06DC019216EE26E02F00BF9206EE16E626DD21902F005F9A06E08
:20142C00226EA36FE16F00910146184EB047E06EA16DC919A36FE26F00920A46FFF740FAC6
:20144C00606DC019A16EE26E02F0EEF8A06E626DA16DC919D21902F0E7F8216F2546743576
:20146C0029CDA26E0095084EB047E06E226E616E02F0DAF8A06DC019254674352ACDE26EC6
:20148C000095024CA047FEBD2907000055090000F8B515460E460446806AA067616801F0DC
:2014AC007BFE0246E067A16F204600F019FBA06FE26FD1004118083190000A18121D1318CF
:2014CC001B1D1818001D274660370EC7E0663B4F20463246B847616E20462A46B847A16E42
:2014EC0062682046B847304602F0DBF8E16FE426884260D1284602F0D4F80146E06F81429C
:20150C0059D1206E01F060FF002807D0606EE16F01F05AFF002801D0E3264CE0A36EE16EC2
:20152C00226E204600F000FFE126012843D1E16EE06F8000085800283DD1626EA36E20467B
:20154C0000F0F2FEE226012835D1E06EE56FA900405800282FD1A06E216EE269A36F0095CE
:20156C00174DA847206E02F00BF8E06E216E226A02F05EF8206EA26EE16EA36FE66F0096EE
:20158C00A847E06E216E626A02F052F8616EA06EE269A36FE66F0096A847606E01F0F0FFA9
:2015AC00606EE16EE26F01F081FE002801D11A2000E01920C643F0B2F8BDC046C32D00009E
:2015CC0029070000F0B587B00C4605463F4806680027384601F0B1FFC0B206A901F00EFB00
:2015EC0000285BD12846214601F0BDFA0126002851D02C2060432918087CC0064BD40E46B1
:20160C00002C12D02846403001782A7D91420CD807D20021284601F0A6FA002805D0069867
:20162C0033E041786A7D914243D9069B0497039702970120000201902648009038463946DE
:20164C0035463246FFF75EFC0646069829786A7812025118AA781204EB781B069A1851187A
:20166C001D4A91420FD1297B6A7B12025118AA7B1204EB7B1B069A1851182A7A6B7A1B02BB
:20168C009A1851180DD3002C03D08268002100F0B5FD0F480668069801F09EFD304607B07B
:2016AC00F0BD82689142EED20C4909688E42F2D0E9E7AED38178C07800024018A97DEA7D33
:2016CC00120251188842A4D3AFE7C0466046002064460020002400203DB8F3966846002084
:2016EC00F0B597B01F46164601901C983E490D68C0003E490A18085802905168096844180F
:20170C0001F04BF802A816AA3023214601F00CFD002804D000F021FD284617B0F0BD0298E5
:20172C001699441802A806AA03AB214600F086FE0028EFD107980728ECD108982C490722FE
:20174C0001F00AFE0028E5D104980828E2D105982849082201F000FE0028DBD102A816AAC2
:20176C00214601F033FC0028D4D116994129D1D102984118A142CDD101780429CAD1441C39
:20178C000294F519039603A816AA3023294601F0CBFC002813D1039816994018A8420ED89D
:2017AC0006A803A92A4601F067F9002807D106A8203003A92A4601F05FF9002808D00A494C
:2017CC00084605680C4800688542A3D00D68A1E706AA2046019901F025F9002801D002484D
:2017EC0000E005480049ECE760460020F8390000003A0000EC39000068460020F0B589B092
:20180C000446806AA067616801F0C6FCE067002804D00246FF2803D9D2206FE008206DE0C1
:20182C00A16F087AC00701D1DC2067E090000B185B68002B61D0D300CB18083303931D18A0
:20184C0008352E18361D079637183E1D06963618361D059637183E1D08962678B31E561C5E
:20186C009E40B600089FBB1902939F190497039B23646564079BA364069BE364059B2365BE
:20188C00089B6365029BA365049BE3659B1908931D182D1D2E18361D37183F1D3B181B1DA8
:2018AC001818001D0790089820666566A666E766236707986067204600F012F9E16C2046EA
:2018CC0000F080F9206EE16CA36FE26F00920A46FEF7F6FFE06F400180216050226E656E45
:2018EC00A16E20462B4600F0D5FC0146E06F421C284601F0EFFD992000E0302009B0F0BDA7
:20190C00F0B5FFB0FFB0D3B005460920C44331A8032101802C4932912C4933912C49349191
:20192C002C4935912C4936912C4937912C4938912C4939912C493A9153A93B912C305C2189
:20194C0001F024FE28684168412937D106683078042833D1082028901F9016900D90049011
:20196C00686816A9091D214FB847A8680DA9091DB847E86804A9091DB847701C28AD291D83
:20198C00B8473A4621361FAF391D3046904731A829463A46FFF77CFDE6280ED104A8019093
:2019AC000DA8009031A828A91FAA16ABFFF73EF80024A52802D0E44300E0093420467FB0DA
:2019CC007FB053B0F0BDC04610390000EC380000F03700003838000080380000A43800007E
:2019EC00C8380000143800005C380000752F0000F0B585B00446016C0B1D08460491E16F6B
:201A0C004A1C91005F180397D1005918029180256251616D304EB047A16D62593846B04704
:201A2C00E16D6259029F3846B0472078801E03218140C81D6051204639463E46FFF762FB0E
:201A4C00606EA36FE16F0091244F31463246B847206E626E01F0CFFD226EA36FE06F0090BC
:201A6C003046039D2946B847626EA36FE06F009028460499B847A06F616801F08DFBA16FAA
:201A8C00E26F204600F02CF8216F0122204601F07AFCA06E226FA36FE16F00912946B847EF
:201AAC00A16EA26FE36F2846FEF792FFA16B20462A4601F008FCE06E226F01F09CFDE16E25
:201ACC00A26FE36F3046FEF783FFE16B2046324601F0F9FB05B0F0BDE134000029070000F4
:201AEC00F0B587B002920C46049003918A680692C86808340026951C074603460590774140
:201B0C002846394601F024FB801C714101F0BFFD01F05DFD801C714101F0B9FD009001915F
:201B2C00069D2A46059F3B4601F012FB801C7141009A019B01F00CFB0190009101F0A7FD30
:201B4C00801C7141019A009B01F002FB01F03FFD801C71412A463B46029F01F0F9FA039A79
:201B6C0003C2B800083A11184968CA0F049B5A7000290FD4002102233A46002A1CD0256809
:201B8C00ED43EE0F6D00EB184E412350521E241D3346F2E701223946334600290CD02568EA
:201BAC00ED43AD18255013435A1E93416A426A411A40491E241DEFE7049803998167C76790
:201BCC0007B0F0BDFEB50D4604460220009002900298E16F891C884202D201F01DFCF6E7ED
:201BEC0001222046294601F0CEFBA36F0833204629462A4601F045F801F03BFC02D001F07C
:201C0C00AAFC01462046803001908020215001F01BFD01F0A6FCE06F800000262E5002966C
:201C2C002F1F0299E06FC20E12075242914221D281007918012807DB4A684B881204D2187B
:201C4C004A60401E091FF5E728680004286001F010FC02D001F07FFC01460198016001F0E3
:201C6C00F3FC01F07EFCE06F80002E500298401C0290D6E7009902910299801C814204D270
:201C8C0001F0CAFB0290E06FF6E7FEBDF0B585B00024E743002820D00E4600291DD0002A35
:201CAC001BD005460193307A717A090208180390317B1046727B12025118B27B1204F37BDE
:201CCC001B069A185118039A891804AA04230290039100F0D3FD002802D0384605B0F0BDE9
:201CEC001A4904A800884A1CB17AF37A1B025918904210D104A8408881420398EDD1411819
:201D0C0004AA0423029800F0B9FD0028E5D104A80088039A02E00029039ADED10B4988427E
:201D2C00DBD10A982E600299696001992981A872B07AF17A090208181018E86004A949884B
:201D4C0040186861101D28612746C6E707690000FEB5244C254F26490A68012632430A6098
:201D6C0024490A6832430A6023490E60B2020A60616C224A0A4062640521616508210090B3
:201D8C0001911F490022042520462B4600F098FB154B18687103014319607968072001403E
:201DAC00022901D002213971310319621549396039680140012900D03E701968B2040A439A
:201DCC001A60B9690140042900D03D760E4801683143016002A9204601F082FA0028F9D166
:201DEC00FEBDC04600000340003502403031004090600040140000401400024000FEFFFFE5
:201E0C00006CDC020000042004010340F0B585B00D4604468168103901AA102300F02EFD5E
:201E2C00002808D401A91022204601F0E7F8002803D0032011E001263FE00020204901AAF7
:201E4C00125C0B5C9A4203D1401C1028F7D113469A4201D0022000E001202870A16807279D
:201E6C00B94328396A4601262046334600F006FD002822D4694608780F2202406A700009AD
:201E8C00287101262046324601F0B8F8002802D16878052803D30120687000202871A91CA2
:201EAC00A268BA43203A204600F0A1FF002804D1E91C204601F0E5FA0646304605B0F0BD63
:201ECC00B8390000F0B585B00026F743002836D004460068002832D0606800282FD001933E
:201EEC0002910392216960690125814228D22068827AC07A0002801804D0E068814201D16F
:201F0C00091D2161606804AA042300F0B7FC002815D1A07A002803D0E068216981420FD234
:201F2C002089124988420ED004A9098881420AD004A8408821694018011D2161D3E73D46DB
:201F4C00284605B0F0BD019A002A039901D0049810802069001D029A106004A84088088099
:201F6C0021694018001D20613546E9E7FFFF0000F0B587B0012405A9204601F0AEF8FF25BC
:201F8C0000283ED1022003A901F0A7F8002838D105AA107803AB1978D5780195DB78009330
:201FAC00927802921122D6431A4F002E28D0BB199A7C042A06D0052A02D1012802D11DE0B3
:201FCC0082421BD1DA7C042A06D0052A02D1012902D113E08A4211D11A7D042A02D0019D16
:201FEC00AA420BD15A7D042A02D0009DAA4205D19A7D042A08D0029DAA4205D0B61DD4E7CC
:20200C002546284607B0F0BDDD7DA81E0328F8D3FF25F6E794390000F0B58B4200D182428C
:20202C0004D90B0002000021002040E0002B00D1002A0CD10B00020000210020002B00D1FC
:20204C00002A01D0C943C04300F0A7FF2FE01C0015000B0002000CB4002126002F00FF1939
:20206C00764102D2491C4029F9D100201E001700FF19764102D2401C4028F9D10E1A210062
:20208C002800320001F0D8F80C0005000CBC00200021A34200D1AA4201D3521BA3414041B7
:2020AC0049416D08E7073D436408761EF1D5059F002F01D03A607B60F0BDF0B585B001211F
:2020CC0004914B02826A00219A4243D80390446D01949C423ED800200746054602900346AE
:2020EC00EE00361D039C954206D3019C1146029AA242039C0A4623D2874209D00FD2022B3C
:20210C0027D0636A9B59DF196D1C0836049BEAE7214614464F6ABE5937186D1C04E0012B53
:20212C0017D0214614460223029A561C0096096DD6008E1976683018009902912246CFE7BF
:20214C006A4001981146029A42400A435142514100E00021084605B0F0BD7047F8B50346EB
:20216C005F20C0431D684E1B012E0BDB00242F57002F08D46F1C1F602E781660C91B8E423F
:20218C0000D82046F8BD00947F2427407F1E032F32D8C0467F443F797F00BF440122071389
:2021AC00012EEFD06E781660AF1C22E0042EE9D36C782404AE7836023419EE78A6191660BC
:2021CC002F1D16E0052EDDD36C782406AE7836043419EE783602A4192E79A61916606F1D50
:2021EC0007E0032ECED36C782402AE78A6191660EF1C1F60009CC1E7001FF8BDFEB5164604
:20220C00426883685418A71999188F4200D9FEE74178802906D00023DA437F292DD160052E
:20222C0003D0FEE7210515D0FEE701930092164EBC4221D235680020306014480268144800
:20224C002146904735600F4909194C1C0006EFD0009A12E00A490978002906D1007802A975
:20226C0000F0CCFC0246002807D12046314600F095FA0122424000E0019A1046FEBDC046BF
:20228C0070460020FF070000244402405800000F8FA0E3B7F0B587B01E460F460446836FAB
:2022AC00C06F0090084611460292FEF737FA8020059420580490002101200390C5070A46BE
:2022CC00002D2ED00692002A0DD00598836FC06F009030460C4639463A46FEF71FFA21469E
:2022EC0030463E4607462C4604980440002911D0002C11D00598836FC06F009030460691C7
:20230C003946029AFEF70AFA06993846039A3746064603E0069A01E00024039A21436D081C
:20232C00CEE7384607B0F0BDF0B585B0029000921568280C01931E68F7433F0C1D4CB4434C
:20234C00ADB22C19641C250C3E1876193504A4B22C190C60012297B20298C46F651CBD423E
:20236C001CD9300C0390BF000098C5592E0C0198C459E3431B0C084604920E4AA243A9B25F
:20238C00039C091989180A0C9B199E18320489B252180146C251049A521CDCE7A0000A5849
:2023AC00521C01D0002003E0081800210160012005B0F0BDFFFF0000FEB51C461546426892
:2023CC008368561831199A18914200D9FEE74178802916D000277F2911D1154801680191BA
:2023EC0007601448006800901348294632462346009CA04701990E4A116000280BD0F84347
:20240C00FEBD0A490978002906D1007802A900F0F5FB002800D0FEBD304621462A4600F02E
:20242C0083F9014601204840FEBDC04670460020244402406000000F8FA0E3B7FEB51C4696
:20244C0017460E46054602AA302300F06DFE002800D0FEBD6520C2432868311A012927DBD6
:20246C00019201783A4602C20299461806232846314600F059FE0028EBD12868B860796845
:20248C0040182860B04215D00178224602C2401C286028463146FFF761FE0028D9D1286854
:2024AC00A060616840182860B04207D00198FEBD901DFEBD0C21204600F042FF0020FEBD43
:2024CC00F0B585B001920B9D0A9A1A4E0024B2420491039401D8029402E0154E711C0291B7
:2024EC0001263602871984596D1E0F212940124D2540019C214329438151102003437B607C
:20250C00FE685500049C2046294600F0DBFB810A01D0039801E0401E80B2AC4200D20398F6
:20252C0006490E40029971180143F96005B0F0BDFFFF0000FF083D0090FCFFFF00FCF0FF18
:20254C00F0B587B006930592802202908058020C019280B200900026344632460298C06F13
:20256C00824228D20491059802C80590080C0392069A08CA06921A0C8DB2009F394669431E
:20258C0009199BB2C9180B0C4743BC19E3181C0C019F7D43AA189BB2D218130C78432018DB
:2025AC00C018060C84B21004039A89B24018049901C1521CD2E730042043086007B0F0BDC2
:2025CC00F8B5451C00780023082B32D02F78C2070CD16A780F241440E41C122C0BD102241B
:2025EC002E57F4B2002E08D4EE1C0EE06D1C4A1C0F7011461AE0AE1C08E02E1DED780095EC
:20260C007F252C40009DED012C1912343D0112095219094DAA420ED0D243002C05D08D5CA5
:20262C004F1C0D70641E3946F7E7354640085B1CCAE72846C5E7F8BDFF0F00001FB500F03B
:20264C0027FE00F02FFF01A800F0B6FD00281FD10198017842781202511882781204C07836
:20266C000006801840181249884211D17D2082000F20032100F092FC039801990A7A497AE5
:20268C0009028918401800F0CAFF002004B010BD00F0FEFD0E240A213222204600F07EFC64
:2026AC007D20C2000221204600F078FCF2E7C0463DB8F3967CB51848019000F073FF01A838
:2026CC00042100F0DFFC002802D000F065FF09E0124C0221204600F0A7FB054600F05CFFB8
:2026EC00002D01D000207CBD227863780C490C4625686E1E2846B041002D07D02579AA4255
:20270C0002D16579AB4203D00834F1E7203100E02146044A11607CBD90FFFF00682500205D
:20272C00C83700006C460020FEB515460C460646002C2FD000F0F0F900282BD100F0E1FC1B
:20274C00002827D10195F0B201210902081A8442274600D3074602AD02202870300C6870F6
:20276C00300AA870EE7000F01DFF0421284600F089FC0028019D0BD12846394600F082FC8C
:20278C00002805D1BE19E41BED1900F005FFCFE700F002FF60426041FEBD7047F8B5194CF1
:2027AC006A4620231370184E0640F243401880180019070B0025AF421ED000F0ADF90028D9
:2027CC001AD100F09EFC002816D1300C6C466070300AA0700020E07000F0E4FE0421204694
:2027EC0000F050FC044600F0D7FE002C04D105488019461C6D1CDEE7BD4201D20020F8BD44
:20280C000120F8BDFF0F000000F0FFFFF8B515460022194E131D102B0ED0B4582278824296
:20282C001A46F7D1002662780120802A07D07F2A1ED10091C70204E00020C64319E0009139
:20284C000703A0683818401E394600F03BFA00990968884200D9FEE761680246002A04D067
:20286C0082C5C919521E0035F8E70099086000E0F6433046F8BDC046A8390000F8B51C4664
:20288C00154642688368561831199A18914200D9FEE74178802908D000277F2912D12846E7
:2028AC003146224600F0E4FE1CE00F4F397800290AD000F0BAFB00F019F800280BD0012083
:2028CC00387008E0FF430DE00078694600F096F90746002806D1304621462A4600F0F4F812
:2028EC00012747403846F8BD704600201CB518481221FFF72DFA0620164900F001FB00F032
:20290C004BFE01ACAB20207000F04CFE0121204600F0B8FB044600F03FFE002C11D1192037
:20292C00000169460880009868460088002804D00098401E69460880F6E700F0EDF8002882
:20294C0003D000F072FB00201CBDFFF7B3FE1CBD00093D0001020020FCB50123DD438023C1
:20296C00C4588030944205D90B68541C9540AB4304601CE0521C0192171B1F22FB080092BC
:20298C001740FF26B6001E408B59FB406A1C1546A540AB433D19212D09D389194968019D57
:2029AC00009E3540AA409143621B9140CB18611EDA0703D15B080160491EF9E7D8B2FCBD87
:2029CC00F0B587B005930392049100260D990C9802900196124FB1421CD90D468C1B012050
:2029EC0006908002844200D304460598311804983A462346FFF742FF00280DD10298311845
:202A0C0003983A462346FFF7D7FCA61900282946E1D001E001980690069807B0F0BDC0463E
:202A2C0000200020F0B599B014460191074602AE04203070701C202539462A4600F018FEE9
:202A4C0030462130203739462A4600F011FE17AD41222846314600F020FE1395019814905F
:202A6C0015942034169413A8FEF74AFF002801D00020C04319B0F0BD7CB513460C460646F0
:202A8C0001AA0225084619462B4600F04DFB002801D0E8437CBD019D202D05D32068411900
:202AAC0020392022304608E02020411B304600F06DFD701B203021682A4600F0D9FD206883
:202ACC004019206000207CBDFEB516460D46074600F022F8002400281CD1019502AD03205E
:202AEC002870380C6870380AA870EF7000F05AFD0421284600F0C6FA002802D000F04CFDA0
:202B0C0008E03046019900F08FF9054600F044FD6C426C412046FEBDBCB501A80521017090
:202B2C0000F040FD00F000FC00F036FD00F03AFD01A80124214600F0A5FA6846214600F05D
:202B4C0073F9054600F028FD002D03D10098400002248443002CE9D0022C01D10020BCBD59
:202B6C000120C043BCBDF8B50E4605460024204600F0E3FCC0B2694600F040F8002801D0C5
:202B8C00E043F8BD009800F0D1FC0746009800F023FB2C20704328182146042C03D0425CC2
:202BAC004C1CBA42F8D00020042900D2C043F8BDF0B513681C0C80254559AEB29BB2F618C0
:202BCC00330C2D0C2C19E3181C04B5B264190C6001241B0CE5B2C66FAE420CD9AD00565978
:202BEC00370CB6B2F618330CDB191F04B6B2BE194E51641CEDE71846F0BD704770B500227F
:202C0C000D4B1446261D102E14D01D592C7884423446F7D10D6069780020802909D1074C2B
:202C2C002178002905D1FFF761FE0121484000D1217070BDD04370BDA8390000704600206B
:202C4C00FEB502920091064600200190C5433746012D0BD06C1C304621463A46029B00F093
:202C6C001AF9002804D12C372546F1E70198FEBD009A002A014600D11146002D00D10846BF
:202C8C00FEBDFEB500AC0EC4014600252846AEB2CF6FB74215D9B600019A97593C0C029AB8
:202CAC0093591A0C9BB2BFB23818C318180C12191218100C12049BB2D218009B9A516D1C1C
:202CCC00E5E7FEBD1CB50A0017D000230124E407A04200D20400944201D95200FBE79042FE
:202CEC005B41904200D3801A914201D25208F6E719000200080011001CBD0100002000F0F2
:202D0C0092F81CBD70B50023DC4355091F231340EAB292008958D940802545592646AE4025
:202D2C00B143ED18212D09D3006C80184068203DAC40A0432022D21A90404118C8B270BD8E
:202D4C0070B50A480A4C84420CD00A4D0A4EB54208D02A686968501C12789200A2589047BE
:202D6C000835F4E700BF00BF70BDC046403A0000343A0000483A0000583A0000FCB4020CC4
:202D8C000B0CFF242402FF34204021400C00444315005D4306005E430F005743320C3B0CB6
:202DAC00A818C01832043B040025A1186841C9186841FCBC704770B508CAC46F641CA342EB
:202DCC0000D323460C461D46002D03D040CA40C46D1EF9E79A0089181A46C46F641CA2424B
:202DEC0003D2002410C1521CF7E7184670BD70B50C4605460126114622463346FFF73EFDD4
:202E0C0000280ED401222846214600F0F7F8002801D0032003E02078012800D00220207083
:202E2C000026304670BD7047F8B50C4605460B4E002C0FD000273046394600F0BAFA002870
:202E4C000AD06946304600F0A9FA00982870641E6D1CEDE70020F8BDF843F8BD00000340BD
:202E6C00BCB50D460446012040020190012901D0502000E02420225801A92846FFF7C6FC6B
:202E8C00002800D0BCBD012D01D0542100E02821019A6250BCBD1CB51446002000F04DFBCF
:202EAC00C0B201A9FFF7AAFE002801D001240BE00198002120232246FFF7E0FC0446019829
:202ECC0000F08AF9601E844120461CBDF8B50D460446C06F421C8027E251616D074E2846AF
:202EEC00B047E25990002D18A16D2846B047E25990002818E16DB047F8BDC046E13400002C
:202F0C00B0B5094A8B0705D401230B40C4B2074D635500E01032012383401360800007226C
:202F2C009143034A8150B0BD103502400031024000310040F0B514688023C5580023651B37
:202F4C001C465C410D600125EEB2C76FB74209D9B6009759E7191C465C417F1E5C418F5163
:202F6C006D1CF1E7E043F0BDF0B502461E320023202B11D01F245C40951E561E3678177845
:202F8C00045D2D782D06360475193E02AD192C19CC501B1D121FEBE7F0BD7047F8B5144617
:202FAC000091012787400026074D0098864209D22F60204600F026FA2F61204600F022FAC9
:202FCC00761CF2E7F8BDC04610320240B0B515460446032300F0A8F8002800D0B0BD67208F
:202FEC00C04329680029F9D0491E296021680A78002AF3D1481C20600020B0BDB0B50D462D
:20300C0001460020002D0FD01446002A0CD0084600F08CFA014660426041002C04D02A78E1
:20302C00641E6D1C8A42F6D0B0BD1CB501ACB920207000F0B7FA0121204600F023F800F06F
:20304C00ABFA0024092C04D8FFF734FB641C0028F8D100F07CF81CBD06484178032900D8AC
:20306C0080300078FD2804D30348044901600449416070472F03004E18110040E3887F09A6
:20308C00E3387F497CB50C460546084E002C0AD02978304600F0A2F901A9304600F07EF9EE
:2030AC00641E6D1CF2E700207CBDC04600000340B0B5044601252946FFF7D2FE00280AD171
:2030CC0002212046FFF7CCFE002804D1206A00F0B5F9E06500252846B0BD1CB50C46C0B29C
:2030EC0001A9FFF78BFD002801D0012407E001982146FEF78BFE0446019800F06DF820467B
:20310C001CBD1CB501AC0620207000F04BFA01212046FFF7B7FF044600F03EFA002C01D0BE
:20312C000220C44320461CBD70B504466120C04325684E1B012E08DB2E789E4204D1681C41
:20314C0020602046FFF70AF870BD801C70BD704730B514004C4325001C0044436419050006
:20316C0010002900FFF70AFE001904000D002100280030BD074880F3088800BF00BF00F0EC
:20318C0092FA002801D0FFF7DBFD00F073F8012000F080FA00900020B0B504C90023036082
:2031AC004360531C083001249C4203D220C9641C20C0F9E71046B0BDB0B504460548051DD7
:2031CC006021284600F0E2F928462146FDF792FDB0BDC046FC45002010B54078802807D100
:2031EC00044C2078012803D1FFF71FFF0020207010BDC0467046002010B5002A0AD003782D
:20320C000C78A34204D1491C401C521EF7D11C46181B10BD002010BDA06AE16FCA00801860
:20322C008A0080182278921E059B93405B1D4A1C534399007047FEE718B520239B1A04D859
:20324C00010000205B42994004E004009140DC402143904018BDFEE780B50A4601460348F1
:20326C0003680348984740B280BDC0467C00000F0025002080B50020044A002A014601D0C3
:20328C0001CA1146FFF7DAF980BDC0461C3A000005480168012293030B4303600168D20340
:2032AC000A4302607047C04600350240B0B50023002A05D010C820C965402B43521EF7E776
:2032CC0058425841B0BD10B5C36F08C100249C4204D208CA641C08C1C36FF8E7184610BD53
:2032EC000522920183181B6A5B0703D480580860012070470020704780B501460248026890
:20330C000248904780BDC0468000000F0025002080B50348026803480021904780BDC046F9
:20332C007800000F002500201CB5044C01A92046FFF7D6FF0028F9D11CBDC04600000340A5
:20334C0080B5002904D00A4602490B680021984780BDC046143A000010B503780C78A342E7
:20336C0004D1491C401C521EF7D11C46181B10BD10B504C91346002B03D010C910C05B1E06
:20338C00F9E7104610BD04C10122C36F5B1C9A4203D2002308C1521CF7E7704710B5052201
:2033AC00920113462033C4586407FCD48058086010BD1522120183181B699B0701D400205E
:2033CC0070478150012070470022002903D008C81A43491EF9E750425041704710B5152219
:2033EC00120113461033C458A407FCD5815010BD40B584B002AE0096FEF70EFE029A039B32
:20340C0004B040BD03494143002902D000BF491EFAE77047C2100000A06F029989004258C7
:20342C00D24342500298401C7047A06AE16FCA0080188A0080184A1CD10070474078802800
:20344C0002D00020C043704701200003704710B500239A4203D0CC5CC4545B1CF9E710BDDE
:20346C0080B50B4603214258C11D184600F000F980BDA26FE06F8000295812185268002A2B
:20348C00704780B5826807239A43183AFFF7AFFC80BDFEE701220A40014942547047C04624
:2034AC000031024001208003014908607047C04610320240EFF3108072B6FFF7CDFDFFF7A6
:2034CC0059FEFEE780B50A4603214158104600F05DF880BD002A03D008C908C0521EF9E7A4
:2034EC007047206FE16DCA19A36FE16F00917047A36FE06F0090304629463A4600E0000069
:20350C0082B00094014C019410BD00BF290700000998026890002D18761C2778704700294A
:20352C0003D0002204C0491EF9E7704740787F38022801D2FF207047FEE7032902D3002080
:20354C00C0437047481C704700239A4202D0C1545B1CFAE770472818001F00685242002317
:20356C0046E7A26F0832204629462B4600E0000082B00094014C019410BD00BF4D250000FB
:20358C00A16EA36FE26F00920A4628470A46002180B5FFF7D9FF80BD80B506200121FFF738
:2035AC0079FF80BD80B506200021FFF773FF80BDB81E0A9981408E427047A36FE26F009273
:2035CC000A4670479259A36FE76F0097704705460F46069A059BBBE5E16E069007910890A2
:2035EC007047A36FE26F00920A4630470146E06F421C38466EE7A36FE16F0091314638479C
:20360C00E16CA36FE66F009628479259A36FE56F00957047806807218843283870470168ED
:20362C0081F3088841688F46A36FE56F00953047A36FE66F0096FFE782B00094014C0194FF
:20364C0010BD00BFCD080000204629462A46FFE782B00094014C019410BD00BFBD2B0000B6
:20366C000122204639468EE6802280580860704780B5FFF7ECFE80BD80B5FFF7BDFD80BDB5
:20368C0080B5FFF7C7FF80BDA36F009538E72A463B465DE500F003F8FEE706C0704700BFEB
:0A36AC007047006870470120704766
:2036B8000001020304000102030400010203040001020304000102030400010203040001B5
:2036D800020304000102030400010203040001020304000102030400010203040101010193
:2036F800010202020202030303030304040404040000010203000001020300000102030072
:203718000001020300010203040001020304000102030400010203043059301306072A86DA
:2037380048CE3D020106082A8648CE3D030107034200042ACB403CE8FEED5BA44995A1A94B
:203758001DAEE8DBBE1937CD14FB2F245737E5953988D994B9D65AEBD7CDD5308AD6FE482D
:20377800B24A6A810EE5F07D8B6834CC3A6AFC538EFAC100000000000101010101020202B0
:203798000202020202020203030303030303030303040504040404050404040405040404A6
:2037B8000405040404000000000001010101010000002000C215000000001000C2140000FA
:2037D80000000800EF12000000000400EF110000000000000000000008000000FCFFFFFFC3
:2037F800FFFFFFFFFFFFFFFF00000000000000000000000001000000FFFFFFFFFCFFFFFFC3
:20381800FFFFFFFFFFFFFFFF03000000000000000000000004000000FCFFFFFF0000000098
:20383800080000004B60D2273E3CCE3BF6B053CCB0061D65BC86987655BDEBB3E7933AAAE6
:20385800D835C65ADFBDC42962DF9CD890308478CD05F0ACD62E21F7AB20A2E53448870446
:203878001D0630DC000000000800000096C298D84539A1F4A033EB2D817D0377F240A46382
:20389800E5E6BCF847422CE1F2D1176B08000000F551BF376840B6CBCE5E316B5733CE2BFE
:2038B800169E0F7C4AEBE78E9B7F1AFEE242E34F0300000000000000FFFFFFFFFBFFFFFF88
:2038D800FEFFFFFFFFFFFFFFFDFFFFFF040000000000000008000000512563FCC2CAB9F3C6
:2038F800849E17A7ADFAE6BCFFFFFFFFFFFFFFFF00000000FFFFFFFF08000000FFFFFFFF8F
:20391800FFFFFFFFFFFFFFFF00000000000000000000000001000000FFFFFFFF0001000198
:20393800000100010001000100000101000100010001000101010101000000000000000061
:2039580000000000000000000203040500000000000101000000000000000000000000003F
:20397800000000000001000100000101000100010001000100010001000100010401040317
:2039980004020401040104030103030401040000C8390000D4390000E039000000000000C1
:2039B80077C295F360D2EF7F3552500F2CB67980007F00000000000000600000017F00006E
:2039D80000600000006007000280000000000000006007002A8648CE3D0301070000000011
:2039F80030370000183A00002A8648CE3D0201000303010203030000010000005535000056
:043A18005B0000004F
:083A1C000000000000000000A2
:203A2400001500000FDD01FF0000010F49FFF000CD2500006D340000D1340000020000009F
:143A44006A250000243A000070450020403A00000000002012
:020000044E02AA
:20000000FFFFFFFF000000000000000000000000FFFFFFFFFFFFFFFFAAAAAAAA0000000044
:20002000FFFFFFFFFFFFFFFF00000000FFFFFFFF00000000000000F00000000000000000DC
:200040000000000000000000000000000000000000000000000000000000000000000000A0
:20006000000000000000000000000000000000000000000000000000000000000000000080
:20008000000000000000000000000000000000000000000000000000000000000000000060
:2000A000000000000000000000000000000000000000000000000000000000000000000040
:2007C000000000000000000000000000000000005AA500000101020305080D156DD7E43686
:2007E000EBF431DF95AE15EE03BA8EE4C4C63FD8453F675E74D7C2012C9058E500000000A4
:00000001FF
