:2000000000900020652E0000532E00009F2B0000872C0000872C0000872C0000872C000086
:20002000872C0000872C0000872C0000872C0000872C0000872C0000872C0000872C000028
:20004000872C0000872C0000872C0000872C0000872C0000872C0000872C0000872C000008
:20006000872C0000872C0000872C0000872C0000872C0000872C0000872C0000872C0000E8
:0C008000872C0000872C0000872C00005B
:20008C00F0B58BB00446016CC26A02F002FCE16F4A1C904201D9352591E1002813D0206CDC
:2000AC008A0087180837891C384602F00AFFA168384602F057FE002807D0E66F711C884235
:2000CC0005D9C6257BE1532579E16C2577E123786625022B00D272E1052B00D96FE10890CB
:2000EC00216C0A68981E4342434101252A405A4080200A9022500898E06720463A460B4642
:20010C0002F0F2F820784000001F294681400A982150216C20460A4602F044FCE667E16CAE
:20012C0020460A952A4602F028FE626EA06EE16CA36FE56F0095A34DA847A26EE06E02F0D1
:20014C0025FFA06EE26E02F021FF216F226B204602F09FFBE56FA84201D93C252FE100283F
:20016C000ED0606CE26E216F02F054FF216F626B204602F08EFBE56FA84203D965251EE1C3
:20018C00C3251CE1074600280ED0A06C216FA26E02F040FFE16EE268204602F07AFBE56F84
:2001AC00AF4203D95C250AE1562508E126468036A26EE16E206F02F02DFFE26C206D216FFD
:2001CC00A36FE56F009500F0A9FAE06F421C09963260656D0026277802F0B0FE09DA616CC0
:2001EC00284602F049FE0998026890002D18761CF1E7A56D002602F0A1FE06DAA16C2846DE
:20020C0002F03AFE02F056FEF5E7E56D002602F095FE06DAE16C284602F02EFE02F04AFE96
:20022C00F5E7216C08688007C20F089840010290401C0190002507952B460A9E02988642E5
:20024C00E8B26AD80490069308920198801BB84200D33846099A10602046324602F0C0FAD3
:20026C004119C8B27B1E01252A469A409042059500DA00252B46BB4090420A9600DB4842E7
:20028C001818089A5049895C9600504A9219079F7B00D218525D920051180006800D001FC0
:2002AC0004229043081809990860204600F09EF86800474989190918049A895C03914549C3
:2002CC0089190818C75D079720780490811E42488019405C0A9E36181420089A50433F4A1C
:2002EC001218052041435118069D4D5D216C720992008A581F233340DA40059B1A40039F82
:20030C007A4042430A20089B5843354B18188018425D2B463D46049F90E7012810D107988C
:20032C008000C01C099E30602E4D2046A847012030602046A847022030602046A8472778A2
:20034C009925032F3BD30020C0430890B91E01200A908840FE30099EC7B20A983060002FCF
:20036C0011D07A1C2046394600F0BEFF0A9830602078801E08998140C94320463A4600F0BC
:20038C00B3FF781EE8E72078801E089F39468140CA43002107912046134B98470A98306082
:2003AC002078801E8740FA432046079F39460E4B98470A9A3260204639460B4B9847284676
:2003CC000BB0F0BD290700006C330000C832000098320000E0320000B032000044300000AE
:2003EC0017310000F9030000F5120000F0B589B0044680202158C8080D460391E26F511CF0
:20040C004143E06DC9B28F00C019616F636C06AE0BC6A807060F05A88159206EA36F00927B
:20042C00BB4D0A46A847606E02F09CFD05A88059A16CA36FE26F0092B64D0A46A847E06EF8
:20044C00216FA26C636E06920791089305A98959E26DD2190497236EE56C06920793089540
:20046C0005AA02F098FDAA4DA847606EE16EE26C06AB07C305A88059E26F521C02F0FCFC3F
:20048C00E06E216F06900791089005A88059216E02F059FD9F4DA847206FA16E06900790A9
:2004AC00089105A88059A16DC919226E636E06AD0EC505A98959A26CE36C656F0693079544
:2004CC00089205AA02F067FD914DA847606F216E06900791089005A88059A16E02F033FDC9
:2004EC008C4DA847234660330ECB06930791089205A88759E56C606F06910795089005A962
:20050C00895906920790089305A88259A36FE06F009038467E4DA847226E606E616F06AB93
:20052C0007C305A88559E16EA36FE06F00902846784FB847216E226DA36FE06F0090284669
:20054C00B847E06C616E226E06AB07C305A88159E06E626FA36E06AD0DC505A8805902F0B6
:20056C00F2FC6B4DA847616EA06D049FC219E56E06A826C005A988590290216F226E636F86
:20058C0006910792089305A98959E26DD219636C06950792089305AA02F0FDFC5C4DA847EA
:2005AC00606EE16DC919E26E06AB07C305A88059E16F4A1C029902F05FFC206D02F0D2FCF5
:2005CC0005A88159206F226E06900792089005A8805902F0B8FC4F4DA847606E616FA26E3D
:2005EC0006AB07C305A88059216EE36E06920791089305A98A59A36FE16F0091464D0146E5
:20060C00A847226F216E206D06920791089005A88059636E06AD0EC505A98959636CA76E19
:20062C0006930797089205AA02F092FC384DA847616F606D049D4019626C0691079008920D
:20064C0005A88059A26E06920791089205A98959E26E236F06920793089205AA02F078FCDB
:20066C002D4FB847606F02F07DFC05A88059626C636D5B1906920793089205AA02F068FC50
:20068C00254FB847616FA06EE26E06910790089205A88059636D5B1906930792089105A9A2
:2006AC008959636E276E06920793089705AA02F04FFC174FB847616FA06D4019A26C0691E9
:2006CC000790089205A880590490A26E042303980340E76E606E069707901B1D05ADED5828
:2006EC0006910792089505A98959226F256E0690079705A8C05806920795089005A8825920
:20070C00A36FE06F00900498034CA04709B0F0BD29070000CD08000055090000F8B444460B
:20072C004D4656465F46F0B400B501B40B9B5B005B1C6C469B00E31A9D4610B46C46241D6F
:20074C0000266D46009CE36A2D1D9B00EE505B00EE50E36A013B9B0098465B0099460023B0
:20076C0000240025002702E0370040463F1A9A46A346AC46B646F01B1458C859030C80B275
:20078C00250CA4B21E006E436343454360431C041B0C00195E412C042D0C00196E4153465D
:2007AC005C4665461B1874410020454176460437474501DCB742DADD6846001D835123463A
:2007CC002C46002504364645CCDD4E45CCDD8351009B9969083102464E4604361068009BF9
:2007EC009C6924684443A14600270023002400259A46A346AC46B6464C46C859030C80B2B0
:20080C00250CA4B21E006E436343454360431C041B0C00195E412C042D0C00196E415346DC
:20082C005C4665461B18744100204541D0591B18002044414541002F02D0043FD3510437A7
:20084C000437764623462C4600254745D0DD301D8742EBDD043FD351043E464500DDBDE7C9
:20086C0010BC2068E36A9B46024691466846012720C840C97F08B5417F4120C2013BF7D1E1
:20088C0005682F430126F741FF17FE4368463840494631400843494639406D4635402943AA
:2008AC005B4604C904C0013BFBD1A54603BC8E46F0BCA046A946B246BB46F8BC7047C04689
:2008CC00F0B444464D46564670B48146079CA246002720C940CA7F0875417F4120C0013C05
:2008EC00F7D1B8464846083354466A46A400141BA54604B46A46121D5446012720C840CB09
:20090C007F08B5417F4120C2013CF7D1424617430126F741FF17FE4348466946091D0D4659
:20092C00384031400843494631403D402943544604C904C0013CFBD101BC854670BCA046C0
:20094C00A946B246F0BC7047F0B444464D46564670B48146079CA246012720C940CA7F08CC
:20096C00B5417F4120C0013CF7D1B8464846083354466A46A400141BA54604B46A46121D6A
:20098C005446002720C840CB7F0875417F4120C2013CF7D147460126F741FF17FE434846E2
:2009AC006946091D0D463040394008434946394035402943544604C904C0013CFBD101BCF5
:2009CC00854670BCA046A946B246F0BC7047C046F0B444464D4630B4884699466C469B003F
:2009EC00E31A9D4610B46C46241D4B460832012720C940CA7F08B5417F4120C4013BF7D149
:200A0C006A46121D0125EF41FF17FD43414629403A4011434B4610C910C0013BFBD101BC82
:200A2C00854630BCA046A946F0BC7047F0B591B01D46174610910446866A8168304602F0E9
:200A4C00CDF8E067002804D00246FF2803D928201DE16C201BE1307AC00701D1822016E18D
:200A6C00501C8300F058002837D0099717980E90D000089037180B970837F8180A9031465E
:200A8C00061D0C93F018001D0F902046079101F027F82046394601F095F8A36FE06F009062
:200AAC00304639463A46FFF70BFFE06F40018021605020460F990D9632460E463B4601F0E5
:200ACC003FFB02F059FA204631460E9A01F0E1FEE16F884203D92220D9E02320D7E0002823
:200AEC002ED00C9830180E903A46069727468037A36F00910D983146FFF710FE2078801E28
:200B0C000321059181400C310497396020460D9F394600F0F7FA02F02FFAA36FE06F00905F
:200B2C00304639460E9F069AFFF7F8FD204639462A4601F0AEFEE16F884203D92720A6E0C7
:200B4C002120A4E0002824D03246169803900C983E18A36F0091069D28463946FFF7DEFDF1
:200B6C0002F044FA02F096F9E36F0B9DAB600C35A26F284602963146039EFFF729FF2046BF
:200B8C003946324601F085FEE16F884203D911207DE072207BE0002878D00B95029E0C9A17
:200BAC00B018801880180C90A36F00910D9D284639460F9AFFF7B2FD02F018FA02F06AF9B4
:200BCC00E36F0A9F7B600837A26F38463146FFF7FFFE6069A1690C9AA262069AE2620F9DEE
:200BEC0020636163204600F009FE99284FD102F0F6F841180C31284602F03EF902F01EF84F
:200C0C0041180C310E9802F037F92046FFF738FA99283CD12046029901F0AAFE0D98E0628D
:200C2C00109820630998606302F0D9F840180C30294602F021F902F001F840180C300E9921
:200C4C0002F01AF92046FFF71BFA99281FD10A97022004990860002520462946029A00F013
:200C6C0043FB0698A0630D98E063204600F0C0FEA06BE16F02F08CF800280BD0E06BE16F1E
:200C8C0002F086F8002805D0E32000E01220C0B211B0F0BD079EA662E76FA168304601F073
:200CAC009DFF0246E0672046314600F019FF38467F1C81000898411889190C310A98039E63
:200CCC00E26F531C9F4202D220C17F1CF8E70D9D2A60A26FE36F0B99FFF77AFEE06F421CE2
:200CEC002846314601F0F4FF01465A200029CED0C043CCE7F0B58DB00D4604467C48006836
:200D0C0006907C4860627C482065274620370026022E0CD00020314602F0E1F8C0B2394619
:200D2C0001F010FF761C2C370028F1D0FEE7204601F0CAFE002807D100262046314632464A
:200D4C0001F00CFD002838D058200121215407A8C17100200C900021204600F033FC67495B
:200D6C000968634A176888420CD1B8420AD064490968884206D00C99491C0C910C9901291B
:200D8C00074616D100260A96099608960796206A417829714068A8602C60022E0AD001202F
:200DAC0070402C2141436018006A01F056FF761CF3E7FEE738460DB0F0BD204601F01FF9D6
:200DCC000028C1D007A8867109960A9601210791FF210591023181800496304601F06AF862
:200DEC000746801E02280ED801262046314600F0E9FB42490968884205D0414909688842B4
:200E0C0000D005263746F8B2224658325821675407A9CF71811E032907D2029201200CA980
:200E2C0001F090FE002812D0FEE70128069F01D0052813D104990C91012800D18BE70021C1
:200E4C0007AA204601F08AFC00289BD183E702200BA901F077FE002803D0FEE705981070C1
:200E6C00FEE7A06A0421049F0395002812D00590606A46580C980D463946324601F054FBE2
:200E8C00002806D1F71908350598401E2946039DEBE7FEE70B990C9A00230093019701F0B0
:200EAC0011FB002800D0FEE70B98216D4A68002101F03AFB002800D0FEE7216D606DC20019
:200ECC000B985218083A136852680968591A01F02BFB002800D0FEE70C9801F0BEFE0B98B6
:200EEC0001F0BBFE02980078FF28069FB8D0A1E7584600200000002000100020604600207A
:200F0C005C460020F0B5BFB004931646469C78480068019001F002FF002C05D04799012964
:200F2C0002DB204601F0AAFE4898029045980590449D307A717A09020818317B727B120297
:200F4C005118B27B1204F37B1B069A1851180818B17A0396F27A1202511846180027BE42DD
:200F6C0012D9F41B0598844200D3059C049839462A46234601F0BDFD002808D1284621461F
:200F8C0001F07CFEE719EAE706A801F0BBFE01F03CFDBE4216D80298002803D006A9202213
:200FAC0002F02CF8002700972EA8524B0399049A00F06CFE002805D1339C049802F026F8D1
:200FCC00844203D94A4800683FB0F0BDFD434A48006805902C4626462EA836A935AA34ABAD
:200FEC0000F012FF0028EDD400D07BE034A80088222807D1002E2C46EDD4059886422C4612
:20100C00E9DA57E001281AD010283446E3D135A800882028D6D136990EAA2023049801F0A6
:20102C0068FD0028CED106A80EA9202201F0EAFF33490968012788423446CCD0C2E735A87C
:20104C000388202BBED836990EAA049801F051FD0028B7D135A8017820292C46BBD800243E
:20106C000291059884421FDAE60024488019039001F054FE2148805903994968096801F0C3
:20108C00FDFD37A801F03EFE029A002A0ED00EA837A90B780678B34204D1401C491C521E08
:2010AC00F7D104E0641CDCE72C4600E0002401F0ACFC90E735A80388802B00D982E736998B
:2010CC000EAA049801F015FD002800D07AE735A80388F0B2009006A820210EAA00F000FB28
:2010EC00019077E7002F00D16CE701986CE7C04658460020FFFF0000743300005C330000BE
:20110C0060460020F0B589B00D4680214158032901D8002200E001220392052901D30222AD
:20112C000392C36F072901D30321039102468032032B089007920BD311680B2901D3042044
:20114C000390082B04D31168132901D3052003900398441E0127591C8A00A1408900691896
:20116C0004918E18B1180691022809D30898806F05900093069829462A46059BFFF7CEFA30
:20118C003846A040059002952C46089D38B2059981420FDDAB6FE96F88000019001D0091AA
:2011AC002146069AFFF7BAFAE86F80000019041D7F1CEBE7089FB86F8068411E4C424C41C4
:2011CC00801E079908603846069D294601F012FF012001B2FA6F8A4211D9BA6F89005218BC
:2011EC009268E3B2012B07D10023002A02D0521E1C4601E00124DA436A50401CE9E7521CE8
:20120C000498029901F038FEB96FF86F820089184A680021002A02D05208491CFAE7400102
:20122C004218223A0498044610B200284FD4D0082C49084028581F211140C840C0070898E4
:20124C0037D0059292B20399079B1960294601F005F9049000252746E8B2079C21688142DC
:20126C000CD90898836FC06F0090304639463A46FFF754FA6D1C34463E46ECE70498401E1F
:20128C0081B2C90B4018400880B208998B6FC96F4A1C42439000029A1218009130463946CF
:2012AC00FFF73CFA2088059A121A30463E46069DB9E7836FC06F00903046214617462246F3
:2012CC00FFF72CFA3A467A1E30462646ABE70898C06F421C029D2846214601F0CDFD284690
:2012EC0009B0F0BDFC1F0000FEB515460446C26F571C8023C358022B13D0012B06D0002B6A
:20130C0015D1656CA06C0190E06C0EE07D43636DA66DE06D0290A8001D1833180193029B58
:20132C0002E0B8002B1801931818029002E00025019502957943E06D8F00C119E06EA36F68
:20134C000092514E0A46B047206EE26EA36FE16F00912946B04701F096FD0199B047354642
:20136C00606EE26E216FA36FE66F0096A8472E46E06EA36FE16F0091029D29462A46B0479D
:20138C00E26E206F616DC919A36FE66F00963E4EB047606DA16DC019C919A36FE26F0092A7
:2013AC002A46B047616DA06DC019C919E26EA36FE66F0096344EB047606DC019216F226E98
:2013CC00A36FE66F0096314EB04701F05CFD29462D4EB047E06DC019616DC919226F01F00B
:2013EC00E9FD206FA16DC919626EA36FE56F0095264DA847606DC119E06E01F0B8FDA06EA6
:20140C00216F01F0B4FDA06DC019216EE26E01F0D1FD206EE16E626DD21901F0CBFDA06EAC
:20142C00226EA36FE16F00910146184EB047E06EA16DC919A36FE26F00920A46FFF740FAC6
:20144C00606DC019A16EE26E01F0B4FDA06E626DA16DC919D21901F0ADFD216F25467435E2
:20146C0029CDA26E0095084EB047E06E226E616E01F0A0FDA06DC019254674352ACDE26EFC
:20148C000095024CA047FEBD2907000055090000F8B515460E460446806AA067616801F0DC
:2014AC009DFB0246E067A16F204600F019FBA06FE26FD1004118083190000A18121D1318B0
:2014CC001B1D1818001D274660370EC7E0663B4F20463246B847616E20462A46B847A16E42
:2014EC0062682046B847304601F0A1FDE16FE426884260D1284601F09AFD0146E06F814208
:20150C0059D1206E01F044FC002807D0606EE16F01F03EFC002801D0E3264CE0A36EE16E00
:20152C00226E204600F056FEE126012843D1E16EE06F8000085800283DD1626EA36E204626
:20154C0000F048FEE226012835D1E06EE56FA900405800282FD1A06E216EE269A36F009578
:20156C00174DA847206E01F0DDFCE06E216E226A01F024FD206EA26EE16EA36FE66F00964F
:20158C00A847E06E216E626A01F018FD616EA06EE269A36FE66F0096A847606E01F0C2FC10
:2015AC00606EE16EE26F01F093FB002801D11A2000E01920C643F0B2F8BDC0469F280000B8
:2015CC0029070000F0B587B00C4605463F4806680027384601F083FCC0B206A901F0B2FA8E
:2015EC0000285BD12846214601F04CF80126002851D02C2060432918087CC0064BD40E4624
:20160C00002C12D02846403001782A7D91420CD807D20021284601F035F8002805D00698DA
:20162C0033E041786A7D914243D9069B0497039702970120000201902648009038463946DE
:20164C0035463246FFF75EFC0646069829786A7812025118AA781204EB781B069A1851187A
:20166C001D4A91420FD1297B6A7B12025118AA7B1204EB7B1B069A1851182A7A6B7A1B02BB
:20168C009A1851180DD3002C03D08268002100F04BFF0F480668069801F0DFFA304607B0A5
:2016AC00F0BD82689142EED20C4909688E42F2D0E9E7AED38178C07800024018A97DEA7D33
:2016CC00120251188842A4D3AFE7C046584600205C460020002400203DB8F396604600209C
:2016EC00F0B597B01F46164601901C983E490D68C0003E490A18085802905168096844180F
:20170C0001F035F902A816AA3023214601F02EFA002804D000F0C3FC284617B0F0BD02983A
:20172C001699441802A806AA03AB214600F09AFD0028EFD107980728ECD108982C490722EB
:20174C0001F004FB0028E5D104980828E2D105982849082201F0FAFA0028DBD102A816AAD5
:20176C00214601F06BF90028D4D116994129D1D102984118A142CDD101780429CAD1441C04
:20178C000294F519039603A816AA3023294601F0EDF9002813D1039816994018A8420ED87E
:2017AC0006A803A92A4600F045FF002807D106A8203003A92A4600F03DFF002808D00A4986
:2017CC00084605680C4800688542A3D00D68A1E706AA2046019900F0D9FE002801D0024895
:2017EC0000E005480049ECE7584600205C330000643300005033000060460020F0B589B089
:20180C000446806AA067616801F0E8F9E067002804D00246FF2803D9D2206FE008206DE0A2
:20182C00A16F087AC00701D1DC2067E090000B185B68002B61D0D300CB18083303931D18A0
:20184C0008352E18361D079637183E1D06963618361D059637183E1D08962678B31E561C5E
:20186C009E40B600089FBB1902939F190497039B23646564079BA364069BE364059B2365BE
:20188C00089B6365029BA365049BE3659B1908931D182D1D2E18361D37183F1D3B181B1DA8
:2018AC001818001D0790089820666566A666E766236707986067204600F012F9E16C2046EA
:2018CC0000F080F9206EE16CA36FE26F00920A46FEF7F6FFE06F400180216050226E656E45
:2018EC00A16E20462B4600F02BFC0146E06F421C284601F0C1FA992000E0302009B0F0BD82
:20190C00F0B5FFB0FFB0D3B005460920C44331A8032101802C4932912C4933912C49349191
:20192C002C4935912C4936912C4937912C4938912C4939912C493A9153A93B912C305C2189
:20194C0001F0F6FA28684168412937D106683078042833D1082028901F9016900D90049043
:20196C00686816A9091D214FB847A8680DA9091DB847E86804A9091DB847701C28AD291D83
:20198C00B8473A4621361FAF391D3046904731A829463A46FFF77CFDE6280ED104A8019093
:2019AC000DA8009031A828A91FAA16ABFFF73EF80024A52802D0E44300E0093420467FB0DA
:2019CC007FB053B0F0BDC0467432000050320000543100009C310000E4310000083200004D
:2019EC002C32000078310000C0310000E5290000F0B585B00446016C0B1D08460491E16FE9
:201A0C004A1C91005F180397D1005918029180256251616D304EB047A16D62593846B04704
:201A2C00E16D6259029F3846B0472078801E03218140C81D6051204639463E46FFF762FB0E
:201A4C00606EA36FE16F0091244F31463246B847206E626E01F095FA226EA36FE06F0090F9
:201A6C003046039D2946B847626EA36FE06F009028460499B847A06F616801F0AFF8A16F8B
:201A8C00E26F204600F02CF8216F0122204601F074F9A06E226FA36FE16F00912946B847F8
:201AAC00A16EA26FE36F2846FEF792FFA16B20462A4601F01AF9E06E226F01F062FAE16E53
:201ACC00A26FE36F3046FEF783FFE16B2046324601F00BF905B0F0BD852E00002907000046
:201AEC00F0B587B002920C46049003918A680692C86808340026951C074603460590774140
:201B0C002846394601F046F8801C714101F085FA01F023FA801C714101F07FFA00900191F7
:201B2C00069D2A46059F3B4601F034F8801C7141009A019B01F02EF80190009101F06DFA2F
:201B4C00801C7141019A009B01F024F801F005FA801C71412A463B46029F01F01BF8039A77
:201B6C0003C2B800083A11184968CA0F049B5A7000290FD4002102233A46002A1CD0256809
:201B8C00ED43EE0F6D00EB184E412350521E241D3346F2E701223946334600290CD02568EA
:201BAC00ED43AD18255013435A1E93416A426A411A40491E241DEFE7049803998167C76790
:201BCC0007B0F0BDFEB50D4604460220009002900298E16F891C884202D201F0F7F8F6E717
:201BEC0001222046294601F0C8F8A36F0833204629462A4600F0D3FD01F015F902D001F01C
:201C0C007CF901462046803001908020215001F0E1F901F078F9E06F800000262E5002960C
:201C2C002F1F0299E06FC20E12075242914221D281007918012807DB4A684B881204D2187B
:201C4C004A60401E091FF5E728680004286001F0EAF802D001F051F901460198016001F03E
:201C6C00B9F901F050F9E06F80002E500298401C0290D6E7009902910299801C814204D2DE
:201C8C0001F0A4F80290E06FF6E7FEBDF0B585B00024E743002820D00E4600291DD0002A5E
:201CAC001BD005460193307A717A090208180390317B1046727B12025118B27B1204F37BDE
:201CCC001B069A185118039A891804AA04230290039100F00EFF002802D0384605B0F0BDAC
:201CEC001A4904A800884A1CB17AF37A1B025918904210D104A8408881420398EDD1411819
:201D0C0004AA0423029800F0F4FE0028E5D104A80088039A02E00029039ADED10B49884242
:201D2C00DBD10A982E600299696001992981A872B07AF17A090208181018E86004A949884B
:201D4C0040186861101D28612746C6E707690000F0B585B00D4604468168103901AA10238F
:201D6C0000F0C7FE002808D401A91022204600F07DFE002803D0032011E001263FE000207C
:201D8C00204901AA125C0B5C9A4203D1401C1028F7D113469A4201D0022000E00120287081
:201DAC00A1680727B94328396A4601262046334600F09FFE002822D4694608780F22024080
:201DCC006A700009287101262046324600F04EFE002802D16878052803D301206870002043
:201DEC002871A91CA268BA43203A204600F06DFD002804D1E91C204601F01DF80646304628
:201E0C0005B0F0BD1C330000F0B585B00026F743002836D004460068002832D060680028D1
:201E2C002FD0019302910392216960690125814228D22068827AC07A0002801804D0E06831
:201E4C00814201D1091D2161606804AA042300F050FE002815D1A07A002803D0E068216969
:201E6C0081420FD22089124988420ED004A9098881420AD004A8408821694018011D216135
:201E8C00D3E73D46284605B0F0BD019A002A039901D0049810802069001D029A106004A86D
:201EAC004088088021694018001D20613546E9E7FFFF0000F0B587B0012405A9204600F0F8
:201ECC002DFEFF2500283ED1022003A900F026FE002838D105AA107803AB1978D578019504
:201EEC00DB780093927802921122D6431A4F002E28D0BB199A7C042A06D0052A02D101285E
:201F0C0002D11DE082421BD1DA7C042A06D0052A02D1012902D113E08A4211D11A7D042A76
:201F2C0002D0019DAA420BD15A7D042A02D0009DAA4205D19A7D042A08D0029DAA4205D0AA
:201F4C00B61DD4E72546284607B0F0BDDD7DA81E0328F8D3FF25F6E7F8320000F0B58B42F7
:201F6C0000D1824204D90B0002000021002040E0002B00D1002A0CD10B0002000021002024
:201F8C00002B00D1002A01D0C943C04300F085FD2FE01C0015000B0002000CB40021260069
:201FAC002F00FF19764102D2491C4029F9D100201E001700FF19764102D2401C4028F9D125
:201FCC000E1A21002800320000F048FE0C0005000CBC00200021A34200D1AA4201D3521B1F
:201FEC00A341404149416D08E7073D436408761EF1D5059F002F01D03A607B60F0BDF0B5D2
:20200C0085B0012104914B02826A00219A4243D80390446D01949C423ED8002007460546F2
:20202C0002900346EE00361D039C954206D3019C1146029AA242039C0A4623D2874209D02F
:20204C000FD2022B27D0636A9B59DF196D1C0836049BEAE7214614464F6ABE5937186D1C16
:20206C0004E0012B17D0214614460223029A561C0096096DD6008E1976683018009902918E
:20208C002246CFE76A4001981146029A42400A435142514100E00021084605B0F0BD704784
:2020AC00F8B503465F20C0431D684E1B012E0BDB00242F57002F08D46F1C1F602E781660BE
:2020CC00C91B8E4200D82046F8BD00947F2427407F1E032F32D8C0467F443F797F00BF44D3
:2020EC0001220713012EEFD06E781660AF1C22E0042EE9D36C782404AE7836023419EE7875
:20210C00A61916602F1D16E0052EDDD36C782406AE7836043419EE783602A4192E79A619DD
:20212C0016606F1D07E0032ECED36C782402AE78A6191660EF1C1F60009CC1E7001FF8BDD1
:20214C00F0B587B01E460F460446836FC06F0090084611460292FEF7E1FA80200594205829
:20216C000490002101200390C5070A46002D2ED00692002A0DD00598836FC06F0090304640
:20218C000C4639463A46FEF7C9FA214630463E4607462C4604980440002911D0002C11D013
:2021AC000598836FC06F0090304606913946029AFEF7B4FA06993846039A3746064603E094
:2021CC00069A01E00024039A21436D08CEE7384607B0F0BDF0B585B0029000921568280C92
:2021EC0001931E68F7433F0C1D4CB443ADB22C19641C250C3E1876193504A4B22C190C605A
:20220C00012297B20298C46F651CBD421CD9300C0390BF000098C5592E0C0198C459E343AA
:20222C001B0C084604920E4AA243A9B2039C091989180A0C9B199E18320489B252180146EB
:20224C00C251049A521CDCE7A0000A58521C01D0002003E0081800210160012005B0F0BD27
:20226C00FFFF0000FEB51C4617460E46054602AA302300F07BFC002800D0FEBD6520C243A0
:20228C002868311A012927DB019201783A4602C20299461806232846314600F067FC002859
:2022AC00EBD12868B860796840182860B04215D00178224602C2401C286028463146FFF7B2
:2022CC00EFFE0028D9D12868A060616840182860B04207D00198FEBD901DFEBD0C212046E2
:2022EC0000F028FD0020FEBDF0B587B006930592802202908058020C019280B20090002641
:20230C00344632460298C06F824228D20491059802C80590080C0392069A08CA06921A0CCE
:20232C008DB2009F3946694309199BB2C9180B0C4743BC19E3181C0C019F7D43AA189BB230
:20234C00D218130C78432018C018060C84B21004039A89B24018049901C1521CD2E7300457
:20236C002043086007B0F0BDF8B5451C00780023082B32D02F78C2070CD16A780F2414408E
:20238C00E41C122C0BD102242E57F4B2002E08D4EE1C0EE06D1C4A1C0F7011461AE0AE1C3B
:2023AC0008E02E1DED7800957F252C40009DED012C1912343D0112095219094DAA420ED0DA
:2023CC00D243002C05D08D5C4F1C0D70641E3946F7E7354640085B1CCAE72846C5E7F8BD71
:2023EC00FF0F00001FB500F065FC00F02DFD01A800F004FC00281FD10198017842781202F3
:20240C00511882781204C0780006801840181249884211D17D2082000F20032100F0F6FAB0
:20242C00039801990A7A497A09028918401800F0BCFD002004B010BD00F03CFC0E240A2141
:20244C003222204600F0E2FA7D20C2000221204600F0DCFAF2E7C0463DB8F396FCB501230A
:20246C00DD438023C4588030944205D90B68541C9540AB4304601CE0521C0192171B1F2293
:20248C00FB0800921740FF26B6001E408B59FB406A1C1546A540AB433D19212D09D3891916
:2024AC004968019D009E3540AA409143621B9140CB18611EDA0703D15B080160491EF9E780
:2024CC00D8B2FCBDF0B587B005930392049100260D990C9802900196124FB1421CD90D46DA
:2024EC008C1B012006908002844200D304460598311804983A46234600F0FBFA00280DD1B7
:20250C000298311803983A46234600F005F9A61900282946E1D001E001980690069807B0EE
:20252C00F0BDC04600200020FEB5436884685D18AF18E1188F4200D9FEE70022D1434078A0
:20254C007F2818D1680500D0FEE7029201910C4EBD420FD23468002030600A4802680A4803
:20256C00294690473460054949194D1C0006EFD0019900E002990846FEBDC046FF0700006D
:20258C00244402405800000F8FA0E3B7F0B599B014460191074602AE04203070701C2025E9
:2025AC0039462A4600F02AFD30462130203739462A4600F023FD17AD41222846314600F0F0
:2025CC0032FD13950198149015942034169413A8FFF796F9002801D00020C04319B0F0BD62
:2025EC00F0B50024114B261D102E10D01D592C7884423446F7D100206B787F2B08D10C4B4A
:20260C00AC68E418E40A0E68A64203D2FEE70020C043F0BD6D682646002E05D05F1CA0C2A7
:20262C00ED19761E0032F7E70C60F0BD0C330000FF0700007CB513460C46064601AA02258C
:20264C00084619462B4600F091FA002801D0E8437CBD019D202D05D3206841192039202238
:20266C00304608E02020411B304600F061FC701B203021682A4600F0C1FC206840192060AF
:20268C0000207CBDF8B50E4605460024204600F026FCC0B2694600F055FA002801D0E04371
:2026AC00F8BD009800F014FC0746009800F0D5FA2C20704328182146042C03D0425C4C1C6E
:2026CC00BA42F8D00020042900D2C043F8BDF0B513681C0C80254559AEB29BB2F618330CCE
:2026EC002D0C2C19E3181C04B5B264190C6001241B0CE5B2C66FAE420CD9AD005659370C59
:20270C00B6B2F618330CDB191F04B6B2BE194E51641CEDE71846F0BDF8B5456886686C18D8
:20272C00E1187519A94200D9FEE7407800257F280CD1074807680560064806680648114678
:20274C002246B04702490F60002800D0E843F8BD244402406000000F8FA0E3B7FEB5029253
:20276C000091064600200190C5433746012D0BD06C1C304621463A46029B00F0DDF80028C2
:20278C0004D12C372546F1E70198FEBD009A002A014600D11146002D00D10846FEBDFEB571
:2027AC0000AC0EC4014600252846AEB2CF6FB74215D9B600019A97593C0C029A93591A0CF9
:2027CC009BB2BFB23818C318180C12191218100C12049BB2D218009B9A516D1CE5E7FEBD8C
:2027EC0070B50023DC4355091F231340EAB292008958D940802545592646AE40B143ED18B5
:20280C00212D09D3006C80184068203DAC40A0432022D21A90404118C8B270BD70B50A4835
:20282C000A4C84420CD00A4D0A4EB54208D02A686968501C12789200A25890470835F4E742
:20284C0000BF00BF70BDC046A433000098330000AC330000BC330000FCB4020C0B0CFF2453
:20286C002402FF34204021400C00444315005D4306005E430F005743320C3B0CA818C0187D
:20288C0032043B040025A1186841C9186841FCBC704770B508CAC46F641CA34200D323466C
:2028AC000C461D46002D03D040CA40C46D1EF9E79A0089181A46C46F641CA24203D20024B3
:2028CC0010C1521CF7E7184670BD70B50C460546012611462246334600F00BF900280ED425
:2028EC0001222846214600F0C1F8002801D0032003E02078012800D002202070002630464D
:20290C0070BDBCB50D460446012040020190012901D0502000E02420225801A92846FFF765
:20292C005FFE002800D0BCBD012D01D0542100E02821019A6250BCBD1CB51446002000F01F
:20294C00CEFAC0B201A900F0FDF8002801D001240BE0019800212023224600F0CAF8044638
:20296C00019800F07AF9601E844120461CBD7047F8B50D460446C06F421C8027E251616D97
:20298C00074E2846B047E25990002D18A16D2846B047E25990002818E16DB047F8BDC046E3
:2029AC00852E0000F0B514688023C5580023651B1C465C410D600125EEB2C76FB74209D991
:2029CC00B6009759E7191C465C417F1E5C418F516D1CF1E7E043F0BDF0B502461E3200239B
:2029EC00202B11D01F245C40951E561E36781778045D2D782D06360475193E02AD192C1910
:202A0C00CC501B1D121FEBE7F0BD7047F8B514460091012787400026074D0098864209D2B3
:202A2C002F60204600F0C8F92F61204600F0C4F9761CF2E7F8BDC04610320240B0B51546D7
:202A4C000446032300F092F8002800D0B0BD6720C04329680029F9D0491E296021680A7813
:202A6C00002AF3D1481C20600020B0BDB0B50D4601460020002D0FD01446002A0CD0084612
:202A8C0000F026FA014660426041002C04D02A78641E6D1C8A42F6D0B0BD70470648417826
:202AAC00032900D880300078FD2804D30348044901600449416070472F03004E181100405B
:202ACC00E3887F09E3387F49B0B5044601252946FFF717FF00280AD102212046FFF711FF32
:202AEC00002804D1206A00F083F9E06500252846B0BD70B5446885686118CE182C19A64248
:202B0C0000D9FEE7407800247F2804D110461A4600F074FA00E0E443204670BD1CB50C46C2
:202B2C00C0B201A900F00EF8002801D0012407E001982146FFF70CF90446019800F08DF81F
:202B4C0020461CBD70B50022074B1446251D102D07D01E59347884422C46F7D10E60002030
:202B6C0070BDD04370BDC0460C33000070B504466120C04325684E1B012E08DB2E789E4216
:202B8C0004D1681C20602046FFF78AFA70BD801C70BDFEE730B514004C4325001C00444345
:202BAC006419050010002900FFF756FE001904000D002100280030BD074880F3088800BF93
:202BCC0000BF00F036FA002801D0FFF727FE00F063F8012000F024FA00900020B0B504C99A
:202BEC00002303604360531C083001249C4203D220C9641C20C0F9E71046B0BDB0B5044686
:202C0C000548051D6021284600F092F928462146FEF770F8B0BDC046F445002010B5002AE2
:202C2C000AD003780C78A34204D1491C401C521EF7D11C46181B10BD002010BDA06AE16F53
:202C4C00CA0080188A0080182278921E059B93405B1D4A1C534399007047704718B520239C
:202C6C009B1A04D8010000205B42994004E004009140DC402143904018BDFEE780B50A46D8
:202C8C000146034803680348984740B280BDC0467C00000F0025002080B50020044A002A2F
:202CAC00014601D001CA1146FFF79CFB80BDC0468033000005480168012293030B4303602B
:202CCC000168D2030A4302607047C04600350240B0B50023002A05D010C820C965402B436C
:202CEC00521EF7E758425841B0BD10B5C36F08C100249C4204D208CA641C08C1C36FF8E716
:202D0C00184610BD80B50146024802680248904780BDC0468000000F0025002080B5034894
:202D2C00026803480021904780BDC0467800000F0025002080B5002904D00A4602490B688B
:202D4C000021984780BDC0467833000010B503780C78A34204D1491C401C521EF7D11C46A0
:202D6C00181B10BD10B504C91346002B03D010C910C05B1EF9E7104610BD04C10122C36F1F
:202D8C005B1C9A4203D2002308C1521CF7E770470022002903D008C81A43491EF9E75042EC
:202DAC005041704740B584B002AE0096FFF7D6F8029A039B04B040BD03494143002902D0D6
:202DCC0000BF491EFAE77047C2100000A06F029989004258D24342500298401C7047A06A2C
:202DEC00E16FCA0080188A0080184A1CD100704740787F2802D00020C04370470120C00217
:202E0C00704710B500239A4203D0CC5CC4545B1CF9E710BD80B50B4603214258C11D184674
:202E2C0000F0ECF880BDA26FE06F8000295812185268002A704780B5826807239A43183AD7
:202E4C00FFF743FD80BDFEE701208003014908607047C04610320240EFF3108072B6FFF7E7
:202E6C001DFEFFF7A9FEFEE780B50A4603214158104600F05DF880BD002A03D008C908C0F9
:202E8C00521EF9E77047206FE16DCA19A36FE16F00917047A36FE06F0090304629463A465F
:202EAC0000E0000082B00094014C019410BD00BF290700000998026890002D18761C2778B1
:202ECC007047002903D0002204C0491EF9E7704740787F38022801D2FF207047FEE70329FC
:202EEC0002D30020C0437047481C704700239A4202D0C1545B1CFAE770472818001F006840
:202F0C00524200234EE7A26F0832204629462B4600E0000082B00094014C019410BD00BF14
:202F2C00F5220000A16EA36FE26F00920A4628470A46002180B5FFF7D9FF80BDB81E0A9981
:202F4C0081408E427047A36FE26F00920A4670479259A36FE76F0097704705460F46069A40
:202F6C00059B17E6E16E0690079108907047A36FE26F00920A4630470146E06F421C3846AE
:202F8C007AE7A36FE16F009131463847E16CA36FE66F009628479259A36FE56F0095704785
:202FAC0080680721884328387047016881F3088841688F46A36FE56F00953047A36FE66F4F
:202FCC000096FFE782B00094014C019410BD00BFCD080000204629462A46FFE782B000946F
:202FEC00014C019410BD00BFDB260000012220463946C2E6802280580860704780B5FFF7E2
:20300C0000FF80BD80B5FFF709FE80BD80B5FFF7C7FF80BDA36F009544E72A463B46B9E56A
:16302C0000F003F8FEE706C0704700BF70470068704701207047D4
:2030440000010203040001020304000102030400010203040001020304000102030400012F
:2030640002030400010203040001020304000102030400010203040001020304010101010D
:203084000102020202020303030303040404040400000102030000010203000001020300EC
:2030A4000001020300010203040001020304000102030400010203043059301306072A8655
:2030C40048CE3D020106082A8648CE3D030107034200042ACB403CE8FEED5BA44995A1A9C6
:2030E4001DAEE8DBBE1937CD14FB2F245737E5953988D994B9D65AEBD7CDD5308AD6FE48A8
:20310400B24A6A810EE5F07D8B6834CC3A6AFC538EFAC1000000000001010101010202022A
:20312400020202020202020303030303030303030304050404040405040404040504040420
:203144000405040404000000000001010101010008000000FCFFFFFFFFFFFFFFFFFFFFFF58
:2031640000000000000000000000000001000000FFFFFFFFFCFFFFFFFFFFFFFFFFFFFFFF5D
:2031840003000000000000000000000004000000FCFFFFFF00000000080000004B60D2277F
:2031A4003E3CCE3BF6B053CCB0061D65BC86987655BDEBB3E7933AAAD835C65ADFBDC42977
:2031C40062DF9CD890308478CD05F0ACD62E21F7AB20A2E5344887041D0630DC0000000068
:2031E4000800000096C298D84539A1F4A033EB2D817D0377F240A463E5E6BCF847422CE137
:20320400F2D1176B08000000F551BF376840B6CBCE5E316B5733CE2B169E0F7C4AEBE78EC4
:203224009B7F1AFEE242E34F0300000000000000FFFFFFFFFBFFFFFFFEFFFFFFFFFFFFFF14
:20324400FDFFFFFF040000000000000008000000512563FCC2CAB9F3849E17A7ADFAE6BC2E
:20326400FFFFFFFFFFFFFFFF00000000FFFFFFFF08000000FFFFFFFFFFFFFFFFFFFFFFFF5A
:2032840000000000000000000000000001000000FFFFFFFF00010001000100010001000127
:2032A400000001010001000100010001010101010000000000000000000000000000000000
:2032C4000203040500000000000101000000000000000000000000000000000000010001D8
:2032E40000000101000100010001000100010001000100010401040304020401040104039D
:2033040001030304010400002C33000038330000443300000000000077C295F360D2EF7FF7
:203324003552500F2CB67980007F00000000000000600000017F00000060000000B0030056
:20334400027F00000010040000B003002A8648CE3D03010700000000BC3000007C33000078
:1C3364002A8648CE3D020100030301020303000001000000F92E00005B000000B5
:08338000000000000000000045
:20338800001500000FDD01FF0000010F44FFF00075230000212E0000752E00000200000055
:1433A800682500008833000068450020A43300000000002005
:020000044E02AA
:20000000FFFFFFFF000000000000000000000000FFFFFFFFFFFFFFFFAAAAAAAA0000000044
:20002000FFFFFFFFFFFFFFFF00000000FFFFFFFF00000000000000F00000000000000000DC
:200040000000000000000000000000000000000000000000000000000000000000000000A0
:20006000000000000000000000000000000000000000000000000000000000000000000080
:20008000000000000000000000000000000000000000000000000000000000000000000060
:2000A000000000000000000000000000000000000000000000000000000000000000000040
:2007C000000000000000000000000000000000005AA500000101020305080D156DD7E43686
:2007E000EBF431DF95AE15EE03BA8EE4C4C63FD8453F675E74D7C2012C9058E500000000A4
:00000001FF
