:1000000000000420513A0000DB380000DD38000019
:10001000E1380000E1380000E1380000DF3800007E
:10002000000000000000000000000000E1380000B7
:10003000E138000000000000E1380000E138000075
:10004000E1380000E1380000E1380000E13800004C
:10005000E1380000E1380000E1380000E13800003C
:10006000E1380000E1380000E1380000E13800002C
:10007000E1380000E1380000E1380000E13800001C
:10008000E1380000E1380000E1380000E13800000C
:10009000E1380000E1380000E1380000E1380000FC
:1000A000E1380000E1380000E1380000E1380000EC
:1000B000E1380000E1380000E1380000E1380000DC
:1000C000E1380000E1380000E1380000E1380000CC
:1000D000E1380000E1380000E1380000E1380000BC
:1000E000E1380000E1380000E1380000E1380000AC
:1000F000E1380000E1380000E138000038B5DFF8F1
:10010000D4472568402045F40025256000F0FCFB1D
:1001100025F40025256031BD2DE9FC478C460400FF
:1001200017461E464FEA9C0544D04FF0000815B311
:1001300007F1B04101F518312246A0070B4620B95E
:10014000D2F80090C3F800900FE092F800E092F827
:10015000019092F802A04EEA092E92F803904EEA1E
:100160000A4E4EEA096EC3F800E008F10108121DBC
:10017000091DA845E2D31CF003001BD00023009307
:10018000A10729D0002104EB880212F801EB009BA3
:10019000CC000EFA04FE4EEA0303491C0093814290
:1001A000F3D3009807EB880101F1B04101F5183154
:1001B00008606D1C56B1042E19D0082E1DD00C2ECF
:1001C00002BFB808DFF81017C8601AE0DFF80807A8
:1001D000B9080160056114E054F8281068440091E2
:1001E0000CF00301C1F1040100F092FBD9E7DFF844
:1001F000E806B9084160456103E0B808DFF8D816A1
:10020000886005F00100451907EB8500BDE8F68719
:1002100080B5FFF781FF083002BD38B40B461446A5
:10022000DFF8B8160A68150448BF08203BD489686F
:100230000A0407D51968A1B108B100210170012095
:1002400018602FE0C1F30A01DFF89426491C121947
:10025000B1EB920F06D3A1EB92011D688A00954283
:1002600003D263E0102032BC70471A60002818BF28
:10027000002917D08207234612B91D6805600DE0DA
:100280001B6800939DF8005005709DF80130437085
:100290009DF8023083709DF80330C370001D241D4B
:1002A000491EE8D1002032BC704738B40B461446D2
:1002B000DFF828160A68150448BF082034D4C96836
:1002C0001A680D0406D582B108B100210170012021
:1002D000186028E0C1F30A01DFF80456491C2D1903
:1002E000A1EB95018D00AA4200D21FE01D600028FD
:1002F00018BF002917D08207234612B91D68056070
:100300000DE01B6800939DF8005005709DF80130CA
:1003100043709DF8023083709DF80330C370001D58
:10032000241D491EE8D1002032BC7047032032BC96
:1003300070472DE9F8430D460446DFF8A8154868D4
:1003400090460022070448BF082000F18580086815
:1003500010B10120BDE8F283C868010448BF112034
:100360007AD49908ACB311B34746A646A007BC4659
:1003700020B9DCF80090CEF8009012E0DCF80060C4
:1003800000969DF800908EF800909DF801C08EF8C0
:1003900001C09DF802C08EF802C09DF803C08EF81F
:1003A00003C0521C3F1D0EF1040E8A42DFD313F02E
:1003B000030013D008EB820EDEF8007004EB82021B
:1003C0006C46009714F8017B401E02F8017BF9D1BE
:1003D00002E013F0030F01D04C1C00E00C4604F0C7
:1003E00001000419A41C2A4608EB84089AB30024CF
:1003F00001B3454617469007AC4618B9DCF80060D3
:100400003E6012E0DCF800E0CDF800E09DF800600E
:100410003E709DF801C087F801C09DF802C087F8C2
:1004200002C09DF803C087F803C0641C3F1D2D1D4A
:100430008C42E1D313F003000DD008EB8408D8F808
:100440000010009102EB84016A4612F8013B401E45
:1004500001F8013BF9D10020BDE8F283DFF87C040C
:1004600001680A0401D508207047092070478A08EE
:10047000002330B4920006D0044600251B1D44F82A
:10048000045B9342FAD311F0030F09D01B1F8B4278
:1004900006D200EB8300C91A10F8042B491EFBD1C9
:1004A00030BC7047F8B51646DFF83C546A691F4601
:1004B000130401D50820F2BD069C00230022FFF79B
:1004C0002BFE0246042339463046FFF7A1FE00F119
:1004D000B04101F518312160800828604FF40240D6
:1004E00086E032B504461546FFF7C1FF2A46694645
:1004F0002046FFF7DAFE32BD70B50C46DFF8DC634C
:10050000316815460A0401D5082070BD0023002279
:100510002946FFF701FE0246042329462046FFF73D
:10052000FBFD4FF404403060002070BDDFF8AC03E9
:1005300001680A0401D5082070474068012804D0EA
:10054000022806D0042802D005E0072070470520C5
:1005500070470620704701207047F8B51646DFF84F
:100560008C532A691F46130401D50820F2BD069C4E
:1005700000230022FFF7D0FD02460423394630460F
:10058000FFF7CAFD00F1B04101F518312160800884
:1005900028604FF4704028610020F2BD32B5FFE7BB
:1005A00004461546FFF763FF2A4669462046FFF7D3
:1005B00034FE32BDF8B51646DFF82C536A691F4683
:1005C000130401D50820F2BD069C00230022FFF78A
:1005D000A3FD0246042339463046FFF79DFD00F196
:1005E000B04101F5183121608008286048F201000F
:1005F00068610020F2BD10E6F8B51646DFF8E85253
:100600006A691F46130401D50820F2BD069C002329
:100610000022FFF781FD0246042339463046FFF7EA
:100620007BFD00F1B04101F51831216080082860A0
:1006300048F21000DCE7F0E52DE9F84FAB4F3C69DC
:10064000250448BF082037D4DDF830A09B469046EB
:100650000D460D9CDDF82C900A9E00230022514689
:10066000FFF75AFD0246042351465846FFF7D0FDD6
:100670000246FF2351463046FFF7CAFD0246FF23DC
:1006800051464846FFF7C4FD024608235146284616
:10069000FFF7BEFD0246FF2351464046FFF7B8FD77
:1006A00024B100F1B04101F51831216080083860B3
:1006B0004FF4504038610020BDE8F28F39E62DE953
:1006C000F84F8A4F3C69250448BF082037D4DDF82D
:1006D00030909A4615460C460D9EDDF82C80DDF8CC
:1006E00028B0002300224946FFF792FD0246FF236F
:1006F00049462046FFF78CFD0246042349465846EA
:10070000FFF786FD0246FF2349464046FFF780FD7E
:100710000246082349462846FFF77AFD0246FF2392
:1007200049465046FFF774FD00F1B04101F518311C
:100730003160800838604FF4304038610020BDE8F7
:10074000F28FF6E52DE9F84783B00E9E99460C46E8
:10075000154600238046029332462946FFF7CCFE19
:100760005E4F38680104FCD4FFF7E0FE062818BF8E
:100770000D2040F0AC80324629462046FFF7BCFEF3
:1007800038680104FCD4FFF7D1FE062818BF0E20FC
:1007900040F09D8002A800903346424631464046D4
:1007A000FFF708FF39680A04FCD4C820029A0190B8
:1007B000DFF83CA101A95046FFF71DFF002876D1C4
:1007C00002A80199009033464A465046FFF714FFAD
:1007D00038680104FCD4C820029A019001A950464F
:1007E000FFF729FF002862D102A801990090334643
:1007F00042465046FFF7DEFE38680104FCD4C820AC
:10080000029A019001A95046FFF7F5FE00284ED14B
:100810000C9A02A80199009033465046FFF7ECFE6F
:1008200038680104FCD4C820029A019001A95046FE
:10083000FFF701FF00283AD102A801990090334642
:100840002A465046FFF72EFE38680104FCD4C82023
:10085000029A0190DFF89C80C8214046FFF741FED4
:1008600028BB02A800903346224631462046FFF7B7
:10087000A1FE39680A04FCD4C820029A019001A99B
:100880005046FFF7B8FE90B902A801990090334690
:100890002A465046FFF706FE38680104FCD4C820FB
:1008A000029A0190C8215046FFF71BFE08B10120B3
:1008B0000DE0324641465046FFF71EFE38680104FF
:1008C000FCD4FFF733FE072814BF0F20002004B02C
:1008D000BDE8F0873C200858005002581C500258D0
:1008E00000A0FDA718500258085002580C5002589A
:1008F0000064025800660258EFF3108072B6704729
:10090000EFF3108062B670470138FDD17047704731
:10091000002200F019B80EE0026843680244083073
:100920005FEAC37C44BF4B445B1E52F804CB43F8E0
:1009300004CB091FF9D150F8041B0029ECD17047F2
:1009400062F30F2262F31F42401810F0030308D035
:10095000C91A1FD3DB0748BF00F8012D28BF20F8B4
:10096000022D130030B414461546103928BF20E973
:100970003C00FAD8490728BF20E90C0048BF40F8DE
:10098000042D890028BF20F8022D48BF00F8012D52
:1009900030BC7047C91818BF00F8012DCB0728BF1D
:1009A00000F8012D704700002C2251430844704785
:1009B0002C2251430844016A486870472C2359434C
:1009C0000844416A01EBC202506870472C23594326
:1009D0000844416A51F832000968401A7047F8B576
:1009E00004460D461646002739462046FFF7DCFF31
:1009F000024633463946204600F0A6FA18B97F1C55
:100A0000012FF1DD02E0002F01DD05B90020F2BD6C
:100A10001CB50B46FA210091012B08D1426A00F166
:100A200028046946184600F00AFC40B116BD022BA6
:100A300003D1026D00F15404F3E7012016BD0098C4
:100A40002060002016BD10B504460121FFF7E0FF2D
:100A500020B902212046FFF7DBFF08B1012010BDBD
:100A6000206A00F0CDFBE065002010BD00210122CE
:100A700081718160C160427102600271C271704710
:100A80004179012901BF0268012A0079012800D0BB
:100A9000002070477CB504460D46002000F0BBFBEB
:100AA0006946C0B200F0D5FA98B9009800F0BFFBD3
:100AB0000646009800F0F1FA29462046FFF774FF39
:100AC0000021435C9E4204D1491C0429F9D3002033
:100AD00076BD4FF0FF3076BD000000002DE9F041FB
:100AE0000546DFF8282486B00C461668002000F082
:100AF00092FB05A9C0B200F0ACFA08B1304666E03E
:100B000021462846FFF750FF064621462846FFF7B4
:100B1000C1FF10B13069C00601D5012553E0DFF8EF
:100B2000F07314B300212846FFF73EFF80460121F1
:100B30002846FFF739FF08F1140110F8142F0B783D
:100B4000934212D39A420BD342784B7893420CD300
:100B50009A4205D340884988814206D3884204D20C
:100B600000212846FFF796FF38BB00204FF4807322
:100B7000049002900193DFF89C03059B00210090F4
:100B800003913246002000F09DFB05460598316830
:100B9000DFF8842391420FD1F16832894FF0FF339F
:100BA0009B1A8B4208D380685118814204D2DFF827
:100BB0006C130A68954206D024B10598002182681A
:100BC00000F0DCFA3D68059800F067FA284606B0A8
:100BD000BDE8F08100F0D2BA2DE9F84F8846914681
:100BE0001E460A9F0B9C0025DFF834A300E05D44FD
:100BF000A54218D2A4EB050B40F20140834528BF63
:100C00004FF4806B5B465246A919404600F052FAF9
:100C100038B95B465246E919484600F07DFA00288B
:100C2000E5D0012000E00020BDE8F28F2DE9F04F73
:100C30000D460446DFF8D412086889B000260890F3
:100C4000DFF8E002606200F5FA60206531460020BE
:100C500000F0E1FA2C22724304F12001C0B21144E9
:100C600000F0F7F918B9761C012EEFD906E040F232
:100C70004C72DFF8B41200F032F9FEE720460FF2B2
:100C8000B026DFF8A472FFF7DEFE08BB00220021C9
:100C90002046FFF7A4FED8B9204600F06EF9B8B19F
:100CA00004A8FFF7E3FE04A8FFF7EAFE002838D106
:100CB00040F28F62394682A000F0F0FB04AA0021C6
:100CC0002046FFF78CFE18B140F29B6200F002F95B
:100CD000012084F8580094F858008DF8170094F813
:100CE0005800401E70D0401E022802D9C01E6BD092
:100CF000A3E003A9012000F0ACF918B140F2DE3204
:100D000000F0E8F802A9022000F0A3F918B140F2BF
:100D1000E23200F0DFF84FF00009D4F82880CA462C
:100D20003DE09DF8170001281CD1002000F088FC50
:100D30008046B8F1020F1CBFB8F1040FB8F1030FE1
:100D40000DD100F0C3F875490A68904207D0704B86
:100D5000196888420CBF4FF001084FF0050884F86D
:100D60005880B8E700F0B2F86C490A6890420CBFAE
:100D70009DF817000520ACE74A4600212046FFF702
:100D80001DFE834603985A465146FFF723FF18B1CC
:100D90004FF47A7200F09EF8DA4409F10109C14576
:100DA000EAD30020039A02990090CDF804A0002312
:100DB0002046FFF711FF90B140F2955200F08AF8FB
:100DC00040F2A37200F086F894F85800FF2838D15A
:100DD00040F2BA7239463AA000F060FBFEE700220A
:100DE00001212046FFF7EAFD80460022012120462E
:100DF000FFF7ECFD00F066F818B140F2374200F062
:100E000069F8606D0121A0F101094A462046FFF70B
:100E1000D5FD80464A4601212046FFF7D7FD00F068
:100E200051F818B140F23F4200F054F8039800F036
:100E300034F9029800F031F9C6E7FF2084F8580031
:100E4000C6E700210091012804D004AA2046FFF73C
:100E5000C6FDD0B9002200212046FFF73FFE2F49F2
:100E600009682A4A1268884205D190421EBF284B61
:100E70001E68B04201D1089207E00098401C009023
:100E80000098012800D0FEE7089104A80021002264
:100E90000023002680E84E00216A4878002128714E
:100EA0002046FFF785FDA8602C60E06C00F0F5F8A7
:100EB000206A00F0F2F8089809B0BDE8F08F000051
:100EC0003000000001460298424683E604AA012150
:100ED000204603E63946304600F0E0BA414600BFFE
:100EE00013A000F0DBBA000010B50446002000F0AB
:100EF00005F821460D48FFF799FE10BD002812BFE6
:100F000060216021094800F0F3BB00000C000020C4
:100F100010000020D01300203DB8F396D815002013
:100F2000D00F002030000020C437000060150020E2
:100F30007263203D3D2030002C2359430844416A10
:100F400001EBC2025068704738B51546002000F02A
:100F500062F96946C0B200F07CF8040009D100983B
:100F600020232A46002100F0A5F80446009800F04E
:100F700094F804B10124204632BD2DE9F84F804693
:100F8000D8F82850D8F854A0FB2D38BFBAF1FB0F81
:100F90002BD24FF0000B0024D9460026002707E093
:100FA00000F02AF8834400F023F88144641C761C86
:100FB000AC4228BF564513D2CB45F1D008D200F041
:100FC0001BF88344022F1CBF0127641CF0D10CE0E6
:100FD00000F00EF88144012F18BF0227E7D104E08A
:100FE000AC4204BF5645012000D00020BDE8F28F7E
:100FF0003246012140469FE72246002140469BE7BA
:1010000038B5DFF89C42204600F07DFB0546DFF84E
:101010009402016841F030010160E8B240B1002162
:10102000204600F069FB204600F06DFB0028FAD155
:10103000E8B232BD80B518B10121994800F05CFBDF
:101040009848016821F03001016001BD4FF0FF3088
:101050007047F8B502460B464FF0FF300025924C22
:1010600000E06D1C04EB85067168A9B10F78BA42E7
:10107000F7D1196070684178802904BF2078002872
:1010800009D100F0A6FB00F0010090F0010003D1AF
:1010900001212170F2BD0020F2BD4078802800D0EF
:1010A000704710B5804C207818B100F0D3FB0020B9
:1010B000207010BDF1B50D464168407800246D18D0
:1010C00016461F467F2805D13A462946304600F08D
:1010D0006BFC1FE080281BD1734C207838B9009836
:1010E00069460078FFF7B5FF040013D106E000F071
:1010F000B1FB00F06EFB08B101202070324639468A
:10110000284600F0BBFB00F0010484F0010401E07C
:101110004FF0FF342046F2BD2DE9F14181B00D467C
:101120004168407816466D181F464FF0FF347F28FF
:101130000FD1FFF765FF8046294630465B4D2E688C
:101140003A46B369984700B900244046FFF772FF5A
:1011500011E080280FD15449087818B900F04CF8F4
:10116000040008D132463946284600F0ACFB00F0B6
:10117000010484F001042046BDE8F6812DE9F14127
:1011800081B00C46019915464FF0FF304A68497806
:10119000A4187F291ED146480668FFF731FF07468D
:1011A000B6B2A04600E0B044281980450DD23F4AAF
:1011B0001368404659698847C0B20028F3D03846C2
:1011C000FFF738FF4FF0FF3014E03846FFF732FFEB
:1011D00000200FE080290DD13349087810B900F0C4
:1011E0000BF838B92946204600F0A5FB00F00100B5
:1011F00080F00100BDE8F681019801A9007828E798
:1012000040787F2802D12A4801681FE78028FCD156
:101210004FF48050704719B1022905D002D305E080
:101220000120704702207047032070470EE70146F7
:10123000497800207F2914BF8029FF207047F0B52E
:10124000034600240025184E00E06D1C301D50F8A8
:10125000250000B30778BB42F7D143787F2B03D139
:10126000134B1B689BB203E0802B14D14FF48053C7
:101270008568466800205D196D1EB5FBF3F5171DE6
:1012800005E047F8303042F830609E19401CA84213
:10129000F7D30D6001E04FF0FF342046F0BD0000B1
:1012A000004003400440034014000020A801001047
:1012B000F02303580846114600F0B6BB084600F07C
:1012C000BEBB00006E482DE9F04FD0F800A0BBB0C7
:1012D00016461D46469C0027D1464FF0FF3800F0C9
:1012E0009FFB34B1479A002A03DD21466846FFF789
:1012F000E1FF049630893246D168528900240818EB
:10130000861805E044995A466846FFF7D3FF5C44C7
:10131000B44210D2DDF814B1301B834588BF834638
:10132000449A5B4621462846FFF7C4FE0028E9D0D0
:1013300000F078FB4AE00395489C0BA96846FFF74C
:10134000BDFF00F06FFB24B120220BA9204600F066
:101350002BFB039A049900974FF6FF7305A800F042
:10136000AFFB002815D10398DFF818B100F03EFC60
:101370000A99884201D229E001270DF1060301AA4A
:1013800002A905A800F0E3FB002872D404DD97F061
:1013900001006ED1CA466EE0BDF80600102819D1D2
:1013A000BDF80400202811D10299039820231BAA1C
:1013B000FFF780FE00285CD120221BA90BA800F0BB
:1013C00013FC8246304801688A45D5D02C4AD2F8B1
:1013D00000A050E02D480468BDF80600BDF80430B8
:1013E00001282CD1212BF1DA00F052F8002840D14D
:1013F000BDF80450E8B2212838DA002600E0761C57
:10140000A64219DA00F00CFB0BEBC60041686846F7
:101410000A685BF83610FFF74DFF13A96846FFF71F
:101420004DFFEAB21BA913A800F0E4FB0028E6D1A7
:1014300000F0F8FAB046A0E700F0F4FA16E022282F
:101440009BD1B8F1000F11D4A0450FDA812BBDD28A
:1014500000F01EF868B95FFA88F00090BDF804301B
:101460001BAA20210BA800F023FC81464FF0FF3877
:1014700083E70028AAD150463BB0BDE8F08F0000BA
:101480000C000020A43A0000D8150020B03A00005B
:10149000029903981BAAFFF70DBE000000B583B0A8
:1014A0000091019202906A4604491820ABBE0028C0
:1014B00001D100F08FFC03B000BD00BF101002008E
:1014C00080681038704780B5FFF7FAFF0838C00809
:1014D000C00002BD80B5FFF7F6FF083802BD80B539
:1014E000FFF7F8FF083802BD042806D0052802D10E
:1014F000012904D001E0884201D101207047002079
:10150000704738B50C00154618BF002D09D0FFF7FD
:101510008EFE0021625C824203D1491CA942F9D3AC
:1015200001E0002032BD012032BD38B50D46114624
:10153000044601232A46FFF7BDFD002801D50120FE
:1015400032BD012229462046FFF7DBFF08B1032008
:1015500003E02878012818BF02202870002032BD3F
:1015600030B504460D4685B0A168102301AA103994
:10157000FFF7A0FD00283CD4102201A92046FFF768
:10158000C0FF08B1032009E010220FF2401101A8AA
:1015900000F030FB00280CBF0120022028702046FC
:1015A000FFF79DFF014601236A462046FFF782FDB3
:1015B00000281ED49DF800000122694600F00F00AB
:1015C00068709DF80000000928712046FFF799FF18
:1015D00010B96878042803DD0121002069702871A2
:1015E0002046FFF777FF0246A91C2046FFF79DFF24
:1015F00008B1012003E0E91C204600F015F805B011
:1016000030BD1CB50C466946C0B2FFF722FD08B1DB
:10161000012016BD00982146FFF7A2FF044600F006
:1016200051F8204616BD000038B504460D46FFF7B8
:101630004AFF024629462046BDE8384075E70000CB
:1016400038B584B069460120FFF7DBFFA8BB02A9CB
:101650000220FFF7D6FF80BB00245FF00601614344
:101660001EA045189DF800102878FFF73DFFD0B167
:101670009DF808106878FFF737FFA0B1A878042814
:101680001CBF9DF8031088420DD1E87804281CBFC8
:101690009DF80B10884206D1287904281CBF9DF8BC
:1016A0000210884203D0641C032CD6D307E068796B
:1016B00002281CBF0328042802D0FF2000E00120DC
:1016C00005B030BD0098FFF7E8BC000077C295F385
:1016D00060D2EF7F3552500F2CB67980040104039D
:1016E00004020401040104030103030401040000D3
:1016F000002200F073BB000050F8042F920862F340
:101700009F01016070470068010701D50420704700
:1017100000F0030070470000002000E0012049496C
:101720000870704738B5FFF7F7FF04219BA000F061
:101730006FFB10B1FFF7F2FF07E0434D022128468F
:1017400000F076FB00F043F80CB1002032BD3F49B9
:1017500000E00831086840B12A780879824202BF67
:101760006A7848798242F4D10120696032BD000074
:1017700038B5FFF7D1FF00F077FBFFF7CFFF00BFD1
:1017800087A5FFF7C9FF0121284600F041FB012191
:10179000684600F04DFB00F01AF824B99DF80000EF
:1017A000C107EED402E06FF0010032BD002032BD6F
:1017B00010B5FFF7B1FF01217AA000F029FB00F07E
:1017C00006F814B16FF0020010BD002010BD0446F1
:1017D000A4E71CB50A211E4800F04CFB142000F0C1
:1017E000DEFBFFF79BFFAB208DF80200FFF794FFB5
:1017F00001210DF1020000F00BFB441EA441E40F97
:10180000FFF78CFF200013D04FF4C870ADF8000034
:10181000BDF8001004E0BDF80020501EADF8000037
:10182000BDF800000028F6D1FFF7A2FF00B10024A8
:10183000200003D0FFF776FF044601E000F00AF82D
:10184000204616BD14200240D0150020E4380000C8
:1018500000093D001CB5B9208DF80000FFF75CFFC2
:10186000012100F02DF8FFF759FF0A24FFF75AFF76
:1018700008B1641EFAD100F045FB13BD7CB50446E7
:101880000D461646FFF774FF68B90320220C210AA3
:101890008DF800008DF8012000F07AF800F00FF8C4
:1018A00018B1FFF73BFF002076BD2946304600F017
:1018B000BFFAFFF78CFF601E8041C00F76BD042188
:1018C000684600F0A5BAF8B505460C46164623E072
:1018D00005F0FF00C0F580702746844288BF0746A8
:1018E00002208DF80000290C280A8DF801108DF8CF
:1018F00002008DF80350FFF70FFF042168467D19A1
:10190000E41B00F085FA88B93946304600F080FAC9
:1019100060B9F619FFF702FF5CB1FFF729FF18B9AC
:10192000FFF746FF0028D3D00020F2BDFFF7F6FEF8
:10193000FAE70120F2BD7CB504460D19240B6D1E9B
:10194000240320202D1B8DF8000005F6FF750026CE
:101950000DE0200C210A8DF8010000F019F8FFF7C6
:10196000AEFF80B9FFF7DAFE04F58054761CB6EBC3
:10197000153F0BD2FFF7FCFE18B9FFF719FF00283F
:10198000E7D0002076BDFFF7C9FEFAE7012076BD5B
:101990008DF802108DF80340BEE6000090FFFF00B6
:1019A000050000000600000062B38B0708D0521E3D
:1019B00011F8013B00F8013B00F024808B07F6D1C1
:1019C000830740F0208000BF103A07D330B4B1E85D
:1019D0003810103AA0E83810F9D230BC530724BFB1
:1019E000B1E80810A0E8081044BF51F8043B40F8E3
:1019F000043BD20724BF31F8022B20F8022B44BF4E
:101A00000B7803707047083A07D3B1E80810083A1A
:101A100040F8043B40F804CBF7D25307E4E700005A
:101A200000F0CEBB00F006BC38B504460D4600F011
:101A3000C7FB29462046BDE8344000F031BC10B554
:101A4000044600F0BDFB204600F08CFC044600F08C
:101A5000F1FB204610BD00F0E6BE00F0FEBE70B502
:101A600098B006460D461446412107A8FFF740FEF0
:101A700004228DF81C20202231460DF11D00FFF7B5
:101A800093FF202206F120010DF13D00FFF78CFFAE
:101A9000412207A96846016042600848029004F1AB
:101AA0002001CDF80CD004950594069102A800F011
:101AB00042FD08B14FF0FF3018B070BD343900005E
:101AC0002DE9FC4104000D46164698461CBF002D2A
:101AD000002E24D0E868298904236A46471839462D
:101AE0003046FFF7E7FAD0B9BDF8000046F6081116
:101AF00088420CD1BDF80200698981420FD13918A2
:101B000004236A463046FFF7D5FA10B107E068892A
:101B100028B9BDF8000046F60711884202D04FF000
:101B2000FF3012E0089825606660A4F80880A07273
:101B3000206841897918E1604089BDF802103818A1
:101B40003F1D4118616127610020BDE8F681F8B5AD
:101B500004000E4617461D461CBF206800282BD0E7
:101B60006068A8B928E0A07A18B12069E1688842C5
:101B700037D220894FF6FF7188421CBFBDF8002084
:101B800082421CD02069BDF802104118091D216154
:101B900021696069814224D22268508920B1E068BD
:101BA000814204BF091D21612169606804236A46DE
:101BB000FFF780FA0028D6D04FF0FF30F2BD15B104
:101BC000BDF8000028802169091D3160BDF80200C0
:101BD00038802169BDF802000818001D206100202E
:101BE000F2BD0120F2BD000000F004B8FFF777BCA1
:101BF000000000000300002013F0030F09D0521E64
:101C000022BF13F8010B11F801CBB0EB0C00F3D09D
:101C10007047121F22BF53F8040B51F804CB6045E4
:101C2000F7D0121D0AD200BA9CFA8CFCB0EB0C0063
:101C300038BF6FF0000088BF01207047521E22BFDE
:101C400013F8010B11F801CBB0EB0C00F6D0521CCD
:101C500008BF10467047000038B50D4604461146CF
:101C600002236A46284600F07EFE10B16FF00200A3
:101C700032BD0098202806D328680099202201440C
:101C8000203920460BE00146C1F120012046FEF735
:101C90003FFE009A29681046404220442030FFF75A
:101CA00083FE2968009808442860002032BD0000A7
:101CB0002DE9F04393B080461A9815463D49C0B2CD
:101CC00051F830203C4F3C68009201EBC000416865
:101CD000994613460A689E18FFF7BDFE302301AAF5
:101CE0003146684600F03FFE00285CD1009801991B
:101CF00002AB05AA46183146684600F05EFE002891
:101D000004BF069807284ED1079807222CA1FFF799
:101D100071FF002804BF0398082844D104980822C2
:101D200029A1FFF767FF00283DD101AA3146684687
:101D300000F02FFE002801BF009801994118B14220
:101D400031D10198412802BF0098017804292AD195
:101D5000401C009004460195A944302302AA49463C
:101D600001A8164D00F0FFFDB0B901980299014499
:101D7000894511D34A4601A903A8FFF76DFF58B959
:101D80004A4601A90BA8FFF767FF28B9414603AAF5
:101D90002046FFF764FE08B13C6800E02C68286824
:101DA000844218BF3C68FFF758FE204613B0BDE8D8
:101DB000F0830000A43A00000C000020D815002099
:101DC0002A8648CE3D0201002A8648CE3D030107FF
:101DD00000000000012000F02FBE000000B500BF91
:101DE000130096469446103928BFA0E80C50FAD844
:101DF0005FEA417C28BF0CC048BF40F8042BC907EC
:101E000028BF20F8022B48BF00F8012B00BD0000BE
:101E100038B505460C0008E015F8011B4FF080406E
:101E200000F045FE00F01BF8641EF5D1002032BD25
:101E300038B505460C4605E000F011F80098641E20
:101E400005F8010B4CB100214FF0804000F020FE5E
:101E50000028F1D14FF0FF3032BD002032BD69467D
:101E60004FF0804000F02DBE80B500F046F800280D
:101E7000FBD101BDFEB504460D46062000F03CFE38
:101E8000062000F091FE0128FAD14FF4A06000F086
:101E900061FE2B4E012030602A4F38688007FCD548
:101EA0004FF4807000F056FE0120306038688007E3
:101EB000FCD52548016805220423490A490201602E
:101EC0000262082001900094002220494FF08040D7
:101ED00000F0BCFD00954FF0FF33092208214FF0C0
:101EE000804000F065F81A48016841F00101016086
:101EF00000F003F80028FBD1F7BD69464FF08040A1
:101F000000F0EABD38B54FF4807000F025FE0C4CAF
:101F1000012020600B4D28688007FCD54FF4A0609D
:101F200000F01AFE0120206028688007FCD50620FA
:101F300000F0F8FD062000F037FE0228FAD131BD8E
:101F4000282008602820084028000040006CDC029F
:101F5000040100400123DFF8882101290BD120284A
:101F600004D35168203883400B430BE0116803FA17
:101F700000F008430DE0202806D351682038834044
:101F800021EA030353607047116803FA00F021EA65
:101F90000000106070471143DFF848219BE0DFF834
:101FA00044314FF4404203EB80031A600121D1E732
:101FB00030B4029CB0F1804F1FD111F1010F04D059
:101FC000484D494805EB8105286012F1010F05D005
:101FD00044494CF20A0001EB8201086013F1010F41
:101FE00005D040494CF20B0001EB8301086014F16D
:101FF000010F6ED04CF20C0067E03C4DA8421FD19F
:1020000011F1010F04D0374D394805EB81052860E7
:1020100012F1010F05D033494CF2220001EB82018D
:10202000086013F1010F05D02E494CF2230001EB9B
:102030008301086014F1010F4BD04CF2240044E0FE
:102040002C4DA8421FD111F1010F04D0254D2A4873
:1020500005EB8105286012F1010F05D021494CF2F2
:102060003A0001EB8201086013F1010F05D01D4910
:102070004CF23B0001EB8301086014F1010F28D002
:102080004CF23C0021E01D4DA84222D111F1010F7C
:1020900004D0144D1A4805EB8105286012F1010F98
:1020A00005D010494CF23E0001EB8201086013F1AB
:1020B000010F05D00B494CF23F0001EB8301086092
:1020C00014F1010F05D04CF24000064901EB8401E8
:1020D000086030BC704702EB80021160704700005E
:1020E000D02002400010084009C0002000800040BD
:1020F00021C000200090004039C0002000A0004016
:102100003DC0002080B5FEF7FBFB02E080B5FEF786
:10211000F3FB00B10120C0B202BDB0FBF1F04843B7
:1021200070472DE9F041DFF81C53DFF81C63DFF83E
:102130001C73DFF81C0300F099FDBC68DFF8140382
:102140003860FFF7E3FFB07890BB002C03D54FF069
:10215000FF31716026E0AC6824B3D5F80480402CD0
:1021600015D340212046FFF7D8FF04462346082216
:1021700006F15001404600F099FDA8686968001B0F
:10218000A86021446960F0682418F46010E02246D9
:10219000414606F11000FFF707FC308900212418A2
:1021A0003481A96000227270287808B1F26032810F
:1021B000FFF7A8FF70780028BBD17068BDE8F081F8
:1021C00010B5FFF7A3FFA04C207800B152E1012029
:1021D000207000216170A170FFF794FF0020208122
:1021E000E060FFF793FF9C4C01202070042000F07A
:1021F000DBFC012809D000202070042000F07CFCCA
:10220000042000F0D1FC0128FAD14FF4806000F0E6
:10221000A1FC4FF4806000F0A1FC4FF4806000F05E
:10222000BFFC00F035F88D4801688D4A002311602D
:10223000036001E110B5FFF769FF834C607808B1D6
:1022400000F0E5F800202070854B1968834A116082
:10225000FFF758FFFFF75AFF7F49087838B9042085
:1022600000F060FC042000F09FFC0228FAD14FF43B
:10227000806000F071FC4FF4806000F07FFC4FF450
:10228000806000F08FFC00F003F8BDE8104039E7F3
:10229000012074490860744A10688007FCD57047B3
:1022A0002DE9F04782460E4600F0AEF8664C00205D
:1022B0006060A070634F38702089804604EB08038B
:1022C0003118402930D370B1C8F14008424600F0BF
:1022D00044F80020208104F1100940250AEB080091
:1022E000A6EB080605E0B509AD01D1460AEB0500ED
:1022F000761B7860BE60FFF709FFE0682B46002878
:1023000006D0082204F15001484600F0CFFC05E059
:10231000082204F15001484600F0BBFCE0680121AE
:102320002D18E560617013E0324600F016F8208940
:10233000002136182681B960FFF7E8FE01206070A1
:102340004A4801210160426842F001024260C160D6
:10235000FFF7D8FEBDE8F047E3E6514603F1100071
:10236000FFF722BBFEB5064600F04EF8364F0020C0
:102370007860B870012033490870FFF7C7FE01206C
:102380007870FB683BB93A890823314607F11000A1
:1023900000F0A7FC33E0388958B108210191009082
:1023A000C31807F15002314607F1100000F08BFC12
:1023B00025E0DC00402107F11000FFF799F98020AB
:1023C000002538740020CDE9004542420DEB0203A0
:1023D000DC7939186A4401F8484FD378401C042846
:1023E0000B71F2D3202207F150013046FFF7DCFADF
:1023F00040230822314607F1100000F057FCFFF798
:1024000081FEBDE8F7408CE6272000F02DBD10B519
:10241000FFF77CFE0C4C607800B92BE001201449DA
:102420000860272000F04FFD00202081E06001209F
:102430006FF00201A0706160FFF764FE002010BD24
:1024400000000000C4150020D01400208847025866
:1024500001000080030000802C00002034EF00E029
:10246000DC150020282008602820084080470258FA
:1024700040470258FFF746FE4FF0FF3010BD000006
:10248000F8B5002302F003050024009315E06FF077
:10249000030303FB0423034413F8046D8DF8036066
:1024A0005E788DF802609E788DF80160DE788DF898
:1024B0000060009F41F82470641CB4EB920FE6D3D7
:1024C00000220092012D03D100788DF8000013E066
:1024D000022D06D142788DF8002003788DF8013066
:1024E0000AE0032D0BD182788DF8002043788DF817
:1024F000013002788DF80220009A41F82420F1BDC5
:1025000010B50446FDF7FAFD241F08D0E41F012C86
:1025100005D9A41E012C05D9A41E06D008E06FF031
:10252000060010BD6FF0050010BD6FF0040010BD77
:102530004FF0FF3010BD2DE9F84F84B004462068FD
:10254000C26960684168491EB1EB420F03BF006871
:10255000017804296FF0090020D1E068DFF83053DA
:102560002946FFF78DFF00F050F9FDF777FF0828A7
:10257000FBD0FDF7DBFF062818BF6FF002000DD17E
:1025800000F03EF900F041F9FDF768FF0828FBD0A4
:10259000FDF7CCFF062818BF6FF0030040F029813B
:1025A0002068DFF8F0824146C2696068DFF8E8928F
:1025B0000368581CFFF764FF00F02DF9206800F055
:1025C0007FF949464046FEF7BDF8002840F0EB8011
:1025D00000F016F92068DFF8C422C1690092026990
:1025E0000B462846FDF7B9FFFDF738FF0828FBD05A
:1025F0002068DFF8A8623268DFF8A4A2C1695046FB
:10260000FDF7CCFF002868D120682946C269A06880
:10261000FFF736FF20682A46C369009650461946E0
:10262000FDF7C8FFFDF71AFF0828FBD04FF48075AF
:1026300037467D603A68964E391D3046FDF7DBFF20
:1026400000284AD1206800977968C369026930463A
:10265000FDF728FFFDF702FF0828FBD020683A6845
:10266000C1693046FDF73DFF21680028CA697A60DC
:1026700033D10397C8690290CA68019288680090B4
:102680004B688A6949693046FDF7D6FFFDF7E6FEDB
:102690000828FBD020683A68C3693046F118FEF775
:1026A0000DF8002819D12068DFF8F8B100F0A4F87F
:1026B00020685A46C169009750460B46FDF77AFFDD
:1026C000FDF7CCFE0828FBD0BD603A68744D07F1D9
:1026D00008012846FDF78FFF002864D12068009785
:1026E000B968C36902692846FDF7DCFEFDF7B6FE4E
:1026F0000828FBD020683A68C1692846FDF7F1FE3A
:1027000021680028CA69BA604DD16068CA6941462B
:102710000368581CFFF7B4FE00F07DF820680397AB
:1027200000F0C8F84A460091436841462846FDF744
:1027300083FFFDF793FE0828FBD020683A68C36941
:102740002846E918FDF7BAFF68BB2168C8690397F6
:1027500002908A682B18019249682A460091311824
:102760003046FDF7ACFFFDF779FE0828FBD0206866
:102770003A68B046C36900214046FDF7E2FF90B9D0
:102780002068C169009702690B464046FDF78AFE42
:10279000FDF764FE0828FBD020683A68C16940460E
:1027A000FDF79FFE18B105B0BDE8F04FA8E6206820
:1027B00000F022F820680023C269CDF808B0CDF8F7
:1027C0000480009312F0030F11D100200AE0019958
:1027D00051F82010029B53F82030009C401C5940B7
:1027E00021430091B0EB920FF1D3009808B14FF064
:1027F000FF3005B0BDE8F08F5946C269E0683FE69A
:1028000020682946C26920693AE62068C2690169E0
:102810002846FDF771BE20684946C26960680368B2
:102820001344581C2CE610B51F4C012121700420C4
:1028300000F0BAF9012809D000202070042000F02F
:102840005BF9042000F0B0F90128FAD140F202400F
:1028500000F080F900F014F810BD80B51249087836
:1028600038B9042000F05EF9042000F09DF9022838
:10287000FAD140F2024000F06FF900F001F801BD1A
:1028800001200A4908600A4A10688007FCD5704791
:102890000064025860620258C062025800000020C2
:1028A0000065025800620258E015002028200860E8
:1028B00028200840C1690291C2680192816870476E
:1028C000C169029102690192C168009183684268FE
:1028D00070470000F0B503461C686FF05F000D1BE9
:1028E000002D3FDD2678370609D4651C1D6026784B
:1028F0001D6016601B68C91AB14232D2F0BD06F0E5
:102900007F06761E032E29D8DFE806F002070F1A8D
:10291000012D27DD6678A51CEAE7022D22DD65780A
:10292000A67846EA0526E51CE2E7032D1ADDA57820
:1029300066782D0245EA0645E6782E43251DD7E741
:10294000042D0FDDA57866782D0445EA0665E67846
:1029500045EA062526792E43651DC9E76FF0630019
:10296000F0BD0020F0BD38B504680D1B012D02DA62
:102970006FF05F0032BD25789D4202D06FF061009C
:1029800032BD631C0360BDE83840A3E730236A46CC
:10299000E9E738B5044615460323FFF7E4FF58B9C5
:1029A00029686FF0670039B1491E296022681178E3
:1029B00011B9501C2060002032BDF8B517461D46E5
:1029C00004460E46FFF7E2FFA0BB2068361A002E31
:1029D00002DC6FF05F00F2BD017806233960009AD7
:1029E00086183A1D31462046FFF7BDFF10BB206810
:1029F000B8602168786808442060B04204D10C2196
:102A0000284600F08BFA14E010F8011B2A1D2960FB
:102A1000206031462046FFF75DFF58B92068A86066
:102A20002168686808442060B04202D06FF06500F9
:102A3000F2BD0020F2BD000080B5AFF30080024A75
:102A400011001820ABBEFBE72600020070B4082B73
:102A500019D10824049D039B44F0100400F58276EC
:102A60005B00B1FBF3F1346000F58473491E19601B
:102A7000002400F58A716D1E0C602A4300F58070F9
:102A8000026070BC70470024042BE3D10424E1E70A
:102A900000F588721268930744BF00F5A0700160CA
:102AA00002F00202501E8041C043C00F704700F583
:102AB000887213685FEA837CFBD500F5A070016023
:102AC000704700F5887213685FEA437CFBD400F519
:102AD000987000680860704700F5887212685307A4
:102AE00003D400F598700068086002F00402501EDC
:102AF0008041C00F704700003A49C20744BF01231C
:102B00000B60820744BF01234B60420744BF01238F
:102B10008B60C20644BF0123CB65800644BF0122FF
:102B20004A6570472F49C20744BF00230B608207E4
:102B300044BF00234B60420744BF00238B60C206A2
:102B400044BFC0F30142CA65800644BF00224A6503
:102B50007047000025A102E024A110E02AA1C0F3E3
:102B6000032251F82220012300F01F009446DCF8D4
:102B7000001003FA00F008431060704722A1C0F370
:102B8000032251F82220012300F01F009446DCF8B4
:102B9000001003FA00F021EA000010607047000006
:102BA00020A1DCE71FA1EAE730B40F4B01211A682E
:102BB0005B6DC50704D5D40702D45B0758BF00215D
:102BC000830703D5540804F001042140400703D5CE
:102BD000920802F001021140002914BF01200220D6
:102BE00030BC704730210840402108405420084044
:102BF000782008406C200840602008403C2008589D
:102C00004820084084200840582008407C20084084
:102C10007020084064200840402008584C2008409C
:102C2000882008405C20084080200840742008402C
:102C30006820084044200858502008408C20084054
:102C400070B4834C03252560A66816F0030FFBD1F2
:102C500020B1804C012525606060E16022B17D4893
:102C6000012101624262C36270BC704738B50446FC
:102C7000774D0120FDF748FEA868204010F0030FB3
:102C8000F7D0A8682C60A968214011F0030FFAD191
:102C900032BD38B584B00024012501920394029519
:102CA00000930A4600F069F805B030BD10B584B055
:102CB0000024019200930394029400230A4600F03A
:102CC0005CF804B010BD70B584B001240394099E73
:102CD000089C002502950196009400F04EF804B07F
:102CE00070BDF0B55C4D2E681446082B2E600BD0DD
:102CF000102B0BD0202B02D0402B02D03BE04026E3
:102D000000E03026082703E0202600E01C260427E8
:102D100004B9012409B147F00047DFF840C1CCF8FD
:102D200000704F4F4FF0030EC7F808E04FF0010C52
:102D3000C7F800C0D7F804E043F00103D2004EF01A
:102D4000010EC7F804E06B60AA6080222A600323AA
:102D5000BB603A6912F0030FFBD120B13D4A012359
:102D600013605060D46021B13A480122026241628E
:102D7000C6620020F0BD0120F0BD2DE9F04781467C
:102D8000DDF824E0DFF8D0C0DCF80000BEF1080F69
:102D9000CCF800001ED0BEF1100F06D0BEF1200FFF
:102DA0001DD0BEF1400F17D01BE01C2604240A984A
:102DB000DDF820800B9FC5B2002D1CBFFDB2002D99
:102DC00004D0B8F1000F08BF4FF0010861B144F022
:102DD000004409E02026E9E730260824E7E74026FA
:102DE000FBE70120BDE8F0871C4D2C601C4C4FF028
:102DF000030AC4F808A001252560D4F804A04AF00D
:102E0000010AC4F804A0C4B20CB14EF0010ECCF813
:102E100004E05AB1C0B248B9B00807D0DFF844E0C6
:102E200052F8044B401E4EF8044BF9D1FFB22FB1BB
:102E3000DB00CCF808308020CCF800000A46484679
:102E400033464146FFF7FCFE0020BDE8F087000056
:102E500088470258004002588046025800470258EE
:102E600080470258C0460258042804D12648016809
:102E700021F4803113E0052804D12348016821F4AE
:102E800000310CE0062804D11F48016821F480219C
:102E900005E00F2805D11D48016821F002010160FD
:102EA0007047A0F11002202A05D20121103881407C
:102EB000174A11607047302804D30121303881400F
:102EC000134A516070470E2804D11248016841F03E
:102ED000006105E00F2805D10E48016841F000713E
:102EE00001607047A0F11002202A05D2012110389C
:102EF0008140094A11607047302804D301213038DD
:102F00008140054A5160704724ED00E010E000E088
:102F100080E100E004ED00E080E200E00A0000D182
:102F2000704710B5024C23680021BDE810401847D7
:102F30002800002000F01F00F0B41628A8BF203899
:102F4000DFF804241378014603F01F03162BA8BFF3
:102F5000203B98421FD0DFF8F4030468DFF8F053F9
:102F600024F01004260604D524F080070760D5F865
:102F700000C0AE688B42B4BF5B1C5B1E17789942E1
:102F800063F304071770F4D1A968220603D5A96872
:102F9000AA6804602868F0BC704710B5044604F0C5
:102FA0004070B0F1807F10D1DFF8A8038023037454
:102FB0004FF6D801DFF8A02311800370DFF89C03DF
:102FC0000168C1F30460FFF7B5FFDFF894030168FF
:102FD0008A0748BF44F0406405D4DFF888130A68C4
:102FE00022F020020A60610104D5026822F0050285
:102FF000026010BD016841F00501016010BDF8B527
:103000000446084600F002F90246DFF85C53182136
:1030100028460A50C046DFF8546330683168002300
:10302000C0F38700090201F440710843009040F2A8
:10303000FF322C21284600F0BFF9F26A1C212846F5
:10304000C2F30D020A50C046726A1421284622F0CB
:1030500003320A50C046326ADFF8140310210240DE
:1030600028460A50C046204600F0FEF802460C21D1
:1030700028460A50C0460120222C24BFF06BC0F322
:1030800000704000DFF8EC7240F020003872012040
:10309000222C24BFF06BC0F3407040F01000387257
:1030A000204600F006F90246282128460A50C0466C
:1030B0000020202C24BFB06CC0F30150400040F031
:1030C0006000F8720020222C24BFF06BC0F3C060B7
:1030D000C00040F0800038700020222C24BFF06B2C
:1030E000C0F34550800040F47C40A349088020464E
:1030F00000F0ECF8024628460821BDE8F84000F050
:1031000059B9810C70B501F003019C4C012902D022
:10311000022924D01FE0216A8D031CD44FF4804281
:10312000974B1A60974AD2F802300D0B65F30303F0
:103130000D0C65F3C713C2F80230D2F801500B0A28
:1031400001F0E70163F30305C2F80150136823F0AF
:10315000E703194302E04FF00041894A11604FF044
:10316000A04529680B0702D44021854A91624FF49B
:103170000071854A1160216A844A800DC90C01F0F2
:10318000030141F03001117010F0030003D0022858
:103190002ED012D32EE00121042000F029F97C4822
:1031A00043F2BD7101608622426001238360816821
:1031B0008A07FCD50021816020E0012000F032F96F
:1031C00006463146042000F013F9042000F02AF9E5
:1031D000B042FAD16D6925F07F4000F0A6F86D4A43
:1031E0000721280EFEF7D7FE4FF48060644908607F
:1031F000032100E00221042000F0FAF8206866496B
:10320000664A00F03F000870106870BD02465748DB
:1032100000689303C0F38361C0F38F2021D41204AC
:1032200012161CD54FF6FF73400802D11846490804
:1032300002D0521CF8D412E001210120F9E740002D
:1032400040F001004FF6FF73984281BF0120490012
:1032500041F001010F2984BF0F211846521E002A98
:10326000EDDC40EA01407047014670B44C484FF035
:10327000A04402682568C2F30350C2F30343EE077B
:103280000AD4A468250500EB2570240403EB2473FD
:1032900080F3040083F30403000543EA104310465F
:1032A000222963F31F4024BF02F08042104370BC08
:1032B000704701460020202907D33A480068C10C16
:1032C00001F44071C0F3845008437047014636480A
:1032D000202907D333480168344800EA01308A0ABC
:1032E00040EA82507047324801680A07FCD44168BE
:1032F0004FF0A04213688908890041F0005141F065
:1033000004015FEA437C48BF41F001010BD402682D
:1033100012F0030F07D041F003024260036803F08C
:103320000303032BFAD141607047194982B20A6046
:10333000C0F3074048600120886088688207FCD598
:10334000002088607047000006620858280009586D
:103350002C2009581562085866620858880B0050DE
:10336000100009582450094000A00C58500B005080
:10337000FFFFFC0041A20C585CA30C586C0B0050E2
:1033800080A00C580A60085800A10C5808A20C58DC
:103390007C600C5800C000600BB00C402C20094031
:1033A000780B0050980B005000803F4000F03F0029
:1033B000004003400A50704700EB410000F5806078
:1033C000102B02D3103B001D120C009989B201FA98
:1033D00003F343EA0243036070470818102B02D33B
:1033E000103B801C120C0088024022FA03F0704748
:1033F00038B504460D46E00708D5A8B20090002372
:1034000001220021DFF84000FFF7D6FF600708D552
:10341000ADB2009502230C220021DFF82C00FFF74B
:10342000CBFF31BD18B4DFF82040042807BF1D23AF
:103430004FF0C0421C234FF08052204601B03C2187
:1034400010BCFFF7CABF000000A00C5838B55148A7
:10345000046814F1010F08BF002400F0D3F8FFF74F
:1034600042FF4D4801684D4DCA0703D568682046A4
:1034700000F04CF800204A4908602868C0F3013089
:10348000012806D129684748084040F400322A60E4
:103490002860454C206840F0800020601420FFF731
:1034A00012FD2068414940F4E0202060206840F08F
:1034B000010020600868C0F38150022804BF3C4826
:1034C000FFF733FF3B4801680A07FBD43A483B4902
:1034D00001603B4A42603B4B83603B49C1603B4AD1
:1034E00002613B4941613B4A82613B49C1613B48C2
:1034F0003B4A82604FF4C40141604FF4A302026072
:103500002046016841F00201016031BD38B5044632
:103510004FF0A04001688A0705D48168314A090C40
:1035200041F0F00111704FF001212F4B19602F4A2B
:10353000158845682846FFF730FD05F04071B1F168
:10354000807F04D12A48017841F0020101702946A8
:103550002046FFF754FD27480068274A010B01F079
:103560003F011170C30503D54021214AD17402E007
:103570004021224A1170800900F0380040F4605068
:103580001F4908802846FFF7BCFD0220BDE83240F5
:1035900000F044B81C0B00500C40094028000958AA
:1035A0008C210858EFFFFCFC002009580400005053
:1035B000BD37860000400340A0620858000F0B0092
:1035C000080F0B00030F0B00070F0B001C1C09005A
:1035D000001C090040C00A0080C00A002C100E58D0
:1035E000F00140005662085804A40C5800A00C5882
:1035F000096208580C0C00500EB00C402C620858A0
:103600006AB00C40044802684BF67831C2F30F30C0
:10361000884200D17047FEE7180B00502DE93000BA
:103620000BA10A5C094B09E00D5D00BF09A42C4405
:1036300095422CBF14F8014C64781C601C685D68CE
:10364000AC42FCD18442EFD130BC704700600C40EA
:10365000010200030200010300F1804000F5083080
:10366000017070470121F7E7F8B504460D4616468C
:1036700000270FE02046FFF7F5FF304600F010F876
:1036800004F18041002001F508310870304600F057
:1036900007F87F1CF8B2A842ECD3F1BD0620E1E7A1
:1036A000002101E000BF491C40F6AA72424391424A
:1036B000F8D3704780B50420FFF71EFA0420FFF707
:1036C00073FA0128FAD14FF4A060FFF743FA012002
:1036D0000949086000F00AF80848016841F0400113
:1036E0000160026842F08002026001BD044A106875
:1036F0008007FCD57047000028200860D0200240D9
:1037000028200840016881F3088841688F46E0B5A9
:10371000FFF7D0FFFFF7C2FF6846FDF7E5FB002883
:1037200001BF009908680F4A90420DD14FF4FA7218
:1037300003210720FFF798FF009902980A89801853
:10374000FFF7E0FF00200EBDFFF7B4FF32220A2191
:103750000620FFF789FF4FF47A7202210620FFF757
:1037600083FFF3E73DB8F3963059301306072A86F6
:1037700048CE3D020106082A8648CE3D03010703D4
:103780004200042ACB403CE8FEED5BA44995A1A988
:103790001DAEE8DBBE1937CD14FB2F245737E59556
:1037A0003988D994B9D65AEBD7CDD5308AD6FE48C8
:1037B000B24A6A810EE5F07D8B6834CC3A6AFC53DC
:1037C0008EFAC100433A5C2E636F6E616E5C3866A0
:1037D000346466635C315C736F757263655C7468D6
:1037E0006972645F70617274795C6D6375626F6F2A
:1037F000745C626F6F745C626F6F747574696C5C1B
:103800007372635C6C6F616465722E63000000000C
:1038100096C298D84539A1F4A033EB2D817D03776A
:10382000F240A463E5E6BCF847422CE1F2D1176B05
:10383000F551BF376840B6CBCE5E316B5733CE2BD8
:10384000169E0F7C4AEBE78E9B7F1AFEE242E34F07
:1038500030B4002512E050F8042BD30744BF4A448B
:10386000521E091F042942F8045BFAD213468C0742
:1038700044BF15809B1CC90748BF1D7050F8041B2E
:103880000029E8D130BC70470000000000010000B2
:1038900000010000FFFFFFFF01000000000000002A
:1038A000803A00008C3A0000983A000000000000C6
:1038B0006D3A00000100000080B5FDF71DF8FFF72C
:1038C000C5FD012002BD000040F20000C0F2000072
:1038D00000688546F0E701207047FEE7FEE7FEE757
:1038E000FEE7000000002000C215000000001000EC
:1038F000C214000000000800EF12000000000400E5
:10390000EF110000000000000000000010B50749A2
:1039100079441831064C7C44163404E00A68081DCA
:10392000114488470146A142F8D110BD5000000063
:103930007000000001000000A0390000C039000044
:10394000E0390000003A0000103800003038000074
:1039500020000000010000004EF68851CEF2000168
:10396000086840F470000860BFF34F8FBFF36F8F9B
:103970004FF00170E1EE100A70470000D5FEFFFF26
:10398000B415000030000020000000008BCFFFFFC6
:1039900030000000F4FEFFFF0000002000000000E7
:1039A000FFFFFFFFFFFFFFFFFFFFFFFF0000000023
:1039B000000000000000000001000000FFFFFFFF0A
:1039C000FCFFFFFFFFFFFFFFFFFFFFFF0000000006
:1039D000000000000000000001000000FFFFFFFFEA
:1039E0004B60D2273E3CCE3BF6B053CCB0061D65B3
:1039F000BC86987655BDEBB3E7933AAAD835C65A3C
:103A0000512563FCC2CAB9F3849E17A7ADFAE6BC80
:103A1000FFFFFFFFFFFFFFFF00000000FFFFFFFFB2
:103A2000FFF752FF002801D0FFF770FFAFF30080CF
:103A30000020AFF30080FFF76AFE00F000F800F00E
:103A400001B8000007463846FEF7F6FFFBE7000026
:103A50000548014603B4684680F30988AFF3008047
:103A6000FFF77AFFFFF7DCFFA5EDF5FE10B5044682
:103A700010460A4601462046FCF762FF204610BD6C
:103A8000007F00000000000000600000017F0000D7
:103A90000060000000600F000280000000000000D5
:103AA00000600F0068370000AC3A00005B000000C7
:043AB0000100000011
:020000045000AA
:10000000FDFF7C00FFD5B9F3100080FFFFFFFFFF6D
:10001000FFFFFFFF00008001FFFFFFFFFFFFFFFF6B
:10002000FFFFFFFFFFFFFFFFC50FFEC5FFFFFFFF45
:10003000FFFFFFFF0000C5FF00C5C5FF000000FF78
:1000400000000000FFFFFFFFFFFFFFFFFFFFFFFFBC
:10005000FFFFFFFF0004FEFF0000FCFFFEFFFFFFAD
:10006000FFFFFFFFFFFFFFFFFFFFFFFFFFFFFFFFA0
:0C007000FFFFFFFFFFFFFFFFFFFFFFFF90
:0400000500003A516C
:00000001FF
